:100000003BC100000C9422430C9453430C94844352
:100010000C94B5430C94E6430C9417440C94484458
:100020000C9479445AC1000058C1000056C1000028
:1000300054C100000C94674C50C100004EC1000038
:100040004CC100004AC1000048C1000046C1000088
:1000500044C1000042C1000040C100000C94AA4409
:100060003CC100000C94A6480C94DC4836C100004A
:1000700034C1000032C1000030C100002EC10000B8
:100080002CC100002AC1000028C1000026C10000C8
:100090000C9448490C947E4920C100001EC1000008
:1000A0001CC100001AC1000018C1000016C10000E8
:1000B00014C1000012C1000010C100000EC10000F8
:1000C0000CC100000AC1000008C100000C94EA49FC
:1000D0000C94204A02C100000C948C4A0C94C24A31
:1000E000FCC00000B2334E35B135B335A934DA3433
:1000F00073339333573390357F358C35B335B33500
:10010000B3354233E745EC45F145FB4505467E46B0
:100110000F4617461F46294633463D464C4656462F
:100120007E4660466A467446A046A3469246964678
:100130009C46DA46A746AB46B146B546B946BF46E9
:10014000C346C746DA46CD46D146D54600000A0B1F
:1001500002090C0D0E080703040100000000000056
:10016000000000000000000000000000000000008F
:10017000000000000000000012111000000000004C
:10018000000000000000000000000000000000006F
:10019000000001021020200808102040102040809C
:1001A000020102010804020101020408102040803B
:1001B00080402010080402018004020180402010C9
:1001C0000804020108040201010204081020408012
:1001D00001020408102040800505050507050808F0
:1001E0000808020202020A0A0808040404040101C1
:1001F00001010101010103030303030303030407D6
:1002000007070C0C0C0C0C0C0C0C0202020206066C
:100210000606060606060B0B0B0B0B0B0B0B000062
:1002200020002300260029002C002F0032000001AE
:10023000000003010601090100002200250028003A
:100240002B002E00310034000201000005010801DE
:100250000B0100002100240027002A002D0030009F
:10026000330001010000040107010A0102000549F1
:10027000A749494AEB4A654B11241FBECFEFD1E293
:10028000DEBFCDBF00E00CBF1BE0A0E0B2E0EEE2BD
:10029000F2EB00E00BBF02C007900D92AA34B10749
:1002A000D9F725E1AAE4BBE001C01D92A73BB20744
:1002B000E1F712E0C8E7D2E000E006C022970109AA
:1002C000FE010BBF0E94B757CE36D10780E008076A
:1002D000A9F70E94D3540C94155992CE8F929F92F5
:1002E000AF92BF92CF92DF92EF92FF92CF93DF93C4
:1002F0004B015C01EA01C880D980EA80FB8020E0E4
:1003000030E0A9010E94195718167CF020E030E077
:10031000A901C501B4010E94CA55881F8827881FFA
:1003200091E08927282F30E002C022E030E085E00C
:10033000C816D104E104F10409F468C0A9016627D4
:1003400057FD6095762F4C155D056E057F0509F408
:1003500079C083E0C816D104E104F10449F42130E6
:10036000310509F073C041E050E0E0E0F0E013C077
:1003700084E0C816D104E104F10449F421303105C8
:1003800009F06BC041E050E0E0E0F0E00BC0E0E0DD
:10039000F0E045E050E082E0C816D104E104F10449
:1003A00009F464C081E0C816D104E104F10441F409
:1003B0002230310569F02115310509F457C004C018
:1003C000CD28CE28CF2821F060E070E0CB0104C01A
:1003D00062E070E080E090E0E617F70719F460E073
:1003E00070E0CB012130310559F46230710531F0F4
:1003F0006330710529F424E030E002C023E030E0EE
:1004000045305105A9F0C9019A0102C085E090E08C
:100410006901EE24D7FCE094FE2CC882D982EA82DE
:10042000FB828530910571F09C0160E070E0CB01AA
:100430006901EE24D7FCE094FE2CC882D982EA82BE
:10044000FB8219C060E070E0CB0115C0C12CD12C3B
:100450007601C394E2E0F0E09CCFC12CD12C760170
:10046000C394E3E0F0E045E050E09CCF63E070E04F
:1004700080E090E0B1CFDF91CF91FF90EF90DF90DF
:10048000CF90BF90AF909F908F9008952F923F9202
:100490004F925F926F927F928F929F92AF92BF9294
:1004A000CF92DF92EF92FF920F931F93CF93DF9340
:1004B000CDB7DEB761970FB6F894DEBF0FBECDBFE4
:1004C0008091D5090E949E459093D9138093D813AB
:1004D000A091110AB091120A9C010E94A8570E9493
:1004E000675620E030E040E856E30E941D579B012C
:1004F000AC0160912A0770912B0780912C07909195
:100500002D070E9465556093BC127093BD128093B5
:10051000BE129093BF128091D9090E949E4590937C
:10052000DB138093DA13BC0180E090E00E946756F1
:10053000209111083091120840911308509114082D
:100540000E941D5720912E0730912F0740913007B0
:10055000509131070E9465556093C0127093C1128B
:100560008093C2129093C3128091DD090E949E4530
:100570009093DD138093DC13BC0180E090E00E9437
:100580006756209115083091160840911708509130
:1005900018080E941D579B01AC01609132077091B1
:1005A000330780913407909135070E946555609319
:1005B000C4127093C5128093C6129093C712809193
:1005C000E1090E949E459093DF138093DE13BC01E6
:1005D00080E090E00E9467562091190830911A0837
:1005E00040911B0850911C080E941D57209136070E
:1005F0003091370740913807509139070E9465556F
:100600006093C8127093C9128093CA129093CB1250
:100610008091E5090E949E459093E1138093E01339
:10062000A0910B0AB0910C0A9C010E94A8570E944D
:10063000675620E030E040E057E30E941D572091CC
:100640003A0730913B0740913C0750913D070E948B
:1006500065556093CC127093CD128093CE12909317
:10066000CF128091E9090E949E459093E3138093F5
:10067000E213A0910D0AB0910E0A9C010E94A857A6
:100680000E94675620E030E040E057E30E941D578B
:1006900020913E0730913F0740914007509141071C
:1006A0000E9465556093D0127093D1128093D2123C
:1006B0009093D3128091ED090E949E459093E5138B
:1006C0008093E413A091090AB0910A0A9C010E9448
:1006D000A8570E94675620E030E040E056E30E94B1
:1006E0001D579B01AC0160914207709143078091B7
:1006F0004407909145070E9465556093D41270930A
:10070000D5128093D6129093D7128091F1090E944E
:1007100049478093EB138091F5090E9449478093E4
:10072000EC138091F9090E9449478093ED13809161
:10073000FD090E9449478093EE138091010A0E94AF
:100740009E459093E7138093E613BC0180E090E010
:100750000E94675620911D0830911E0840911F0885
:10076000509120080E941D5720914607309147075D
:1007700040914807509149070E9465556093D812EF
:100780007093D9128093DA129093DB128091050A4C
:100790000E949E459093E9138093E813A0910F0A5D
:1007A000B091100A9C010E94A8570E94675620E051
:1007B00030E040E057E30E941D579B01AC0160917F
:1007C0004A0770914B0780914C0790914D070E940A
:1007D00065556093DC127093DD128093DE12909366
:1007E000DF1280919E14811104C08091991580932D
:1007F000EA132091EC138091EB1390E0820F911D8E
:100800002091ED13820F911D2091EE13820F911D07
:100810002091270A30E02817390784F46091EA1301
:1008200070E080E090E00E946756609378137093C8
:10083000791380937A1390937B1310C080910D08E5
:1008400090910E08A0910F08B09110088093781332
:1008500090937913A0937A13B0937B1360917813DC
:100860007091791380917A1390917B134CE855E144
:1008700035DD672B682B692B51F080919A158331F8
:1008800020F48F5F80939A1502C010929A15909071
:100890009E1491100DC04091280A8091EA13480FD0
:1008A0004D8380910308841718F48091130A8D8377
:1008B000C0902108D0902208E0902308F0902408EE
:1008C00002ED12E08CEFA82E8EE0B82EF8012191F7
:1008D0003191419151918F01C701B6010E941D577D
:1008E000F50161937193819391935F01F6E0023971
:1008F0001F0761F78091EB13882359F09091ED1356
:10090000992339F020919A1543E0249F90011124F6
:1009100087C19091EC13992311F40C940C2B9091B6
:10092000EE1310919A15992309F4A3C020E030E04A
:1009300040E85FE360919606709197068091980673
:10094000909199060E9466556B017C01612F70E0C1
:1009500080E090E00E94675620E030E040E85FE3EE
:100960000E9466559B01AC01C701B6010E94655506
:100970000E943656E3E01E9F90011124F901EE0F0C
:10098000FF1FEE0FFF1FE451F04FC080D180E280C7
:10099000F380C0927813D0927913E0927A13F09298
:1009A0007B13F901EE0FFF1FEE0FFF1FE452FF4E06
:1009B000C080D180E280F380C0928413D0928513EE
:1009C000E0928613F0928713CB010197BC01660F6A
:1009D000771F680F791FFB01EE0FFF1FEE0FFF1F40
:1009E000E453FE4E80819181A281B3818093901364
:1009F00090939113A0939213B0939313F901EE0F78
:100A0000FF1FEE0FFF1FE051F04F80819181A28107
:100A1000B38180937C1390937D13A0937E13B09346
:100A20007F13F901EE0FFF1FEE0FFF1FE052FF4E85
:100A300080819181A281B3818093881390938913DF
:100A4000A0938A13B0938B13FB01EE0FFF1FEE0FE1
:100A5000FF1FE053FE4E80819181A281B38180937C
:100A6000941390939513A0939613B0939713F90151
:100A7000A5C081110C940F2B20E030E040E85FE32B
:100A800060919606709197068091980690919906CC
:100A90000E9466556B017C01612F70E080E090E060
:100AA0000E94675620E030E040E85FE30E94665510
:100AB0009B01AC01C701B6010E9465550E943656E4
:100AC000CB010197BC01660F771F680F791FFB01EF
:100AD000EE0FFF1FEE0FFF1FE451F04F8081918159
:100AE000A281B3818093781390937913A0937A13A2
:100AF000B0937B1343E0149F90011124F901EE0F92
:100B0000FF1FEE0FFF1FE452FF4E80819181A281F3
:100B1000B3818093841390938513A0938613B0932D
:100B20008713FB01EE0FFF1FEE0FFF1FE453FE4E76
:100B300080819181A281B3818093901390939113CE
:100B4000A0939213B0939313FB01EE0FFF1FEE0FD0
:100B5000FF1FE051F04F80819181A281B38180938A
:100B60007C1390937D13A0937E13B0937F13F901B0
:100B7000EE0FFF1FEE0FFF1FE052FF4E80819181AD
:100B8000A281B3818093881390938913A0938A13D1
:100B9000B0938B13FB01EE0FFF1FEE0FFF1FE0530F
:100BA000FE4E80819181A281B381809394139093B2
:100BB0009513A0939613B0939713FB01EE0FFF1FAD
:100BC000EE0FFF1FEC50F04F80819181A281B38125
:100BD0008093801390938113A0938213B093831317
:100BE000F901EE0FFF1FEE0FFF1FEC51FF4E80814A
:100BF0009181A281B38180938C1390938D13A093E4
:100C00008E13B0938F13FB01A4C08091EE13882341
:100C100009F4AAC020919A1583E0289F900111241D
:100C2000F901EE0FFF1FEE0FFF1FE451F04F80811F
:100C30009181A281B3818093781390937913A093CB
:100C40007A13B0937B13F901EE0FFF1FEE0FFF1F16
:100C5000E452FF4E80819181A281B38180938413FD
:100C600090938513A0938613B0938713F901EE0F29
:100C7000FF1FEE0FFF1FE453FE4E80819181A28182
:100C8000B3818093901390939113A0939213B09398
:100C90009313F901EE0FFF1FEE0FFF1FE051F04F0E
:100CA00080819181A281B38180937C1390937D1385
:100CB000A0937E13B0937F13F901EE0FFF1FEE0F89
:100CC000FF1FE052FF4E80819181A281B38180930A
:100CD000881390938913A0938A13B0938B13F9010F
:100CE000EE0FFF1FEE0FFF1FE053FE4E808191813C
:100CF000A281B3818093941390939513A09396133C
:100D0000B0939713F901EE0FFF1FEE0FFF1FEC508A
:100D1000F04F80819181A281B38180938013909361
:100D20008113A0938213B0938313F901EE0FFF1F79
:100D3000EE0FFF1FEC51FF4E80819181A281B381A4
:100D400080938C1390938D13A0938E13B0938F1375
:100D5000F901EE0FFF1FEE0FFF1FEC52FE4E8081D8
:100D60009181A281B38188C08091EC0F9091ED0FA9
:100D7000A091EE0FB091EF0F8093781390937913B9
:100D8000A0937A13B0937B138091DC109091DD10C7
:100D9000A091DE10B091DF1080938413909385139F
:100DA000A0938613B09387138091CC119091CD11AD
:100DB000A091CE11B091CF11809390139093911385
:100DC000A0939213B09393138091F00F9091F10F31
:100DD000A091F20FB091F30F80937C1390937D1349
:100DE000A0937E13B0937F138091E0109091E11057
:100DF000A091E210B091E31080938813909389132F
:100E0000A0938A13B0938B138091D0119091D1113C
:100E1000A091D211B091D311809394139093951314
:100E2000A0939613B09397138091F40F9091F50FC0
:100E3000A091F60FB091F70F8093801390938113D8
:100E4000A0938213B09383138091E4109091E510E6
:100E5000A091E610B091E71080938C1390938D13BE
:100E6000A0938E13B0938F138091D4119091D511CC
:100E7000A091D611B091D7118093981390939913A4
:100E8000A0939A13B0939B13911010C08091C0123D
:100E90009091C112A091C212B091C3128093E0123E
:100EA0009093E112A093E212B093E31220E030E0BD
:100EB00044E353E460919206709193068091940606
:100EC000909195060E941D579B01AC0160E070E077
:100ED00080E89FE30E94CE556B017C012091E012D7
:100EE0003091E1124091E2125091E3126091781337
:100EF0007091791380917A1390917B130E946555BC
:100F00009B01AC01C701B6010E941D572B013C019A
:100F10006093E4127093E5128093E6129093E712C7
:100F20008090FC149090FD14A090FE14B090FF14DB
:100F30000091A6141091A714F801C080D180E2801E
:100F4000F380A7019601C501B4010E94195787FDDE
:100F500017C0A70196016091041570910515809145
:100F60000615909107150E94195787FD09C0109228
:100F7000701310927113109272131092731364C055
:100F80008092701390927113A0927213B0927313A7
:100F9000C0900415D0900515E0900615F090071547
:100FA000A7019601C501B4010E94CA55F80120812C
:100FB00031814281538187FF07C0C701B6010E947A
:100FC000CA5587FF12C006C0C501B4010E94195757
:100FD00087FD0BC0C0927013D0927113E092721310
:100FE000F0927313E8E0F5E102C0E0E0F5E1208162
:100FF0003181428153816091C0127091C112809100
:10100000C2129091C3120E9465556B017C01209120
:101010007013309171134091721350917313F80152
:1010200060817181828193810E9465559B01AC0131
:10103000C701B6010E94CE5560937013709371136F
:1010400080937213909373132091701330917113E6
:101050004091721350917313609125087091260886
:1010600080912708909128080E941D579B01AC0190
:10107000C301B2010E9465556B017C016093E812C7
:101080007093E9128093EA129093EB122091BE06BE
:101090003091BF064091C0065091C1060E941D5775
:1010A00060939C1370939D1380939E1390939F1352
:1010B0002091290830912A0840912B0850912C0842
:1010C0000E941D572091B4143091B5144091B6146C
:1010D0005091B7140E9466552B013C016093EC12AD
:1010E0007093ED128093EE129093EF1220919A0676
:1010F00030919B0640919C0650919D06C701B60118
:101100000E941D572091B8143091B9144091BA141F
:101110005091BB140E946555209106073091070736
:1011200040910807509109070E941D574B015C012F
:101130006093A0137093A1138093A2139093A313B1
:1011400020914E0730914F07409150075091510721
:10115000C701B6010E941D57A30192010E94665566
:10116000A50194010E9466556B017C016093701388
:10117000709371138093721390937313809072071E
:1011800090907307A0907407B0907507A501940123
:101190000E941957181684F08090E2069090E3069A
:1011A000A090E406B090E506A5019401C701B60140
:1011B0000E94CA5587FF08C08092701390927113E5
:1011C000A0927213B0927313C0907013D0907113E9
:1011D000E0907213F090731320E030E0A901C70192
:1011E000B6010E94CA5587FF05C080E090E0A0E8E4
:1011F000BFEB0DC020E030E0A901C701B6010E949D
:10120000195718166CF480E090E0A0E8BFE38093D3
:10121000741390937513A0937613B09377131AC039
:1012200020E030E0A901C701B6010E94CA55811132
:1012300009C01092741310927513109276131092C5
:10124000771308C0C0927413D0927513E09276138E
:10125000F0927713C0907413D0907513E0907613CA
:10126000F09077138090390890903A08A0903B084E
:10127000B0903C08A5019401C701B6010E9419571E
:10128000181684F080903D0890903E08A0903F088A
:10129000B0904008A5019401C701B6010E94CA554B
:1012A00087FF09C08092781390927913A0927A13E5
:1012B000B0927B1308C0C0927813D0927913E09259
:1012C0007A13F0927B13C0907813D0907913E0904A
:1012D0007A13F0907B1320E030E040E853E4C7013C
:1012E000B6010E94CA5587FF0EC020E030E0A90178
:1012F000C701B6010E94195787FD07C0C701B60193
:101300000E943B5603C06FEF01C060E080919607DA
:101310000E941447C0907413D0907513E090761318
:10132000F0907713F7FAF094F7F8F094C0927413F2
:10133000D0927513E0927613F09277138090410863
:1013400090904208A0904308B0904408A5019401F1
:10135000C701B6010E941957181684F080904508FD
:1013600090904608A0904708B0904808A5019401C5
:10137000C701B6010E94CA5587FF08C08092741346
:1013800090927513A0927613B0927713C090741355
:10139000D0907513E0907613F090771320E030E052
:1013A00040E853E4C701B6010E94CA5587FF0EC04A
:1013B00020E030E0A901C701B6010E94195787FD5E
:1013C00007C0C701B6010E943B5603C06FEF01C0C2
:1013D00060E080919A070E941447C0907013D090EB
:1013E0007113E0907213F0907313E894F7F8C092C1
:1013F0007013D0927113E0927213F0927313809075
:10140000490890904A08A0904B08B0904C08A5015C
:101410009401C701B6010E941957181684F08090F4
:101420004D0890904E08A0904F08B0905008A5012C
:101430009401C701B6010E94CA5587FF08C0809277
:10144000701390927113A0927213B0927313209143
:101450007013309171134091721350917313609116
:1014600051087091520880915308909154080E943D
:101470001D576B017C0160937813709379138093EF
:101480007A1390937B1320E030E040E853E40E940D
:10149000CA5587FF0EC020E030E0A901C701B601A0
:1014A0000E94195787FD07C0C701B6010E943B562D
:1014B00003C06FEF01C060E070E080919E070E9462
:1014C000C3450091290A80919115080F8091040865
:1014D000801710F40091140A80919E14811110C09D
:1014E0008091C4129091C512A091C612B091C712FA
:1014F0008093F0129093F112A093F212B093F31232
:1015000020E030E044E353E460919206709193064A
:1015100080919406909195060E941D579B01AC0105
:1015200060E070E080E89FE30E94CE556B017C0193
:101530002091F0123091F1124091F2125091F31279
:1015400060917C1370917D1380917E1390917F1335
:101550000E9465559B01AC01C701B6010E941D5751
:101560002B013C016093F4127093F5128093F612F4
:101570009093F71280900C1590900D15A0900E1579
:10158000B0900F152090A6143090A714F101C080E0
:10159000D180E280F380A7019601C501B4010E94C9
:1015A000195787FD17C0A701960160911415709116
:1015B000151580911615909117150E94195787FDE2
:1015C00009C010927013109271131092721310923E
:1015D000731364C08092701390927113A09272136F
:1015E000B0927313C0901415D0901515E090161595
:1015F000F0901715A7019601C501B4010E94CA55C4
:10160000F101208131814281538187FF07C0C701E9
:10161000B6010E94CA5587FF12C006C0C501B401B9
:101620000E94195787FD0BC0C0927013D09271139E
:10163000E0927213F0927313E8E1F5E102C0E0E189
:10164000F5E120813181428153816091C412709112
:10165000C5128091C6129091C7120E9465556B0108
:101660007C0120917013309171134091721350914D
:101670007313F10160817181828193810E946555AC
:101680009B01AC01C701B6010E94CE556093701357
:10169000709371138093721390937313209170134E
:1016A00030917113409172135091731360915508EA
:1016B0007091560880915708909158080E941D57C4
:1016C0009B01AC01C301B2010E9465556B017C0115
:1016D0006093F8127093F9128093FA129093FB12B0
:1016E0002091C2063091C3064091C4065091C506B0
:1016F0000E941D576093A4137093A5138093A613A3
:101700009093A7132091590830915A0840915B0893
:1017100050915C080E941D572091BC143091BD145B
:101720004091BE145091BF140E9466552B013C019C
:101730006093FC127093FD128093FE129093FF123F
:1017400020919E0630919F064091A0065091A106DF
:10175000C701B6010E941D572091C0143091C114D9
:101760004091C2145091C3140E94655520910A07FC
:1017700030910B0740910C0750910D070E941D57A7
:101780004B015C016093A8137093A9138093AA1373
:101790009093AB1320915207309153074091540717
:1017A00050915507C701B6010E941D57A301920130
:1017B0000E946655A50194010E9466556B017C014B
:1017C00060937413709375138093761390937713CB
:1017D0008090760790907707A0907807B09079076F
:1017E000A50194010E941957181684F08090E6060E
:1017F0009090E706A090E806B090E906A501940154
:10180000C701B6010E94CA5587FF08C080927413B1
:1018100090927513A0927613B0927713C0907413C0
:10182000D0907513E0907613F090771320E030E0BD
:10183000A901C701B6010E94CA5587FF05C080E013
:1018400090E0A0E8BFEB0DC020E030E0A901C701A7
:10185000B6010E94195718166CF480E090E0A0E8D9
:10186000BFE38093701390937113A0937213B0939E
:1018700073131AC020E030E0A901C701B6010E942D
:10188000CA55811109C010927013109271131092F1
:1018900072131092731308C0C0927013D092711318
:1018A000E0927213F0927313C0907013D090711382
:1018B000E0907213F09073138090690890906A081A
:1018C000A0906B08B0906C08A5019401C701B60107
:1018D0000E941957181684F080906D0890906E0839
:1018E000A0906F08B0907008A5019401C701B601DF
:1018F0000E94CA5587FF09C080927813909279138D
:10190000A0927A13B0927B1308C0C0927813D09241
:101910007913E0927A13F0927B13C0907813D090F1
:101920007913E0907A13F0907B1320E030E040E8E8
:1019300053E4C701B6010E94CA5587FF0EC020E0DC
:1019400030E0A901C701B6010E94195787FD07C001
:10195000C701B6010E943B5603C06FEF01C060E0B3
:101960008091A2070E941447C0907013D090711309
:10197000E0907213F0907313F7FAF094F7F8F09484
:10198000C0927013D0927113E0927213F09273139D
:101990008090710890907208A0907308B0907408BD
:1019A000A5019401C701B6010E941957181684F0C9
:1019B0008090750890907608A0907708B09078088D
:1019C000A5019401C701B6010E94CA5587FF08C04E
:1019D0008092701390927113A0927213B09273134D
:1019E000C0907013D0907113E0907213F090731345
:1019F00020E030E040E853E4C701B6010E94CA5538
:101A000087FF0EC020E030E0A901C701B6010E94A7
:101A1000195787FD07C0C701B6010E943B5603C096
:101A20006FEF01C060E08091A6070E941447C0904C
:101A30007413D0907513E0907613F0907713E894B8
:101A4000F7F8C0927413D0927513E0927613F09267
:101A500077138090790890907A08A0907B08B090D6
:101A60007C08A5019401C701B6010E9419571816F8
:101A700084F080907D0890907E08A0907F08B090C0
:101A80008008A5019401C701B6010E94CA5587FFCD
:101A900008C08092741390927513A0927613B0923E
:101AA00077132091810830918208409183085091EA
:101AB00084086091741370917513809176139091DE
:101AC00077130E941D576B017C0160937413709310
:101AD0007513809376139093771320E030E040E8FD
:101AE00053E40E94CA5587FF0EC020E030E0A901F0
:101AF000C701B6010E94195787FD07C0C701B6018B
:101B00000E943B5603C06FEF01C060E070E080911F
:101B1000AA070E94C34530902A0A80919215380E78
:101B200080910508831510F43090150A80919E1459
:101B3000811110C08091C8129091C912A091CA124F
:101B4000B091CB128093001390930113A0930213D2
:101B5000B093031320E030E044E353E46091920635
:101B60007091930680919406909195060E941D575E
:101B70009B01AC0160E070E080E89FE30E94CE55DD
:101B80006B017C01209100133091011340910213ED
:101B9000509103136091801370918113809182138F
:101BA000909183130E9465559B01AC01C701B6015A
:101BB0000E941D572B013C01609304137093051381
:101BC000809306139093071380901C1590901D1519
:101BD000A0901E15B0901F158091A6149091A71487
:101BE0009F838E83FC01C080D180E280F380A701B7
:101BF0009601C501B4010E94195787FD17C0A701BE
:101C0000960160912415709125158091261590916B
:101C100027150E94195787FD09C010927013109262
:101C20007113109272131092731366C08092701326
:101C300090927113A0927213B0927313C0902415F6
:101C4000D0902515E0902615F0902715A701960154
:101C5000C501B4010E94CA55EE81FF812081318106
:101C60004281538187FF07C0C701B6010E94CA5550
:101C700087FF12C006C0C501B4010E94195787FD35
:101C80000BC0C0927013D0927113E0927213F09255
:101C90007313E8E2F5E102C0E0E2F5E12081318171
:101CA000428153816091C8127091C9128091CA1209
:101CB0009091CB120E9465556B017C0120917013AD
:101CC000309171134091721350917313EE81FF8123
:101CD00060817181828193810E9465559B01AC0175
:101CE000C701B6010E94CE556093701370937113B3
:101CF000809372139093731320917013309171132A
:101D00004091721350917313609185087091860809
:101D100080918708909188080E941D579B01AC0113
:101D2000C301B2010E9465556B017C0160930813E9
:101D30007093091380930A1390930B132091C60696
:101D40003091C7064091C8065091C9060E941D57A0
:101D50006093AC137093AD138093AE139093AF1355
:101D60002091890830918A0840918B0850918C0805
:101D70000E941D572091C4143091C5144091C6147F
:101D80005091C7140E9466552B013C0160930C13BF
:101D900070930D1380930E1390930F132091A2064E
:101DA0003091A3064091A4065091A506C701B60143
:101DB0000E941D572091C8143091C9144091CA1433
:101DC0005091CB140E94655520910E0730910F075A
:101DD00040911007509111070E941D574B015C0163
:101DE0006093B0137093B1138093B2139093B313B5
:101DF0002091560730915707409158075091590745
:101E0000C701B6010E941D57A30192010E946655A9
:101E1000A50194010E9466556B017C0160937413C7
:101E200070937513809376139093771380907A074D
:101E300090907B07A0907C07B0907D07A50194014E
:101E40000E941957181684F08090EA069090EB06CD
:101E5000A090EC06B090ED06A5019401C701B60173
:101E60000E94CA5587FF08C0809274139092751320
:101E7000A0927613B0927713C0907413D09075131C
:101E8000E0907613F090771320E030E0A901C701CD
:101E9000B6010E94CA5587FF05C080E090E0A0E827
:101EA000BFEB0DC020E030E0A901C701B6010E94E0
:101EB000195718166CF480E090E0A0E8BFE3809317
:101EC000701390937113A0937213B09373131AC08D
:101ED00020E030E0A901C701B6010E94CA55811176
:101EE00009C0109270131092711310927213109215
:101EF000731308C0C0927013D0927113E0927213E2
:101F0000F0927313C0907013D0907113E09072131D
:101F1000F09073138090990890909A08A0909B0875
:101F2000B0909C08A5019401C701B6010E94195701
:101F3000181684F080909D0890909E08A0909F08AD
:101F4000B090A008A5019401C701B6010E94CA552E
:101F500087FF09C08092781390927913A0927A1328
:101F6000B0927B1308C0C0927813D0927913E0929C
:101F70007A13F0927B13C0907813D0907913E0908D
:101F80007A13F0907B1320E030E040E853E4C7017F
:101F9000B6010E94CA5587FF0EC020E030E0A901BB
:101FA000C701B6010E94195787FD07C0C701B601D6
:101FB0000E943B5603C06FEF01C060E08091AE0706
:101FC0000E941447C0907013D0907113E090721368
:101FD000F0907313F7FAF094F7F8F094C09270133E
:101FE000D0927113E0927213F09273138090A10853
:101FF0009090A208A090A308B090A408A501940115
:10200000C701B6010E941957181684F08090A508E0
:102010009090A608A090A708B090A808A5019401E8
:10202000C701B6010E94CA5587FF08C0809270138D
:1020300090927113A0927213B0927313C0907013A8
:10204000D0907113E0907213F090731320E030E0A1
:1020500040E853E4C701B6010E94CA5587FF0EC08D
:1020600020E030E0A901C701B6010E94195787FDA1
:1020700007C0C701B6010E943B5603C06FEF01C005
:1020800060E08091B2070E941447C0907413D09012
:102090007513E0907613F0907713E894F7F8C092F8
:1020A0007413D0927513E0927613F09277138090A8
:1020B000A9089090AA08A090AB08B090AC08A50120
:1020C0009401C701B6010E941957181684F0809038
:1020D000AD089090AE08A090AF08B090B008A501F0
:1020E0009401C701B6010E94CA5587FF08C08092BB
:1020F000741390927513A0927613B0927713209177
:10210000B1083091B2084091B3085091B408609181
:1021100074137091751380917613909177130E94C8
:102120001D576B017C01609374137093751380933A
:1021300076139093771320E030E040E853E40E9458
:10214000CA5587FF0EC020E030E0A901C701B601E3
:102150000E94195787FD07C0C701B6010E943B5670
:1021600003C06FEF01C060E070E08091B6070E948D
:10217000C34520902B0A80919315280E8091060864
:10218000821510F42090160A80919E14811110C0BF
:102190008091D8129091D912A091DA12B091DB12ED
:1021A0008093101390931113A0931213B0931313F1
:1021B00020E030E044E353E460919206709193068E
:1021C00080919406909195060E941D579B01AC0149
:1021D00060E070E080E89FE30E94CE556B017C01D7
:1021E00020E030E044E353E4609184137091851360
:1021F00080918613909187130E9466552091101349
:102200003091111340911213509113130E94655590
:102210009B01AC01C701B6010E941D572B013C0177
:1022200060931413709315138093161390931713E0
:1022300080902C1590902D15A0902E15B0902F15F4
:102240008091A6149091A7149F838E83FC01C08077
:10225000D180E280F380A7019601C501B4010E94FC
:10226000195787FD17C0A701960160913415709129
:10227000351580913615909137150E94195787FDB5
:1022800009C0109270131092711310927213109271
:10229000731366C08092701390927113A0927213A0
:1022A000B0927313C0903415D0903515E090361568
:1022B000F0903715A7019601C501B4010E94CA55D7
:1022C000EE81FF81208131814281538187FF07C0E8
:1022D000C701B6010E94CA5587FF12C006C0C501DA
:1022E000B4010E94195787FD0BC0C0927013D092A1
:1022F0007113E0927213F0927313E8E3F5E102C0F8
:10230000E0E3F5E120813181428153816091D8126F
:102310007091D9128091DA129091DB120E9465556A
:102320006B017C01209170133091711340917213F5
:1023300050917313EE81FF8160817181828193815D
:102340000E9465559B01AC01C701B6010E94CE55A4
:10235000609370137093711380937213909373133F
:102360002091701330917113409172135091731337
:102370006091B5087091B6088091B7089091B8083F
:102380000E941D579B01AC01C301B2010E9465551B
:102390006B017C01609318137093191380931A13C7
:1023A00090931B132091CA063091CB064091CC0626
:1023B0005091CD060E941D576093B4137093B513CE
:1023C0008093B6139093B7132091B9083091BA084F
:1023D0004091BB085091BC080E941D572091CC141D
:1023E0003091CD144091CE145091CF140E94665577
:1023F0002B013C0160931C1370931D1380931E13DB
:1024000090931F132091A6063091A7064091A8062D
:102410005091A906C701B6010E941D572091D01402
:102420003091D1144091D2145091D3140E9465552B
:10243000209112073091130740911407509115070E
:102440000E941D574B015C016093B8137093B91340
:102450008093BA139093BB1320915A0730915B0776
:1024600040915C0750915D07C701B6010E941D575E
:10247000A30192010E946655A50194010E94665530
:102480006B017C01609374137093751380937613C2
:102490009093771380907E0790907F07A09080079D
:1024A000B0908107A50194010E941957181684F075
:1024B0008090EE069090EF06A090F006B090F106A6
:1024C000A5019401C701B6010E94CA5587FF08C043
:1024D0008092741390927513A0927613B092771332
:1024E000C0907413D0907513E0907613F09077132A
:1024F00020E030E0A901C701B6010E94CA5587FF5C
:1025000005C080E090E0A0E8BFEB0DC020E030E027
:10251000A901C701B6010E94195718166CF480E092
:1025200090E0A0E8BFE38093701390937113A093A1
:102530007213B09373131AC020E030E0A901C701F1
:10254000B6010E94CA55811109C0109270131092F1
:102550007113109272131092731308C0C09270130B
:10256000D0927113E0927213F0927313C0907013B3
:10257000D0907113E0907213F09073138090C9089B
:102580009090CA08A090CB08B090CC08A501940107
:10259000C701B6010E941957181684F08090CD0823
:1025A0009090CE08A090CF08B090D008A5019401DB
:1025B000C701B6010E94CA5587FF09C080927813EF
:1025C00090927913A0927A13B0927B1308C0C092B4
:1025D0007813D0927913E0927A13F0927B13C09023
:1025E0007813D0907913E0907A13F0907B1320E069
:1025F00030E040E853E4C701B6010E94CA5587FFA6
:102600000EC020E030E0A901C701B6010E941957B1
:1026100087FD07C0C701B6010E943B5603C06FEF9C
:1026200001C060E08091BA070E941447C090701307
:10263000D0907113E0907213F0907313F7FAF09446
:10264000F7F8F094C0927013D0927113E092721365
:10265000F09273138090D1089090D208A090D30884
:10266000B090D408A5019401C701B6010E94195782
:10267000181684F08090D5089090D608A090D708BE
:10268000B090D808A5019401C701B6010E94CA55AF
:1026900087FF08C08092701390927113A0927213FA
:1026A000B0927313C0907013D0907113E0907213B6
:1026B000F090731320E030E040E853E4C701B60126
:1026C0000E94CA5587FF0EC020E030E0A901C70173
:1026D000B6010E94195787FD07C0C701B6010E94C5
:1026E0003B5603C06FEF01C060E08091BE070E94BF
:1026F0001447C0907413D0907513E0907613F09047
:102700007713E894F7F8C0927413D0927513E0929F
:102710007613F09277138090D9089090DA08A09001
:10272000DB08B090DC08A5019401C701B6010E9446
:102730001957181684F08090DD089090DE08A0905C
:10274000DF08B090E008A5019401C701B6010E941E
:10275000CA5587FF08C08092741390927513A09297
:102760007613B09277132091E1083091E2084091FE
:10277000E3085091E408609174137091751380918F
:102780007613909177130E941D576B017C01609323
:10279000741370937513809376139093771320E0DE
:1027A00030E040E853E40E94CA5587FF0EC020E0A5
:1027B00030E0A901C701B6010E94195787FD07C083
:1027C000C701B6010E943B5603C06FEF01C060E035
:1027D00070E08091C2070E94C345F0912C0A80915D
:1027E0009715F80FF983809107088F1718F4409117
:1027F000170A498380919E14811110C08091DC12C8
:102800009091DD12A091DE12B091DF12809320131F
:1028100090932113A0932213B093231320E030E070
:1028200044E353E46091920670919306809194067C
:10283000909195060E941D579B01AC0160E070E0ED
:1028400080E89FE30E94CE556B017C01209120130C
:1028500030912113409122135091231360918813DA
:102860007091891380918A1390918B130E94655502
:102870009B01AC01C701B6010E941D572B013C0111
:10288000609324137093251380932613909327133A
:1028900080903C1590903D15A0903E15B0903F154E
:1028A0008091A6149091A7149F838E83FC01C08011
:1028B000D180E280F380A7019601C501B4010E9496
:1028C000195787FD17C0A7019601609144157091B3
:1028D000451580914615909147150E94195787FD1F
:1028E00009C010927013109271131092721310920B
:1028F000731366C08092701390927113A09272133A
:10290000B0927313C0904415D0904515E0904615D1
:10291000F0904715A7019601C501B4010E94CA5560
:10292000EE81FF81208131814281538187FF07C081
:10293000C701B6010E94CA5587FF12C006C0C50173
:10294000B4010E94195787FD0BC0C0927013D0923A
:102950007113E0927213F0927313E8E4F5E102C090
:10296000E0E4F5E120813181428153816091DC1204
:102970007091DD128091DE129091DF120E946555F8
:102980006B017C012091701330917113409172138F
:1029900050917313EE81FF816081718182819381F7
:1029A0000E9465559B01AC01C701B6010E94CE553E
:1029B00060937013709371138093721390937313D9
:1029C00020917013309171134091721350917313D1
:1029D0006091E5087091E6088091E7089091E80819
:1029E0000E941D579B01AC01C301B2010E946555B5
:1029F0006B017C01609328137093291380932A1331
:102A000090932B132091CE063091CF064091D006A3
:102A10005091D1060E941D576093BC137093BD1353
:102A20008093BE139093BF132091E9083091EA0878
:102A30004091EB085091EC080E941D572091D4144E
:102A40003091D5144091D6145091D7140E946655F8
:102A50002B013C0160932C1370932D1380932E1344
:102A600090932F132091AA063091AB064091AC06AB
:102A70005091AD06C701B6010E941D572091D81490
:102A80003091D9144091DA145091DB140E946555AD
:102A90002091160730911707409118075091190798
:102AA0000E941D574B015C016093C0137093C113CA
:102AB0008093C2139093C31320915E0730915F07F8
:102AC0004091600750916107C701B6010E941D57F0
:102AD000A30192010E946655A50194010E946655CA
:102AE0006B017C016093741370937513809376135C
:102AF000909377138090820790908307A09084072B
:102B0000B0908507A50194010E941957181684F00A
:102B10008090F2069090F306A090F406B090F5062F
:102B2000A5019401C701B6010E94CA5587FF08C0DC
:102B30008092741390927513A0927613B0927713CB
:102B4000C0907413D0907513E0907613F0907713C3
:102B500020E030E0A901C701B6010E94CA5587FFF5
:102B600005C080E090E0A0E8BFEB0DC020E030E0C1
:102B7000A901C701B6010E94195718166CF480E02C
:102B800090E0A0E8BFE38093701390937113A0933B
:102B90007213B09373131AC020E030E0A901C7018B
:102BA000B6010E94CA55811109C01092701310928B
:102BB0007113109272131092731308C0C0927013A5
:102BC000D0927113E0927213F0927313C09070134D
:102BD000D0907113E0907213F09073138090F90805
:102BE0009090FA08A090FB08B090FC08A501940111
:102BF000C701B6010E941957181684F08090FD088D
:102C00009090FE08A090FF08B0900009A5019401E3
:102C1000C701B6010E94CA5587FF09C08092781388
:102C200090927913A0927A13B0927B1308C0C0924D
:102C30007813D0927913E0927A13F0927B13C090BC
:102C40007813D0907913E0907A13F0907B1320E002
:102C500030E040E853E4C701B6010E94CA5587FF3F
:102C60000EC020E030E0A901C701B6010E9419574B
:102C700087FD07C0C701B6010E943B5603C06FEF36
:102C800001C060E08091C6070E941447C090701395
:102C9000D0907113E0907213F0907313F7FAF094E0
:102CA000F7F8F094C0927013D0927113E0927213FF
:102CB000F09273138090010990900209A09003098B
:102CC000B0900409A5019401C701B6010E941957EB
:102CD000181684F08090050990900609A0900709C5
:102CE000B0900809A5019401C701B6010E94CA5518
:102CF00087FF08C08092701390927113A092721394
:102D0000B0927313C0907013D0907113E09072134F
:102D1000F090731320E030E040E853E4C701B601BF
:102D20000E94CA5587FF0EC020E030E0A901C7010C
:102D3000B6010E94195787FD07C0C701B6010E945E
:102D40003B5603C06FEF01C060E08091CA070E944C
:102D50001447C0907413D0907513E0907613F090E0
:102D60007713E894F7F8C0927413D0927513E09239
:102D70007613F09277138090090990900A09A09039
:102D80000B09B0900C09A5019401C701B6010E947E
:102D90001957181684F080900D0990900E09A09094
:102DA0000F09B0901009A5019401C701B6010E9456
:102DB000CA5587FF08C08092741390927513A09231
:102DC0007613B09277132091110930911209409136
:102DD00013095091140960917413709175138091C7
:102DE0007613909177130E941D576B017C016093BD
:102DF000741370937513809376139093771320E078
:102E000030E040E853E40E94CA5587FF0EC020E03E
:102E100030E0A901C701B6010E94195787FD07C01C
:102E2000C701B6010E943B5603C06FEF01C060E0CE
:102E300070E08091CE070E94C345F0912D0A8091E9
:102E40009815F80FFA83809108088F1718F44091AD
:102E5000180A4A8380919E14811110C08091BC127F
:102E60009091BD12A091BE12B091BF128093301309
:102E700090933113A0933213B093331320E030E0DA
:102E800044E353E460919206709193068091940616
:102E9000909195060E941D579B01AC0160E070E087
:102EA00080E89FE30E94CE556B017C012091301396
:102EB00030913113409132135091331360918C1340
:102EC00070918D1380918E1390918F130E94655590
:102ED0009B01AC01C701B6010E941D572B013C01AB
:102EE0006093341370933513809336139093371394
:102EF00080904C1590904D15A0904E15B0904F15A8
:102F00008091A6149091A7149F838E83FC01C080AA
:102F1000D180E280F380A7019601C501B4010E942F
:102F2000195787FD17C0A70196016091541570913C
:102F3000551580915615909157150E94195787FD88
:102F400009C01092701310927113109272131092A4
:102F5000731366C08092701390927113A0927213D3
:102F6000B0927313C0905415D0905515E09056153B
:102F7000F0905715A7019601C501B4010E94CA55EA
:102F8000EE81FF81208131814281538187FF07C01B
:102F9000C701B6010E94CA5587FF12C006C0C5010D
:102FA000B4010E94195787FD0BC0C0927013D092D4
:102FB0007113E0927213F0927313E8E5F5E102C029
:102FC000E0E5F5E120813181428153816091BC12BD
:102FD0007091BD128091BE129091BF120E946555F2
:102FE0006B017C0120917013309171134091721329
:102FF00050917313EE81FF81608171818281938191
:103000000E9465559B01AC01C701B6010E94CE55D7
:103010006093701370937113809372139093731372
:10302000209170133091711340917213509173136A
:1030300060911509709116098091170990911809EE
:103040000E941D579B01AC01C301B2010E9465554E
:103050006B017C01609338137093391380933A139A
:1030600090933B132091D2063091D3064091D40621
:103070005091D5060E941D576093C4137093C513D9
:103080008093C6139093C7132091190930911A09A0
:1030900040911B0950911C090E941D572091DC147E
:1030A0003091DD144091DE145091DF140E9466557A
:1030B0002B013C0160933C1370933D1380933E13AE
:1030C00090933F132091AE063091AF064091B00629
:1030D0005091B106C701B6010E941D572091E0141E
:1030E0003091E1144091E2145091E3140E9465552F
:1030F00020911A0730911B0740911C0750911D0722
:103100000E941D574B015C016093C8137093C91353
:103110008093CA139093CB13209162073091630779
:103120004091640750916507C701B6010E941D5781
:10313000A30192010E946655A50194010E94665563
:103140006B017C01609374137093751380937613F5
:10315000909377138090860790908707A0908807B8
:10316000B0908907A50194010E941957181684F0A0
:103170008090F6069090F706A090F806B090F906B9
:10318000A5019401C701B6010E94CA5587FF08C076
:103190008092741390927513A0927613B092771365
:1031A000C0907413D0907513E0907613F09077135D
:1031B00020E030E0A901C701B6010E94CA5587FF8F
:1031C00005C080E090E0A0E8BFEB0DC020E030E05B
:1031D000A901C701B6010E94195718166CF480E0C6
:1031E00090E0A0E8BFE38093701390937113A093D5
:1031F0007213B09373131AC020E030E0A901C70125
:10320000B6010E94CA55811109C010927013109224
:103210007113109272131092731308C0C09270133E
:10322000D0927113E0927213F0927313C0907013E6
:10323000D0907113E0907213F0907313809029096D
:1032400090902A09A0902B09B0902C09A501940117
:10325000C701B6010E941957181684F080902D09F5
:1032600090902E09A0902F09B0903009A5019401EB
:10327000C701B6010E94CA5587FF09C08092781322
:1032800090927913A0927A13B0927B1308C0C092E7
:103290007813D0927913E0927A13F0927B13C09056
:1032A0007813D0907913E0907A13F0907B1320E09C
:1032B00030E040E853E4C701B6010E94CA5587FFD9
:1032C0000EC020E030E0A901C701B6010E941957E5
:1032D00087FD07C0C701B6010E943B5603C06FEFD0
:1032E00001C060E08091D2070E941447C090701323
:1032F000D0907113E0907213F0907313F7FAF0947A
:10330000F7F8F094C0927013D0927113E092721398
:10331000F09273138090310990903209A090330994
:10332000B0903409A5019401C701B6010E94195754
:10333000181684F08090350990903609A0903709CE
:10334000B0903809A5019401C701B6010E94CA5581
:1033500087FF08C08092701390927113A09272132D
:10336000B0927313C0907013D0907113E0907213E9
:10337000F090731320E030E040E853E4C701B60159
:103380000E94CA5587FF0EC020E030E0A901C701A6
:10339000B6010E94195787FD07C0C701B6010E94F8
:1033A0003B5603C06FEF01C060E08091D6070E94DA
:1033B0001447C0907413D0907513E0907613F0907A
:1033C0007713E894F7F8C0927413D0927513E092D3
:1033D0007613F09277138090390990903A09A09073
:1033E0003B09B0903C09A5019401C701B6010E94B8
:1033F0001957181684F080903D0990903E09A090CE
:103400003F09B0904009A5019401C701B6010E948F
:10341000CA5587FF08C08092741390927513A092CA
:103420007613B0927713209141093091420940916F
:103430004309509144096091741370917513809100
:103440007613909177130E941D576B017C01609356
:10345000741370937513809376139093771320E011
:1034600030E040E853E40E94CA5587FF0EC020E0D8
:1034700030E0A901C701B6010E94195787FD07C0B6
:10348000C701B6010E943B5603C06FEF01C060E068
:1034900070E08091DA070E94C34510912E0A809156
:1034A0009015180F80910908811710F41091190ACE
:1034B00080919E14811110C08091CC129091CD12F8
:1034C000A091CE12B091CF128093401390934113EC
:1034D000A0934213B093431320E030E044E353E45D
:1034E0006091920670919306809194069091950652
:1034F0000E941D579B01AC0160E070E080E89FE3F3
:103500000E94CE556B017C012091401330914113F4
:103510004091421350914313609190137091911315
:1035200080919213909193130E9465559B01AC0179
:10353000C701B6010E941D572B013C016093441343
:1035400070934513809346139093471380905C15B6
:1035500090905D15A0905E15B0905F158091A614B7
:103560009091A7149F838E83FC01C080D180E2805C
:10357000F380A7019601C501B4010E94195787FD88
:1035800017C0A7019601609164157091651580912F
:103590006615909167150E94195787FD09C0109212
:1035A000701310927113109272131092731366C0FD
:1035B0008092701390927113A0927213B092731351
:1035C000C0906415D0906515E0906615F090671571
:1035D000A7019601C501B4010E94CA55EE81FF8181
:1035E000208131814281538187FF07C0C701B60125
:1035F0000E94CA5587FF12C006C0C501B4010E94CF
:10360000195787FD0BC0C0927013D0927113E092CE
:103610007213F0927313E8E6F5E102C0E0E6F5E11B
:1036200020813181428153816091CC127091CD1201
:103630008091CE129091CF120E9465556B017C0152
:103640002091701330917113409172135091731344
:10365000EE81FF8160817181828193810E94655535
:103660009B01AC01C701B6010E94CE556093701357
:10367000709371138093721390937313209170134E
:1036800030917113409172135091731360914509F9
:103690007091460980914709909148090E941D57F1
:1036A0009B01AC01C301B2010E9465556B017C0115
:1036B000609348137093491380934A1390934B136C
:1036C0002091D6063091D7064091D8065091D90660
:1036D0000E941D576093CC137093CD138093CE132B
:1036E0009093CF132091490930914A0940914B0999
:1036F00050914C090E941D572091E4143091E5141B
:103700004091E6145091E7140E9466552B013C014C
:1037100060934C1370934D1380934E1390934F13FB
:103720002091B2063091B3064091B4065091B5068F
:10373000C701B6010E941D572091E8143091E91489
:103740004091EA145091EB140E94655520911E0798
:1037500030911F0740912007509121070E941D576B
:103760004B015C016093D0137093D1138093D213FB
:103770009093D313209166073091670740916807B3
:1037800050916907C701B6010E941D57A30192011C
:103790000E946655A50194010E9466556B017C014B
:1037A00060937413709375138093761390937713CB
:1037B00080908A0790908B07A0908C07B0908D071F
:1037C000A50194010E941957181684F08090FA06FA
:1037D0009090FB06A090FC06B090FD06A501940118
:1037E000C701B6010E94CA5587FF08C080927413B2
:1037F00090927513A0927613B0927713C0907413C1
:10380000D0907513E0907613F090771320E030E0BD
:10381000A901C701B6010E94CA5587FF05C080E013
:1038200090E0A0E8BFEB0DC020E030E0A901C701A7
:10383000B6010E94195718166CF480E090E0A0E8D9
:10384000BFE38093701390937113A0937213B0939E
:1038500073131AC020E030E0A901C701B6010E942D
:10386000CA55811109C010927013109271131092F1
:1038700072131092731308C0C0927013D092711318
:10388000E0927213F0927313C0907013D090711382
:10389000E0907213F09073138090590990905A0938
:1038A000A0905B09B0905C09A5019401C701B60125
:1038B0000E941957181684F080905D0990905E0957
:1038C000A0905F09B0906009A5019401C701B601FD
:1038D0000E94CA5587FF09C080927813909279138D
:1038E000A0927A13B0927B1308C0C0927813D09242
:1038F0007913E0927A13F0927B13C0907813D090F2
:103900007913E0907A13F0907B1320E030E040E8E8
:1039100053E4C701B6010E94CA5587FF0EC020E0DC
:1039200030E0A901C701B6010E94195787FD07C001
:10393000C701B6010E943B5603C06FEF01C060E0B3
:103940008091DE070E941447C0907013D0907113CD
:10395000E0907213F0907313F7FAF094F7F8F09484
:10396000C0927013D0927113E0927213F09273139D
:103970008090610990906209A0906309B0906409F9
:10398000A5019401C701B6010E941957181684F0C9
:103990008090650990906609A0906709B0906809C9
:1039A000A5019401C701B6010E94CA5587FF08C04E
:1039B0008092701390927113A0927213B09273134D
:1039C000C0907013D0907113E0907213F090731345
:1039D00020E030E040E853E4C701B6010E94CA5538
:1039E00087FF0EC020E030E0A901C701B6010E94A8
:1039F000195787FD07C0C701B6010E943B5603C097
:103A00006FEF01C060E08091E2070E941447C09010
:103A10007413D0907513E0907613F0907713E894B8
:103A2000F7F8C0927413D0927513E0927613F09267
:103A300077138090690990906A09A0906B09B09003
:103A40006C09A5019401C701B6010E941957181607
:103A500084F080906D0990906E09A0906F09B090ED
:103A60007009A5019401C701B6010E94CA5587FFDC
:103A700008C08092741390927513A0927613B0923E
:103A80007713209171093091720940917309509117
:103A900074096091741370917513809176139091ED
:103AA00077130E941D576B017C0160937413709310
:103AB0007513809376139093771320E030E040E8FD
:103AC00053E40E94CA5587FF0EC020E030E0A901F0
:103AD000C701B6010E94195787FD07C0C701B6018B
:103AE0000E943B5603C06FEF01C060E070E0809120
:103AF000E6070E94C345F0912F0A80919415F80FB4
:103B0000FB8380910A088F1718F440911A0A4B839F
:103B100080919E14811110C08091D0129091D11289
:103B2000A091D212B091D31280935013909351135D
:103B3000A0935213B093531320E030E044E353E4D6
:103B400060919206709193068091940690919506EB
:103B50000E941D579B01AC0160E070E080E89FE38C
:103B60000E94CE556B017C0120915013309151136E
:103B70004091521350915313609194137091951387
:103B800080919613909197130E9465559B01AC010B
:103B9000C701B6010E941D572B013C0160935413CD
:103BA00070935513809356139093571380906C1510
:103BB00090906D15A0906E15B0906F158091A61421
:103BC0009091A7149F838E83FC01C080D180E280F6
:103BD000F380A7019601C501B4010E94195787FD22
:103BE00017C0A701960160917415709175158091A9
:103BF0007615909177150E94195787FD09C010928C
:103C0000701310927113109272131092731366C096
:103C10008092701390927113A0927213B0927313EA
:103C2000C0907415D0907515E0907615F0907715CA
:103C3000A7019601C501B4010E94CA55EE81FF811A
:103C4000208131814281538187FF07C0C701B601BE
:103C50000E94CA5587FF12C006C0C501B4010E9468
:103C6000195787FD0BC0C0927013D0927113E09268
:103C70007213F0927313E8E7F5E102C0E0E7F5E1B3
:103C800020813181428153816091D0127091D11293
:103C90008091D2129091D3120E9465556B017C01E4
:103CA00020917013309171134091721350917313DE
:103CB000EE81FF8160817181828193810E946555CF
:103CC0009B01AC01C701B6010E94CE5560937013F1
:103CD00070937113809372139093731320917013E8
:103CE0003091711340917213509173136091750963
:103CF0007091760980917709909178090E941D57FB
:103D00009B01AC01C301B2010E9465556B017C01AE
:103D1000609358137093591380935A1390935B13C5
:103D20002091DA063091DB064091DC065091DD06E9
:103D30000E941D576093D4137093D5138093D613AC
:103D40009093D7132091790930917A0940917B099A
:103D500050917C090E941D572091EC143091ED1474
:103D60004091EE145091EF140E9466554B015C0196
:103D700060935C1370935D1380935E1390935F1355
:103D80002091B6063091B7064091B8065091B90619
:103D9000C701B6010E941D572091F0143091F11413
:103DA0004091F2145091F3140E946555209122071E
:103DB0003091230740912407509125070E941D57F9
:103DC0006E837F838887998720916A0730916B077C
:103DD00040916C0750916D07C701B6010E941D57B5
:103DE000A50194010E9466552E813F814885598521
:103DF0000E9466556B017C01609374137093751378
:103E0000809376139093771380908E0790908F070E
:103E1000A0909007B0909107A50194010E941957B6
:103E2000181684F08090FE069090FF06A090000780
:103E3000B0900107A5019401C701B6010E94CA55BF
:103E400087FF08C08092741390927513A092761326
:103E5000B0927713C0907413D0907513E0907613DE
:103E6000F090771320E030E0A901C701B6010E946D
:103E7000CA5587FF05C080E090E0A0E8BFEB0DC009
:103E800020E030E0A901C701B6010E9419571816B9
:103E90006CF480E090E0A0E8BFE38093701390930F
:103EA0007113A0937213B09373131AC020E030E023
:103EB000A901C701B6010E94CA55811109C010921B
:103EC000701310927113109272131092731308C032
:103ED000C0927013D0927113E0927213F092731328
:103EE000C0907013D0907113E0907213F090731320
:103EF000F7FAF094F7F8F0948090890990908A0985
:103F0000A0908B09B0908C09A5019401C701B6015E
:103F10000E941957181684F080908D0990908E0990
:103F2000A0908F09B0909009A5019401C701B60136
:103F30000E94CA5587FF09C0809278139092791326
:103F4000A0927A13B0927B1308C0C0927813D092DB
:103F50007913E0927A13F0927B13C0907813D0908B
:103F60007913E0907A13F0907B1320E030E040E882
:103F700053E4C701B6010E94CA5587FF0EC020E076
:103F800030E0A901C701B6010E94195787FD07C09B
:103F9000C701B6010E943B5603C06FEF01C060E04D
:103FA0008091EA070E9414478090701390907113DB
:103FB000A0907213B0907313C0909109D0909209A1
:103FC000E0909309F0909409A7019601C501B4010E
:103FD0000E941957181684F0C0909509D090960940
:103FE000E0909709F0909809A7019601C501B401E6
:103FF0000E94CA5587FF08C0C0927013D0927113F7
:10400000E0927213F0927313C0907013D0907113FA
:10401000E0907213F090731320E030E040E853E436
:10402000C701B6010E94CA5587FF0EC020E030E0EC
:10403000A901C701B6010E94195787FD07C0C70132
:10404000B6010E943B5603C06FEF01C060E0809153
:10405000EE070E941447C0907413D0907513E0903F
:104060007613F0907713E894F7F8C0927413D09217
:104070007513E0927613F0927713809099099090DF
:104080009A09A0909B09B0909C09A5019401C701D1
:10409000B6010E941957181684F080909D099090DF
:1040A0009E09A0909F09B090A009A5019401C701A5
:1040B000B6010E94CA5587FF08C08092741390927F
:1040C0007513A0927613B09277132091A1093091C5
:1040D000A2094091A3095091A409609174137091B1
:1040E000751380917613909177130E941D576B0181
:1040F0007C0160937413709375138093761390937F
:10410000771320E030E040E853E40E94CA5587FF6F
:104110000EC020E030E0A901C701B6010E94195786
:1041200087FD07C0C701B6010E943B5603C06FEF71
:1041300001C060E070E08091F2070E94C345F091F9
:10414000300A80919515F80FFC8380910B088F172A
:1041500018F440911B0A4C8380919E14811110C069
:104160008091D4129091D512A091D612B091D7120D
:104170008093601390936113A0936213B0936313C1
:1041800020E030E044E353E460919206709193069E
:1041900080919406909195060E941D579B01AC0159
:1041A00060E070E080E89FE30E94CE556B017C01E7
:1041B0002091601330916113409162135091631309
:1041C000609198137091991380919A1390919B1319
:1041D0000E9465559B01AC01C701B6010E941D57A5
:1041E0004B015C01609364137093651380936613B5
:1041F00090936713C0907C15D0907D15E0907E154C
:10420000F0907F158091A6149091A7149B878A87C0
:10421000FC014080518062807380A3019201C7013C
:10422000B6010E94195787FD17C0A3019201609142
:1042300084157091851580918615909187150E943F
:10424000195787FD09C010927013109271131092C4
:1042500072131092731366C0C0927013D0927113D0
:10426000E0927213F092731340908415509085156C
:104270006090861570908715A3019201C701B60161
:104280000E94CA55EA85FB85208131814281538194
:1042900087FF07C0C301B2010E94CA5587FF12C041
:1042A00006C0C701B6010E94195787FD0BC0409296
:1042B0007013509271136092721370927313E8E846
:1042C000F5E102C0E0E8F5E12081318142815381CE
:1042D0006091D4127091D5128091D6129091D7121C
:1042E0000E9465556B017C01209170133091711310
:1042F0004091721350917313EA85FB85608171813F
:10430000828193810E9465559B01AC01C701B60172
:104310000E94CE5560937013709371138093721343
:104320009093731320917013309171134091721315
:10433000509173136091A5097091A6098091A70906
:104340009091A8090E941D579B01AC01C501B401C1
:104350000E9465556B017C0160936813709369132B
:1043600080936A1390936B132091DE063091DF06E1
:104370004091E0065091E1060E941D576A877B87B5
:104380008C879D872091A9093091AA094091AB099A
:104390005091AC090E941D572091F4143091F514EE
:1043A0004091F6145091F7140E9466554B015C0140
:1043B00060936C1370936D1380936E1390936F13CF
:1043C0002091BA063091BB064091BC065091BD06C3
:1043D000C701B6010E941D572091F8143091F914BD
:1043E0004091FA145091FB140E94655520912607C4
:1043F0003091270740912807509129070E941D57A7
:104400006E877F87888B998B20916E0730916F071D
:104410004091700750917107C701B6010E941D5766
:10442000A50194010E9466552E853F8548895989CA
:104430000E9466556B017C01609374137093751331
:1044400080937613909377138090920790909307C0
:10445000A0909407B0909507A50194010E94195768
:10446000181684F08090020790900307A09004072C
:10447000B0900507A5019401C701B6010E94CA5575
:1044800087FF08C08092741390927513A0927613E0
:10449000B0927713C0907413D0907513E090761398
:1044A000F090771320E030E0A901C701B6010E9427
:1044B000CA5587FF05C080E090E0A0E8BFEB0DC0C3
:1044C00020E030E0A901C701B6010E941957181673
:1044D0006CF480E090E0A0E8BFE3809370139093C9
:1044E0007113A0937213B09373131AC020E030E0DD
:1044F000A901C701B6010E94CA55811109C01092D5
:10450000701310927113109272131092731308C0EB
:10451000C0927013D0927113E0927213F0927313E1
:104520008090701390907113A0907213B0907313D9
:10453000C090B909D090BA09E090BB09F090BC09CD
:10454000A7019601C501B4010E941957181684F0FD
:10455000C090BD09D090BE09E090BF09F090C0099D
:10456000A7019601C501B4010E94CA5587FF09C081
:10457000C0927813D0927913E0927A13F0927B1361
:1045800008C08092781390927913A0927A13B09217
:104590007B13C0907813D0907913E0907A13F09049
:1045A0007B1320E030E040E853E4C701B6010E94ED
:1045B000CA5587FF0EC020E030E0A901C701B6014F
:1045C0000E94195787FD07C0C701B6010E943B56DC
:1045D00003C06FEF01C060E08091F6070E941447AE
:1045E000C0907013D0907113E0907213F090731319
:1045F000F7FAF094F7F8F094C0927013D092711318
:10460000E0927213F09273138090C1099090C209E6
:10461000A090C309B090C409A5019401C701B601D7
:104620000E941957181684F08090C5099090C60909
:10463000A090C709B090C809A5019401C701B601AF
:104640000E94CA5587FF08C0809270139092711320
:10465000A0927213B0927313C0907013D090711324
:10466000E0907213F090731320E030E040E853E4E0
:10467000C701B6010E94CA5587FF0EC020E030E096
:10468000A901C701B6010E94195787FD07C0C701DC
:10469000B6010E943B5603C06FEF01C060E08091FD
:1046A000FA070E941447C0907413D0907513E090DD
:1046B0007613F0907713E894F7F8C0927413D092C1
:1046C0007513E0927613F09277138090C909909059
:1046D000CA09A090CB09B090CC09A5019401C701EB
:1046E000B6010E941957181684F08090CD09909059
:1046F000CE09A090CF09B090D009A5019401C701BF
:10470000B6010E94CA5587FF08C080927413909228
:104710007513A0927613B09277132091D10930913E
:10472000D2094091D3095091D409609174137091CA
:10473000751380917613909177130E941D576B012A
:104740007C01609374137093751380937613909328
:10475000771320E030E040E853E40E94CA5587FF19
:104760000EC020E030E0A901C701B6010E94195730
:1047700087FD07C0C701B6010E943B5603C06FEF1B
:1047800001C060E070E08091FE070E94C345809107
:10479000310A90919615890F90910C08981710F492
:1047A00080911C0A109390150093911530929215E8
:1047B00020929315FB81F09394154C8140939515AD
:1047C000809396158981809397159A819093981577
:1047D00080919E14811103C0ED81E0939915809022
:1047E000FC149090FD14A090FE14B090FF14C090A3
:1047F000A315D090A415E090A515F090A615A701DB
:104800009601C501B4010E94CA550091A6141091E9
:10481000A714811110C0F80180819181A281B38118
:104820008093FC149093FD14A093FE14B093FF1496
:10483000E0E0F5E129C04090041550900515609026
:10484000061570900715A7019601C301B2010E94D9
:10485000CA55811110C0F80180819181A281B38174
:104860008093041590930515A0930615B093071532
:10487000E8E0F5E109C0A3019201C501B4010E947D
:10488000CA5587FDC8CFE7CF8091C0129091C11261
:10489000A091C212B091C31280839183A283B3838B
:1048A00020919C1330919D1340919E1350919F1322
:1048B0006091290870912A0880912B0890912C080A
:1048C0000E941D572091EC123091ED124091EE1292
:1048D0005091EF120E9466556093B4147093B51412
:1048E0008093B6149093B7142091A0133091A11324
:1048F0004091A2135091A313609131087091320836
:1049000080913308909134080E941D579B01AC019F
:104910006091B8147091B9148091BA149091BB143D
:104920000E9466556093B8147093B9148093BA14BA
:104930009093BB1480900C1590900D15A0900E15BF
:10494000B0900F15A7019601C501B4010E94CA5588
:10495000811110C0F80180819181A281B38180937F
:104960000C1590930D15A0930E15B0930F15E0E163
:10497000F5E12CC040901415509015156090161557
:1049800070901715A7019601C301B2010E94CA5584
:10499000811113C0E091A614F091A7148081918138
:1049A000A281B3818093141590931515A0931615C9
:1049B000B0931715E8E1F5E109C0A3019201C50123
:1049C000B4010E94CA5587FDC5CFE4CF8091C412BF
:1049D0009091C512A091C612B091C71280839183A5
:1049E000A283B3832091A4133091A5134091A61301
:1049F0005091A7136091590870915A0880915B08F3
:104A000090915C080E941D572091FC123091FD127C
:104A10004091FE125091FF120E9466556093BC14A3
:104A20007093BD148093BE149093BF142091A8136B
:104A30003091A9134091AA135091AB136091610872
:104A40007091620880916308909164080E941D57DC
:104A50009B01AC016091C0147091C1148091C2148B
:104A60009091C3140E9466556093C0147093C11452
:104A70008093C2149093C31480901C1590901D15C0
:104A8000A0901E15B0901F15A7019601C501B40195
:104A90000E94CA55811110C0F80180819181A281C4
:104AA000B38180931C1590931D15A0931E15B09390
:104AB0001F15E0E2F5E12CC040902415509025151B
:104AC0006090261570902715A7019601C301B201C9
:104AD0000E94CA55811113C0E091A614F091A71449
:104AE00080819181A281B3818093241590932515B3
:104AF000A0932615B0932715E8E2F5E109C0A301BC
:104B00009201C501B4010E94CA5587FDC5CFE4CF0B
:104B10008091C8129091C912A091CA12B091CB1283
:104B200080839183A283B3832091AC133091AD1322
:104B30004091AE135091AF136091890870918A082B
:104B400080918B0890918C080E941D5720910C1326
:104B500030910D1340910E1350910F130E94665522
:104B60006093C4147093C5148093C6149093C714B3
:104B70002091B0133091B1134091B2135091B313FF
:104B80006091910870919208809193089091940897
:104B90000E941D579B01AC016091C8147091C9140B
:104BA0008091CA149091CB140E9466556093C814EA
:104BB0007093C9148093CA149093CB1480902C15D1
:104BC00090902D15A0902E15B0902F15A70196014D
:104BD000C501B4010E94CA55811110C0F80180813D
:104BE0009181A281B38180932C1590932D15A09370
:104BF0002E15B0932F15E0E3F5E12CC0409034154D
:104C0000509035156090361570903715A7019601B4
:104C1000C301B2010E94CA55811113C0E091A614CC
:104C2000F091A71480819181A281B3818093341582
:104C300090933515A0933615B0933715E8E3F5E159
:104C400009C0A3019201C501B4010E94CA5587FDA4
:104C5000C5CFE4CF8091D8129091D912A091DA12E9
:104C6000B091DB1280839183A283B3832091B4132C
:104C70003091B5134091B6135091B7136091B908B4
:104C80007091BA088091BB089091BC080E941D5792
:104C900020911C1330911D1340911E1350911F132E
:104CA0000E9466556093CC147093CD148093CE14FB
:104CB0009093CF142091B8133091B9134091BA1347
:104CC0005091BB136091C1087091C2088091C308D4
:104CD0009091C4080E941D579B01AC016091D014B3
:104CE0007091D1148091D2149091D3140E94665582
:104CF0006093D0147093D1148093D2149093D314F2
:104D000080903C1590903D15A0903E15B0903F15B9
:104D1000A7019601C501B4010E94CA55811110C0B6
:104D2000F80180819181A281B38180933C15909399
:104D30003D15A0933E15B0933F15E0E4F5E12CC07E
:104D40004090441550904515609046157090471559
:104D5000A7019601C301B2010E94CA55811113C077
:104D6000E091A614F091A71480819181A281B38172
:104D70008093441590934515A0934615B09347151D
:104D8000E8E4F5E109C0A3019201C501B4010E9464
:104D9000CA5587FDC5CFE4CF8091DC129091DD121A
:104DA000A091DE12B091DF1280839183A283B3833E
:104DB0002091BC133091BD134091BE135091BF138D
:104DC0006091E9087091EA088091EB089091EC08F5
:104DD0000E941D5720912C1330912D1340912E13BA
:104DE00050912F130E9466556093D4147093D5147C
:104DF0008093D6149093D7142091C0133091C1138F
:104E00004091C2135091C3136091F1087091F20860
:104E10008091F3089091F4080E941D579B01AC010A
:104E20006091D8147091D9148091DA149091DB14A8
:104E30000E9466556093D8147093D9148093DA1445
:104E40009093DB1480904C1590904D15A0904E15CA
:104E5000B0904F15A7019601C501B4010E94CA5533
:104E6000811110C0F80180819181A281B38180936A
:104E70004C1590934D15A0934E15B0934F15E0E54A
:104E8000F5E12CC040905415509055156090561582
:104E900070905715A7019601C301B2010E94CA552F
:104EA000811113C0E091A614F091A7148081918123
:104EB000A281B3818093541590935515A0935615F4
:104EC000B0935715E8E5F5E109C0A3019201C501CA
:104ED000B4010E94CA5587FDC5CFE4CF8091BC12B2
:104EE0009091BD12A091BE12B091BF1280839183A8
:104EF000A283B3832091C4133091C5134091C6138C
:104F00005091C7136091190970911A0980911B097A
:104F100090911C090E941D5720913C1330913D1324
:104F200040913E1350913F130E9466556093DC14EC
:104F30007093DD148093DE149093DF142091C813D6
:104F40003091C9134091CA135091CB13609121093C
:104F50007091220980912309909124090E941D5784
:104F60009B01AC016091E0147091E1148091E21416
:104F70009091E3140E9466556093E0147093E114DD
:104F80008093E2149093E31480905C1590905D15EB
:104F9000A0905E15B0905F15A7019601C501B40100
:104FA0000E94CA55811110C0F80180819181A281AF
:104FB000B38180935C1590935D15A0935E15B093BB
:104FC0005F15E0E6F5E12CC0409064155090651542
:104FD0006090661570906715A7019601C301B20134
:104FE0000E94CA55811113C0E091A614F091A71434
:104FF00080819181A281B38180936415909365151E
:10500000A0936615B0936715E8E6F5E109C0A30122
:105010009201C501B4010E94CA5587FDC5CFE4CFF6
:105020008091CC129091CD12A091CE12B091CF125E
:1050300080839183A283B3832091CC133091CD13CD
:105040004091CE135091CF136091490970914A0954
:1050500080914B0990914C090E941D5720914C134F
:1050600030914D1340914E1350914F130E9466554D
:105070006093E4147093E5148093E6149093E7141E
:105080002091D0133091D1134091D2135091D3136A
:10509000609151097091520980915309909154097E
:1050A0000E941D579B01AC016091E8147091E914B6
:1050B0008091EA149091EB140E9466556093E81475
:1050C0007093E9148093EA149093EB1480906C151C
:1050D00090906D15A0906E15B0906F15A701960178
:1050E000C501B4010E94CA55811110C0F801808128
:1050F0009181A281B38180936C1590936D15A093DB
:105100006E15B0936F15E0E7F5E12CC04090741573
:10511000509075156090761570907715A7019601DF
:10512000C301B2010E94CA55811113C0E091A614B7
:10513000F091A71480819181A281B381809374152D
:1051400090937515A0937615B0937715E8E7F5E180
:1051500009C0A3019201C501B4010E94CA5587FD8F
:10516000C5CFE4CF8091D0129091D112A091D212EC
:10517000B091D31280839183A283B3832091D413FF
:105180003091D5134091D6135091D713609179097E
:1051900070917A0980917B0990917C090E941D573A
:1051A00020915C1330915D1340915E1350915F1319
:1051B0000E9466556093EC147093ED148093EE1486
:1051C0009093EF14209181093091820940918309D5
:1051D000509184096E817F81888599850E941D5731
:1051E0009B01AC016091F0147091F1148091F21464
:1051F0009091F3140E9466556093F0147093F1142B
:105200008093F2149093F31480907C1590907D1508
:10521000A0907E15B0907F15A7019601C501B4013D
:105220000E94CA55811110C0F80180819181A2812C
:10523000B38180937C1590937D15A0937E15B093D8
:105240007F15E0E8F5E129C0409084155090851560
:105250006090861570908715A7019601C301B20171
:105260000E94CA55811110C0F80180819181A281EC
:10527000B3818093841590938515A0938615B09380
:105280008715E8E8F5E109C0A3019201C501B40161
:105290000E94CA5587FDC8CFE7CF8091D412909164
:1052A000D512A091D612B091D71280839183A28398
:1052B000B3832091A9093091AA094091AB0950917B
:1052C000AC096A857B858C859D850E941D57209140
:1052D0006C1330916D1340916E1350916F130E94B7
:1052E00066556093F4147093F5148093F6149093BC
:1052F000F7142091B1093091B2094091B30950914E
:10530000B4096E857F85888999890E941D579B0104
:10531000AC016091F8147091F9148091FA14909195
:10532000FB140E9466556093F8147093F9148093EF
:10533000FA149093FB1483E090E00E948B42E0917A
:10534000A614F091A714408151816281738180E09D
:1053500090E00E94874260918C1470918D1480912E
:105360008E1490918F140E9467566B017C0160919E
:1053700090147091911480919214909193140E94C2
:10538000675620E030E040E85FE40E941D579B0133
:10539000AC01C701B6010E9466552DEC3CEC4CE413
:1053A0005DE30E941D57AB01BC0181E090E00E94CB
:1053B000874280919E1481112EC060919414709147
:1053C000951480919614909197140E9467566B01E2
:1053D0007C01609198147091991480919A14909125
:1053E0009B140E94675620E030E040E85FE40E9492
:1053F0001D579B01AC01C701B6010E9466552AE901
:1054000039E949E95EE30E941D57AB01BC0182E026
:1054100090E00E94874280909F149090A014A090EA
:10542000A114B090A21420E030E040E85FEBC50189
:10543000B4010E94CA556090A6147090A7148823E6
:1054400019F1F301C080D180E280F380A7019601B9
:10545000C501B4010E9465554B015C0120E030E0BC
:1054600040E054E3C701B6010E941D579B01AC0107
:10547000C501B4010E941957181634F088E39AE068
:105480009093F0138093EF138091A514882331F04B
:1054900088E39AE09093F0138093EF136091801467
:1054A0007091811480918214909183146F5F7F4F6B
:1054B0008F4F9F4F60938014709381148093821458
:1054C000909383146115710581059105A1F40091F4
:1054D00084141091851420918614309187140F5FE5
:1054E0001F4F2F4F3F4F0093841410938514209328
:1054F000861430938714C0908814D0908914E0905B
:105500008A14F0908B140E946756A70196010E949E
:105510001D574B015C01609184147091851480913A
:105520008614909187140E946756A70196010E94E5
:105530001D5720E030E040E85FE40E941D579B01CA
:10554000AC01C501B4010E946655F301608371830B
:105550008283938380918C1490918D14A0918E14EA
:10556000B0918F140196A11DB11D80938C1490935E
:105570008D14A0938E14B0938F14892B8A2B8B2BB0
:1055800099F48091901490919114A0919214B091FB
:1055900093140196A11DB11D8093901490939114C2
:1055A000A0939214B093931420919E1421112AC0B9
:1055B0008091941490919514A0919614B0919714A1
:1055C0000196A11DB11D8093941490939514A093FE
:1055D0009614B0939714892B8A2B8B2B99F4809176
:1055E000981490919914A0919A14B0919B140196DB
:1055F000A11DB11D8093981490939914A0939A14AF
:10560000B0939B1481E0820F863018F480939E142F
:1056100079C110929E1476C1882309F4B9C0109103
:105620009A1520E030E040E85FE3609196067091C3
:10563000970680919806909199060E9466556B0195
:105640007C01612F70E080E090E00E94675620E0CE
:1056500030E040E85FE30E9466559B01AC01C70162
:10566000B6010E9465550E943656F3E01F9F9001D7
:105670001124F901EE0FFF1FEE0FFF1FE451F04F51
:10568000C080D180E280F380C0927813D0927913E9
:10569000E0927A13F0927B13CB010197BC01660F65
:1056A000771F680F791FFB01EE0FFF1FEE0FFF1F23
:1056B000E452FF4E80819181A281B3818093841353
:1056C00090938513A0938613B0938713F901EE0F7F
:1056D000FF1FEE0FFF1FE453FE4E80819181A281D8
:1056E000B3818093901390939113A0939213B093EE
:1056F0009313F901EE0FFF1FEE0FFF1FE051F04F64
:1057000080819181A281B38180937C1390937D13DA
:10571000A0937E13B0937F13FB01EE0FFF1FEE0FDC
:10572000FF1FE052FF4E80819181A281B38180935F
:10573000881390938913A0938A13B0938B13F90164
:10574000EE0FFF1FEE0FFF1FE053FE4E8081918191
:10575000A281B3818093941390939513A093961391
:10576000B0939713F901EE0FFF1FEE0FFF1FEC50E0
:10577000F04F80819181A281B381809380139093B7
:105780008113A0938213B0938313FB010C949606AC
:105790008091ED13882311F40C94050620E030E08D
:1057A00040E85FE3609196067091970680919806B5
:1057B000909199060E9466556B017C0160919A1543
:1057C00070E080E090E00E94675620E030E040E822
:1057D0005FE30E9466559B01AC01C701B6010E94C0
:1057E00065550E943656CB010197BC01660F771FA5
:1057F000680F791FFB01EE0FFF1FEE0FFF1FE45133
:10580000F04F80819181A281B3818093781390932E
:105810007913A0937A13B0937B13FB01EE0FFF1F54
:10582000EE0FFF1FE452FF4E80819181A281B38170
:105830008093841390938513A0938613B09387135A
:10584000FB01EE0FFF1FEE0FFF1FE453FE4E8081A2
:105850009181A281B3818093901390939113A0932F
:105860009213B0939313FB01EE0FFF1FEE0FFF1F78
:10587000E051F04F80819181A281B38180937C13AC
:1058800090937D13A0937E13B0937F13FB01EE0FD3
:10589000FF1FEE0FFF1FE052FF4E80819181A2811A
:1058A000B3818093881390938913A0938A13B09344
:1058B0008B13FB01EE0FFF1FEE0FFF1FE053FE4E99
:1058C00080819181A281B3818093941390939513E9
:1058D000A0939613B0939713FB01EE0FFF1FEE0FEB
:1058E000FF1FEC50F04F80819181A281B3818093A2
:1058F000801390938113A0938213B0938313FB01C1
:105900000C94F10561960FB6F894DEBF0FBECDBFC3
:10591000DF91CF911F910F91FF90EF90DF90CF908B
:10592000BF90AF909F908F907F906F905F904F90BF
:105930003F902F900895CF93DF9384E090E0F7D3CA
:10594000EFEEF3E185ECDF011D928A95E9F783EA3A
:1059500094E19093F6138093F513A6EAB4E1B09323
:105960003014A0932F14C8E8D4E1D0930414C0934A
:105970000314F0935A14E0935914F093F413E09342
:10598000F31321E030E0FC01318320838CE49AE0C2
:105990009093FA138093F91328EA34E12D933C9302
:1059A00080E090E0A0E8BFEB80939F149093A01458
:1059B000A093A114B093A2148DEC9CECACE4BDE3D5
:1059C00088839983AA83BB83EEE6F4E187E09DE2B6
:1059D000A5E5B8ED80839183A283B38381E59DEF34
:1059E000A7E3BDEC8093721490937314A093741486
:1059F000B09375148BE69FE9A0EDB5E5809376141E
:105A000090937714A0937814B093791481E891ED72
:105A1000A5EEB0E380937A1490937B14A0937C144A
:105A2000B0937D14C6E7DBE0D093F213C093F1137B
:105A3000ACE5BBE0B983A8838AEC9AE08D939C9394
:105A400090935F0B80935E0B9093610B8093600B40
:105A50009093630B8093620B9093650B8093640B20
:105A60009093670B8093660B9093690B8093680B00
:105A700090936B0B80936A0B90936D0B80936C0BE0
:105A800090936F0B80936E0B9093710B8093700BC0
:105A90009093730B8093720B9093750B8093740BA0
:105AA0004EE754E150937B0B40937A0BF093790BC4
:105AB000E093780B30937D0B20937C0B83EF94E085
:105AC000ECEFFEE0DF01EC011D922197E9F7C4EB5A
:105AD000D4E187EEFE0111928A95E9F7EAE4FBE052
