:100000003BC100000C9450500C9481500C94B250A1
:100010000C94E3500C9414510C9445510C9476516B
:100020000C94A7515AC1000058C1000056C10000ED
:1000300054C100000C94955950C100004EC10000FD
:100040004CC100004AC1000048C1000046C1000088
:1000500044C1000042C1000040C100000C94D851CE
:100060003CC100000C94D4550C940A5636C10000D3
:1000700034C1000032C1000030C100002EC10000B8
:100080002CC100002AC1000028C1000026C10000C8
:100090000C9476560C94AC5620C100001EC1000092
:1000A0001CC100001AC1000018C1000016C10000E8
:1000B00014C1000012C1000010C100000EC10000F8
:1000C0000CC100000AC1000008C100000C941857C0
:1000D0000C944E5702C100000C94BA570C94F05780
:1000E000FCC00000E0407C42DF42E142D7410842D0
:1000F000A140C1408540BE42AD42BA42E142E14228
:10010000E142704015531A531F5329533353AC53D4
:100110003D5345534D53575361536B537A53845357
:10012000AC538E539853A253CE53D153C053C453A0
:10013000CA530854D553D953DF53E353E753ED5310
:10014000F153F5530854FB53FF53035400000A0BBB
:1001500002090C0D0E080703040100000000000056
:10016000000000000000000000000000000000008F
:10017000000000000000000012111000000000004C
:10018000000000000000000000000000000000006F
:10019000000001021020200808102040102040809C
:1001A000020102010804020101020408102040803B
:1001B00080402010080402018004020180402010C9
:1001C0000804020108040201010204081020408012
:1001D00001020408102040800505050507050808F0
:1001E0000808020202020A0A0808040404040101C1
:1001F00001010101010103030303030303030407D6
:1002000007070C0C0C0C0C0C0C0C0202020206066C
:100210000606060606060B0B0B0B0B0B0B0B000062
:1002200020002300260029002C002F0032000001AE
:10023000000003010601090100002200250028003A
:100240002B002E00310034000201000005010801DE
:100250000B0100002100240027002A002D0030009F
:10026000330001010000040107010A0102003356B6
:10027000D55677571958935811241FBECFEFD1E2A6
:10028000DEBFCDBF00E00CBF1CE0A0E0B2E0EAE8BA
:10029000FCEC00E00BBF02C007900D92A637B1073F
:1002A000D9F727E1A6E7BCE001C01D92AE39B2073D
:1002B000E1F712E0C8E7D2E000E006C022970109AA
:1002C000FE010BBF0E94E564CE36D10780E008072F
:1002D000A9F70E9401620C94436692CE8F929F927E
:1002E000AF92BF92CF92DF92EF92FF92CF93DF93C4
:1002F0004B015C01EA01C880D980EA80FB8020E0E4
:1003000030E0A9010E94476418167CF020E030E03C
:10031000A901C501B4010E94F862881F8827881FBF
:1003200091E08927282F30E002C022E030E085E00C
:10033000C816D104E104F10409F468C0A9016627D4
:1003400057FD6095762F4C155D056E057F0509F408
:1003500079C083E0C816D104E104F10449F42130E6
:10036000310509F073C041E050E0E0E0F0E013C077
:1003700084E0C816D104E104F10449F421303105C8
:1003800009F06BC041E050E0E0E0F0E00BC0E0E0DD
:10039000F0E045E050E082E0C816D104E104F10449
:1003A00009F464C081E0C816D104E104F10441F409
:1003B0002230310569F02115310509F457C004C018
:1003C000CD28CE28CF2821F060E070E0CB0104C01A
:1003D00062E070E080E090E0E617F70719F460E073
:1003E00070E0CB012130310559F46230710531F0F4
:1003F0006330710529F424E030E002C023E030E0EE
:1004000045305105A9F0C9019A0102C085E090E08C
:100410006901EE24D7FCE094FE2CC882D982EA82DE
:10042000FB828530910571F09C0160E070E0CB01AA
:100430006901EE24D7FCE094FE2CC882D982EA82BE
:10044000FB8219C060E070E0CB0115C0C12CD12C3B
:100450007601C394E2E0F0E09CCFC12CD12C760170
:10046000C394E3E0F0E045E050E09CCF63E070E04F
:1004700080E090E0B1CFDF91CF91FF90EF90DF90DF
:10048000CF90BF90AF909F908F9008952F923F9202
:100490004F925F926F927F928F929F92AF92BF9294
:1004A000CF92DF92EF92FF920F931F93CF93DF9340
:1004B000CDB7DEB760970FB6F894DEBF0FBECDBFE5
:1004C0008091EC0A0E94CC5290936F1580936E1528
:1004D000BC0180E090E00E94956320918C083091EF
:1004E0008D0840918E0850918F080E944B64209196
:1004F0005A0730915B0740915C0750915D070E945D
:1005000093626093EE137093EF138093F0139093C4
:10051000F1138091F00A0E94CC5290937115809350
:100520007015A091340BB091350B9C010E94D664DC
:100530000E94956320E030E040E856E30E944B645F
:100540009B01AC0160915E0770915F07809160072D
:10055000909161070E9493626093F2137093F3137A
:100560008093F4139093F5138091F40A0E94CC5277
:100570009093731580937215BC0180E090E00E9407
:100580009563209190083091910840919208509184
:1005900093080E944B642091620730916307409159
:1005A0006407509165070E9493626093F6137093FD
:1005B000F7138093F8139093F9138091F80A0E942F
:1005C000CC529093751580937415BC0180E090E037
:1005D0000E94956320919408309195084091960867
:1005E000509197080E944B649B01AC016091660793
:1005F0007091670780916807909169070E949362E4
:100600006093FA137093FB138093FC139093FD1384
:100610008091FC0A0E94CC529093771580937615B6
:10062000BC0180E090E00E94956320919808309191
:10063000990840919A0850919B080E944B64209120
:100640006A0730916B0740916C0750916D070E94CB
:1006500093626093FE137093FF1380930014909342
:1006600001148091000B0E94CC52909379158093D5
:100670007815A0912E0BB0912F0B9C010E94D6648F
:100680000E94956320E030E040E057E30E944B6415
:1006900020916E0730916F0740917007509171075C
:1006A0000E94936260930214709303148093041465
:1006B000909305148091040B0E94CC5290937B156B
:1006C00080937A15BC0180E090E00E9495632091B0
:1006D0009C0830919D0840919E0850919F080E946F
:1006E0004B642091720730917307409174075091C9
:1006F00075070E94936260930614709307148093A9
:100700000814909309148091080B0E94CC52909386
:100710007D1580937C15A091300BB091310B9C011D
:100720000E94D6640E94956320E030E040E057E3E9
:100730000E944B64209176073091770740917807AB
:10074000509179070E94936260930A1470930B147E
:1007500080930C1490930D1480910C0B0E94CC523A
:1007600090937F1580937E15A0912C0BB0912D0B4B
:100770009C010E94D6640E94956320E030E040E036
:1007800056E30E944B649B01AC0160917A07709123
:100790007B0780917C0790917D070E949362609314
:1007A0000E1470930F148093101490931114809171
:1007B000100B0E947754809387158091140B0E9430
:1007C0007754809388158091180B0E9477548093FA
:1007D000891580911C0B0E94775480938A15809113
:1007E000200B0E94CC529093811580938015BC0100
:1007F00080E090E00E9495632091A0083091A108CC
:100800004091A2085091A3080E944B6420917E075A
:1008100030917F0740918007509181070E94936239
:1008200060931214709313148093141490931514FE
:100830008091240B0E94CC52909383158093821553
:10084000BC0180E090E00E9495632091A408309163
:10085000A5084091A6085091A7080E944B642091DA
:1008600082073091830740918407509185070E9449
:1008700093626093161470931714809318149093D6
:1008800019148091280B0E94CC5290938515809367
:100890008415A091320BB091330B9C010E94D66459
:1008A0000E94956320E030E040E057E30E944B64F3
:1008B0009B01AC0160918607709187078091880742
:1008C000909189070E94936260931A1470931B148D
:1008D00080931C1490931D1480913A16811104C0CA
:1008E00080918017809386152091881580918715B7
:1008F00090E0820F911D20918915820F911D20910A
:100900008A15820F911D2091500B30E0281739076E
:1009100084F46091861570E080E090E00E94956319
:100920006093E6147093E7148093E8149093E914AD
:1009300010C08091880890918908A0918A08B09190
:100940008B088093E6149093E714A093E814B09377
:10095000E9146091E6147091E7148091E814909185
:10096000E91440E757E1BADC672B682B692B51F09B
:1009700080918117833120F48F5F8093811702C0AB
:100980001092811790903A1691100DC04091510B22
:1009900080918615480F488780917B08841718F44A
:1009A0008091360B8887C090A808D090A908E09065
:1009B000AA08F090AB0802ED12E09EE2A92E90E1A9
:1009C000B92EF80121913191419151918F01C701C7
:1009D000B6010E944B64F5016193719381939193E9
:1009E0005F01F6E002391F0761F7809187158823C0
:1009F00009F4DFC02091811743E0249F9001112466
:100A0000F901EE0FFF1FEE0FFF1FE25DFF4E808129
:100A10009181A281B3818093E6149093E714A0930F
:100A2000E814B093E914F901EE0FFF1FEE0FFF1F5A
:100A3000E258FE4E80819181A281B3818093F214AD
:100A40009093F314A093F414B093F514F901EE0FFE
:100A5000FF1FEE0FFF1FE25FFD4E80819181A2819B
:100A6000B3818093FE149093FF14A0930015B0936C
:100A70000115F901EE0FFF1FEE0FFF1FE25AFC4EAA
:100A800080819181A281B38180930A1590930B1587
:100A9000A0930C15B0930D15F901EE0FFF1FEE0F8B
:100AA000FF1FEE5CFF4E80819181A281B381809314
:100AB000EA149093EB14A093EC14B093ED14F901A5
:100AC000EE0FFF1FEE0FFF1FEE57FE4E808191814C
:100AD000A281B3818093F6149093F714A093F81435
:100AE000B093F914F901EE0FFF1FEE0FFF1FEE5E3A
:100AF000FD4E80819181A281B381809302159093F4
:100B00000315A0930415B0930515F901EE0FFF1F0F
:100B1000EE0FFF1FEE59FC4E80819181A281B381BF
:100B200080930E1590930F15A0931015B093111587
:100B3000F901EE0FFF1FEE0FFF1FEA5CFF4E8081F1
:100B40009181A281B3818093EE149093EF14A093CE
:100B5000F014B093F114F901EE0FFF1FEE0FFF1F19
:100B6000EA57FE4E80819181A281B3818093FA146D
:100B70009093FB14A093FC14B093FD14F901EE0FB5
:100B8000FF1FEE0FFF1FEA5EFD4E80819181A28163
:100B9000B3818093061590930715A0930815B09321
:100BA0000915F901EE0FFF1FEE0FFF1FEA59FC4E6A
:100BB00006C380918815882309F41AC180918A158B
:100BC0001091811720E030E040E85FE3882329F1AD
:100BD000609196067091970680919806909199067B
:100BE0000E9494626B017C01612F70E080E090E0D4
:100BF0000E94956320E030E040E85FE30E94946249
:100C00009B01AC01C701B6010E9493620E9464631C
:100C1000E3E01E9F9001112424C06091960670911C
:100C2000970680919806909199060E9494626B01B4
:100C30007C01612F70E080E090E00E94956320E0ED
:100C400030E040E85FE30E9494629B01AC01C70181
:100C5000B6010E9493620E946463F3E01F9F9001BB
:100C60001124F901EE0FFF1FEE0FFF1FE25DFF4E93
:100C7000C080D180E280F380C092E614D092E71465
:100C8000E092E814F092E914CB010197BC01660FE1
:100C9000771F680F791FFB01EE0FFF1FEE0FFF1F7D
:100CA000E25EFE4E80819181A281B3818093F21435
:100CB0009093F314A093F414B093F514F901EE0F8C
:100CC000FF1FEE0FFF1FE25FFD4E80819181A28129
:100CD000B3818093FE149093FF14A0930015B093FA
:100CE0000115FB01EE0FFF1FEE0FFF1FE250FD4E3F
:100CF00080819181A281B38180930A1590930B1515
:100D0000A0930C15B0930D15F901EE0FFF1FEE0F18
:100D1000FF1FEE5CFF4E80819181A281B3818093A1
:100D2000EA149093EB14A093EC14B093ED14FB0130
:100D3000EE0FFF1FEE0FFF1FEE5DFE4E80819181D3
:100D4000A281B3818093F6149093F714A093F814C2
:100D5000B093F914F901EE0FFF1FEE0FFF1FEE5EC7
:100D6000FD4E80819181A281B38180930215909381
:100D70000315A0930415B0930515FB01EE0FFF1F9B
:100D8000EE0FFF1FEE5FFC4E80819181A281B38147
:100D900080930E1590930F15A0931015B093111515
:100DA000F901EE0FFF1FEE0FFF1FEA5CFF4E80817F
:100DB0009181A281B3818093EE149093EF14A0935C
:100DC000F014B093F114FB01EE0FFF1FEE0FFF1FA5
:100DD000EA5DFE4E80819181A281B3818093FA14F5
:100DE0009093FB14A093FC14B093FD14F901F0C090
:100DF00080918915882309F4FFC020E030E040E8A5
:100E00005FE36091960670919706809198069091A5
:100E100099060E9494626B017C016091811770E0D9
:100E200080E090E00E94956320E030E040E85FE3DE
:100E30000E9494629B01AC01C701B6010E949362BB
:100E40000E946463CB010197BC01660F771F680F96
:100E5000791FFB01EE0FFF1FEE0FFF1FE25DFF4E3C
:100E600080819181A281B3818093E6149093E714ED
:100E7000A093E814B093E914FB01EE0FFF1FEE0FEF
:100E8000FF1FE25EFE4E80819181A281B38180933B
:100E9000F2149093F314A093F414B093F514FB019F
:100EA000EE0FFF1FEE0FFF1FE25FFD4E808191816D
:100EB000A281B3818093FE149093FF14A093001538
:100EC000B0930115FB01EE0FFF1FEE0FFF1FE25065
:100ED000FD4E80819181A281B38180930A15909308
:100EE0000B15A0930C15B0930D15FB01EE0FFF1F12
:100EF000EE0FFF1FEE5CFF4E80819181A281B381D6
:100F00008093EA149093EB14A093EC14B093ED1437
:100F1000FB01EE0FFF1FEE0FFF1FEE5DFE4E808107
:100F20009181A281B3818093F6149093F714A093DA
:100F3000F814B093F914FB01EE0FFF1FEE0FFF1F23
:100F4000EE5EFD4E80819181A281B3818093021576
:100F500090930315A0930415B0930515FB01EE0FB4
:100F6000FF1FEE0FFF1FEE5FFC4E80819181A2817B
:100F7000B38180930E1590930F15A0931015B09325
:100F80001115FB01EE0FFF1FEE0FFF1FEA5CFF4E76
:100F900080819181A281B3818093EE149093EF14AC
:100FA000A093F014B093F114FB01EE0FFF1FEE0FAE
:100FB000FF1FEA5DFE4E80819181A281B381809303
:100FC000FA149093FB14A093FC14B093FD14FB014E
:100FD000EE0FFF1FEE0FFF1FEA5EFD4E8081918135
:100FE000A281B3818093061590930715A0930815ED
:100FF000B0930915FB01DDC080918A15882309F49F
:10100000E3C02091811743E0249F90011124F9014E
:10101000EE0FFF1FEE0FFF1FE25DFF4E80819181FB
:10102000A281B3818093E6149093E714A093E8140F
:10103000B093E914F901EE0FFF1FEE0FFF1FE25E00
:10104000FE4E80819181A281B3818093F2149093AE
:10105000F314A093F414B093F514F901EE0FFF1FED
:10106000EE0FFF1FE25FFD4E80819181A281B3816F
:101070008093FE149093FF14A0930015B093011574
:10108000F901EE0FFF1FEE0FFF1FE250FD4E8081B2
:101090009181A281B38180930A1590930B15A0933F
:1010A0000C15B0930D15F901EE0FFF1FEE0FFF1F8A
:1010B000EE5CFF4E80819181A281B3818093EA141E
:1010C0009093EB14A093EC14B093ED14F901EE0F90
:1010D000FF1FEE0FFF1FEE5DFE4E80819181A2810A
:1010E000B3818093F6149093F714A093F814B093FF
:1010F000F914F901EE0FFF1FEE0FFF1FEE5EFD4E1C
:1011000080819181A281B381809302159093031510
:10111000A0930415B0930515F901EE0FFF1FEE0F14
:10112000FF1FEE5FFC4E80819181A281B38180938D
:101130000E1590930F15A0931015B0931115F9018A
:10114000EE0FFF1FEE0FFF1FEA5CFF4E80819181C3
:10115000A281B3818093EE149093EF14A093F014C6
:10116000B093F114F901EE0FFF1FEE0FFF1FEA5DC0
:10117000FE4E80819181A281B3818093FA14909375
:10118000FB14A093FC14B093FD14F901EE0FFF1FA4
:10119000EE0FFF1FEA5EFD4E80819181A281B38137
:1011A0008093061590930715A0930815B093091521
:1011B000F901EE0FFF1FEE0FFF1FEA5FFC4E80816B
:1011C0009181A281B381B8C080912E1090912F108F
:1011D000A0913010B09131108093E6149093E714F1
:1011E000A093E814B093E91480911E1190911F11FF
:1011F000A0912011B09121118093F2149093F314D7
:10120000A093F414B093F51480910E1290910F12E4
:10121000A0911012B09111128093FE149093FF14BC
:10122000A0930015B09301158091FE129091FF12CA
:10123000A0910013B091011380930A1590930B15A0
:10124000A0930C15B0930D1580913210909133102E
:10125000A0913410B09135108093EA149093EB1460
:10126000A093EC14B093ED1480912211909123116E
:10127000A0912411B09125118093F6149093F71446
:10128000A093F814B093F914809112129091131254
:10129000A0911412B091151280930215909303152A
:1012A000A0930415B0930515809102139091031338
:1012B000A0910413B091051380930E1590930F1510
:1012C000A0931015B093111580913610909137109E
:1012D000A0913810B09139108093EE149093EF14D0
:1012E000A093F014B093F1148091261190912711DE
:1012F000A0912811B09129118093FA149093FB14B6
:10130000A093FC14B093FD148091161290911712C3
:10131000A0911812B0911912809306159093071599
:10132000A0930815B09309158091061390910713A7
:10133000A0910813B091091380931215909313157F
:10134000A0931415B0931515911010C08091EE1351
:101350009091EF13A091F013B091F11380931E14AC
:1013600090931F14A0932014B093211420E030E038
:1013700044E353E460919206709193068091940641
:10138000909195060E944B649B01AC0160E070E077
:1013900080E89FE30E94FC626B017C0120E030E06A
:1013A00044E353E46091E6147091E7148091E814EB
:1013B0009091E9140E94946220911E1430911F14A0
:1013C00040912014509121140E9493629B01AC0122
:1013D000C701B6010E944B642B013C0160932214AB
:1013E0007093231480932414909325148090B01646
:1013F0009090B116A090B216B090B316009142161C
:1014000010914316F801C080D180E280F380A701DB
:101410009601C501B4010E94476487FD17C0A7016A
:1014200096016091B8167091B9168091BA16909194
:10143000BB160E94476487FD09C01092DE1410920B
:10144000DF141092E0141092E11464C08092DE1454
:101450009092DF14A092E014B092E114C090B816FC
:10146000D090B916E090BA16F090BB16A70196017D
:10147000C501B4010E94F862F801208131814281E6
:10148000538187FF07C0C701B6010E94F86287FF3A
:1014900012C006C0C501B4010E94476487FD0BC09D
:1014A000C092DE14D092DF14E092E014F092E114C6
:1014B000ECEBF6E102C0E4EBF6E120813181428100
:1014C00053816091EE137091EF138091F01390911E
:1014D000F1130E9493626B017C012091DE14309124
:1014E000DF144091E0145091E114F80160817181A2
:1014F000828193810E9493629B01AC01C701B60176
:101500000E94FC626093DE147093DF148093E014F9
:101510009093E1142091DE143091DF144091E01497
:101520005091E1146091AC087091AD088091AE08C3
:101530009091AF080E944B649B01AC01C301B201C2
:101540000E9493626B017C016093261470932714B0
:1015500080932814909329142091CA063091CB06C9
:101560004091CC065091CD060E944B6460931615B5
:101570007093171580931815909319152091B00842
:101580003091B1084091B2085091B3080E944B6469
:101590002091501630915116409152165091531689
:1015A0000E9494622B013C0160932A1470932B14C7
:1015B00080932C1490932D1420919A0630919B06C1
:1015C00040919C0650919D06C701B6010E944B6454
:1015D0002091541630915516409156165091571639
:1015E0000E94936220912A0730912B0740912C078B
:1015F00050912D070E944B644B015C0160931A15BA
:1016000070931B1580931C1590931D1520918A07CC
:1016100030918B0740918C0750918D07C701B6011F
:101620000E944B64A30192010E949462A50194015F
:101630000E9494626B017C016093DE147093DF144E
:101640008093E0149093E1148090BA079090BB07C8
:10165000A090BC07B090BD07A50194010E9447640B
:10166000181684F08090FA069090FB06A090FC0675
:10167000B090FD06A5019401C701B6010E94F86271
:1016800087FF08C08092DE149092DF14A092E014CD
:10169000B092E114C090DE14D090DF14E090E0141A
:1016A000F090E11420E030E0A901C701B6010E94EA
:1016B000F86287FF05C080E090E0A0E8BFEB0DC0B6
:1016C00020E030E0A901C701B6010E944764181666
:1016D0006CF480E090E0A0E8BFE38093E214909384
:1016E000E314A093E414B093E5141AC020E030E0B2
:1016F000A901C701B6010E94F862811109C01092C8
:10170000E2141092E3141092E4141092E51408C04D
:10171000C092E214D092E314E092E414F092E51443
:10172000C090E214D090E314E090E414F090E5143B
:101730008090C0089090C108A090C208B090C308E3
:10174000A5019401C701B6010E944764181684F0F0
:101750008090C4089090C508A090C608B090C708B3
:10176000A5019401C701B6010E94F86287FF09C074
:101770008092E6149092E714A092E814B092E914D3
:1017800008C0C092E614D092E714E092E814F092F8
:10179000E914C090E614D090E714E090E814F090BB
:1017A000E91420E030E040E853E4C701B6010E94AC
:1017B000F86287FF0EC020E030E0A901C701B60142
:1017C0000E94476487FD07C0C701B6010E94696394
:1017D00003C06FEF01C060E08091EA070E944254AD
:1017E000C090E214D090E314E090E414F090E5147B
:1017F000F7FAF094F7F8F094C092E214D092E31460
:10180000E092E414F092E5148090C8089090C90822
:10181000A090CA08B090CB08A5019401C701B601F9
:101820000E944764181684F08090CC089090CD08F0
:10183000A090CE08B090CF08A5019401C701B601D1
:101840000E94F86287FF08C08092E2149092E3142D
:10185000A092E414B092E514C090E214D090E31486
:10186000E090E414F090E51420E030E040E853E428
:10187000C701B6010E94F86287FF0EC020E030E089
:10188000A901C701B6010E94476487FD07C0C701CF
:10189000B6010E94696303C06FEF01C060E08091F0
:1018A000EE070E944254C090DE14D090DF14E09006
:1018B000E014F090E114E894F7F8C092DE14D092AE
:1018C000DF14E092E014F092E1148090D008909040
:1018D000D108A090D208B090D308A5019401C70107
:1018E000B6010E944764181684F08090D408909046
:1018F000D508A090D608B090D708A5019401C701DB
:10190000B6010E94F86287FF08C08092DE149092B0
:10191000DF14A092E014B092E1142091DE14309113
:10192000DF144091E0145091E1146091D808709157
:10193000D9088091DA089091DB080E944B646B0112
:101940007C016093E6147093E7148093E8149093FD
:10195000E91420E030E040E853E40E94F86287FF99
:101960000EC020E030E0A901C701B6010E94476423
:1019700087FD07C0C701B6010E94696303C06FEF0E
:1019800001C060E070E08091F2070E94F152209067
:10199000520B80917417280E80917C08821510F4E8
:1019A0002090370B80913A16811110C08091061457
:1019B00090910714A0910814B091091480932E14EB
:1019C00090932F14A0933014B093311420E030E0A2
:1019D00044E353E4609192067091930680919406DB
:1019E000909195060E944B649B01AC0160E070E011
:1019F00080E89FE30E94FC626B017C0120912E1421
:101A000030912F1440913014509131146091EA14A8
:101A10007091EB148091EC149091ED140E949362FC
:101A20009B01AC01C701B6010E944B642B013C0134
:101A3000609332147093331480933414909335145C
:101A40008090C0169090C116A090C216B090C31698
:101A50000091421610914316F801C080D180E280B7
:101A6000F380A7019601C501B4010E94476487FD78
:101A700017C0A70196016091C8167091C916809190
:101A8000CA169091CB160E94476487FD09C0109238
:101A9000DE141092DF141092E0141092E11464C06E
:101AA0008092DE149092DF14A092E014B092E114C0
:101AB000C090C816D090C916E090CA16F090CB1608
:101AC000A7019601C501B4010E94F862F8012081C6
:101AD00031814281538187FF07C0C701B6010E944F
:101AE000F86287FF12C006C0C501B4010E944764B6
:101AF00087FD0BC0C092DE14D092DF14E092E01498
:101B0000F092E114ECECF6E102C0E4ECF6E12081A5
:101B10003181428153816091061470910714809144
:101B20000814909109140E9493626B017C0120912A
:101B3000DE143091DF144091E0145091E114F8016B
:101B400060817181828193810E9493629B01AC01CB
:101B5000C701B6010E94FC626093DE147093DF142B
:101B60008093E0149093E1142091DE143091DF14FF
:101B70004091E0145091E1146091DC087091DD080F
:101B80008091DE089091DF080E944B649B01AC01BC
:101B9000C301B2010E9493626B017C016093361411
:101BA0007093371480933814909339142091CE0693
:101BB0003091CF064091D0065091D1060E944B64DF
:101BC00060931E1570931F15809320159093211517
:101BD0002091E0083091E1084091E2085091E3083B
:101BE0000E944B64209158163091591640915A1614
:101BF00050915B160E9494622B013C0160933A1451
:101C000070933B1480933C1490933D1420919E0656
:101C100030919F064091A0065091A106C701B601E0
:101C20000E944B6420915C1630915D1640915E16C7
:101C300050915F160E94936220912E0730912F07DA
:101C400040913007509131070E944B644B015C0179
:101C50006093221570932315809324159093251576
:101C600020918E0730918F074091900750919107F6
:101C7000C701B6010E944B64A30192010E949462C5
:101C8000A50194010E9494626B017C016093E214AF
:101C90007093E3148093E4149093E5148090BE074E
:101CA0009090BF07A090C007B090C107A501940114
:101CB0000E944764181684F08090FE069090FF06FC
:101CC000A0900007B0900107A5019401C701B601DB
:101CD0000E94F86287FF08C08092E2149092E31499
:101CE000A092E414B092E514C090E214D090E314F2
:101CF000E090E414F090E51420E030E0A901C70181
:101D0000B6010E94F86287FF05C080E090E0A0E87D
:101D1000BFEB0DC020E030E0A901C701B6010E9471
:101D2000476418166CF480E090E0A0E8BFE380936D
:101D3000DE149093DF14A093E014B093E1141AC062
:101D400020E030E0A901C701B6010E94F8628111CC
:101D500009C01092DE141092DF141092E014109259
:101D6000E11408C0C092DE14D092DF14E092E014B7
:101D7000F092E114C090DE14D090DF14E090E014F3
:101D8000F090E1148090F0089090F108A090F20893
:101D9000B090F308A5019401C701B6010E94476401
:101DA000181684F08090F4089090F508A090F6083A
:101DB000B090F708A5019401C701B6010E94F8622E
:101DC00087FF09C08092E6149092E714A092E8146D
:101DD000B092E91408C0C092E614D092E714E092E1
:101DE000E814F092E914C090E614D090E714E09063
:101DF000E814F090E91420E030E040E853E4C70133
:101E0000B6010E94F86287FF0EC020E030E0A90111
:101E1000C701B6010E94476487FD07C0C701B6012C
:101E20000E94696303C06FEF01C060E08091F60714
:101E30000E944254C090DE14D090DF14E090E01471
:101E4000F090E114F7FAF094F7F8F094C092DE14F1
:101E5000D092DF14E092E014F092E1148090F80840
:101E60009090F908A090FA08B090FB08A5019401A1
:101E7000C701B6010E944764181684F08090FC08E0
:101E80009090FD08A090FE08B090FF08A501940175
:101E9000C701B6010E94F86287FF08C08092DE1475
:101EA0009092DF14A092E014B092E114C090DE147E
:101EB000D090DF14E090E014F090E11420E030E0E6
:101EC00040E853E4C701B6010E94F86287FF0EC0E4
:101ED00020E030E0A901C701B6010E94476487FDF8
:101EE00007C0C701B6010E94696303C06FEF01C05C
:101EF00060E08091FA070E944254C090E214D090B2
:101F0000E314E090E414F090E514E894F7F8C0923C
:101F1000E214D092E314E092E414F092E51480907D
:101F2000000990900109A0900209B0900309A50151
:101F30009401C701B6010E944764181684F080908E
:101F4000040990900509A0900609B0900709A50121
:101F50009401C701B6010E94F86287FF08C0809211
:101F6000E2149092E314A092E414B092E51420914C
:101F700008093091090940910A0950910B096091B3
:101F8000E2147091E3148091E4149091E5140E949E
:101F90004B646B017C016093E2147093E3148093B3
:101FA000E4149093E51420E030E040E853E40E940C
:101FB000F86287FF0EC020E030E0A901C701B6013A
:101FC0000E94476487FD07C0C701B6010E9469638C
:101FD00003C06FEF01C060E070E08091FE070E94D7
:101FE000F152F091530B80917A17F80FF983809199
:101FF0007D088F1718F44091380B498380913A1669
:10200000811110C08091121490911314A091141496
:10201000B091151480933E1490933F14A0934014F4
:10202000B093411420E030E044E353E46091920621
:102030007091930680919406909195060E944B644E
:102040009B01AC0160E070E080E89FE30E94FC62CD
:102050006B017C0120913E1430913F14409140145B
:10206000509141146091EE147091EF148091F0142E
:102070009091F1140E9493629B01AC01C701B601DB
:102080000E944B642B013C016093421470934314F3
:1020900080934414909345148090D0169090D1165C
:1020A000A090D216B090D31600914216109143160C
:1020B000F801C080D180E280F380A7019601C501BC
:1020C000B4010E94476487FD17C0A7019601609183
:1020D000D8167091D9168091DA169091DB160E946D
:1020E000476487FD09C01092DE141092DF1410922D
:1020F000E0141092E11464C08092DE149092DF1418
:10210000A092E014B092E114C090D816D090D916E5
:10211000E090DA16F090DB16A7019601C501B40134
:102120000E94F862F801208131814281538187FF4A
:1021300007C0C701B6010E94F86287FF12C006C03F
:10214000C501B4010E94476487FD0BC0C092DE1434
:10215000D092DF14E092E014F092E114ECEDF6E19D
:1021600002C0E4EDF6E1208131814281538160912A
:1021700012147091131480911414909115140E94EC
:1021800093626B017C012091DE143091DF14409149
:10219000E0145091E114F801608171818281938192
:1021A0000E9493629B01AC01C701B6010E94FC62D0
:1021B0006093DE147093DF148093E0149093E11425
:1021C0002091DE143091DF144091E0145091E1141D
:1021D00060910C0970910D0980910E0990910F0981
:1021E0000E944B649B01AC01C301B2010E94936247
:1021F0006B017C01609346147093471480934814DC
:10220000909349142091D2063091D3064091D40680
:102210005091D5060E944B64609326157093271544
:102220008093281590932915209110093091110958
:1022300040911209509113090E944B64209160163D
:102240003091611640916216509163160E9494621B
:102250002B013C0160934A1470934B1480934C14EF
:1022600090934D142091A2063091A3064091A406AC
:102270005091A506C701B6010E944B6420916416D7
:102280003091651640916616509167160E949362D0
:102290002091320730913307409134075091350730
:1022A0000E944B644B015C0160932A1570932B15BF
:1022B00080932C1590932D152091920730919307C0
:1022C0004091940750919507C701B6010E944B6455
:1022D000A30192010E949462A50194010E9494625C
:1022E0006B017C016093E2147093E3148093E41417
:1022F0009093E5148090C2079090C307A090C40704
:10230000B090C507A50194010E944764181684F097
:102310008090020790900307A0900407B0900507F3
:10232000A5019401C701B6010E94F86287FF08C0A9
:102330008092E2149092E314A092E414B092E51417
:10234000C090E214D090E314E090E414F090E5140F
:1023500020E030E0A901C701B6010E94F86287FFC2
:1023600005C080E090E0A0E8BFEB0DC020E030E0C9
:10237000A901C701B6010E94476418166CF480E0F9
:1023800090E0A0E8BFE38093DE149093DF14A09365
:10239000E014B093E1141AC020E030E0A901C701B5
:1023A000B6010E94F862811109C01092DE141092E9
:1023B000DF141092E0141092E11408C0C092DE14F1
:1023C000D092DF14E092E014F092E114C090DE1499
:1023D000D090DF14E090E014F090E1148090200998
:1023E00090902109A0902209B0902309A5019401A1
:1023F000C701B6010E944764181684F08090240932
:1024000090902509A0902609B0902709A501940174
:10241000C701B6010E94F86287FF09C08092E614E6
:102420009092E714A092E814B092E91408C0C09208
:10243000E614D092E714E092E814F092E914C09008
:10244000E614D090E714E090E814F090E91420E04E
:1024500030E040E853E4C701B6010E94F86287FF0C
:102460000EC020E030E0A901C701B6010E94476418
:1024700087FD07C0C701B6010E94696303C06FEF03
:1024800001C060E0809102080E944254C090DE14B6
:10249000D090DF14E090E014F090E114F7FAF0949B
:1024A000F7F8F094C092DE14D092DF14E092E014BA
:1024B000F092E1148090280990902909A0902A09AF
:1024C000B0902B09A5019401C701B6010E94476491
:1024D000181684F080902C0990902D09A0902E0958
:1024E000B0902F09A5019401C701B6010E94F862BE
:1024F00087FF08C08092DE149092DF14A092E0144F
:10250000B092E114C090DE14D090DF14E090E0149B
:10251000F090E11420E030E040E853E4C701B60158
:102520000E94F86287FF0EC020E030E0A901C701D9
:10253000B6010E94476487FD07C0C701B6010E942B
:10254000696303C06FEF01C060E0809106080E94DC
:102550004254C090E214D090E314E090E414F09060
:10256000E514E894F7F8C092E214D092E314E092F4
:10257000E414F092E5148090300990903109A09015
:102580003209B0903309A5019401C701B6010E9438
:102590004764181684F08090340990903509A09013
:1025A0003609B0903709A5019401C701B6010E9410
:1025B000F86287FF08C08092E2149092E314A09220
:1025C000E414B092E5142091380930913909409112
:1025D0003A0950913B096091E2147091E3148091A3
:1025E000E4149091E5140E944B646B017C016093AC
:1025F000E2147093E3148093E4149093E51420E0C4
:1026000030E040E853E40E94F86287FF0EC020E00B
:1026100030E0A901C701B6010E94476487FD07C0E9
:10262000C701B6010E94696303C06FEF01C060E09B
:1026300070E080910A080E94F152F091540B809151
:102640007D17F80FFA8380917E088F1718F4409158
:10265000390B4A8380913A16811110C08091F6138C
:102660009091F713A091F813B091F91380934E1441
:1026700090934F14A0935014B093511420E030E085
:1026800044E353E46091920670919306809194061E
:10269000909195060E944B649B01AC0160E070E054
:1026A00080E89FE30E94FC626B017C0120914E1444
:1026B00030914F1440915014509151146091F21484
:1026C0007091F3148091F4149091F5140E94936228
:1026D0009B01AC01C701B6010E944B642B013C0178
:1026E0006093521470935314809354149093551420
:1026F0008090E0169090E116A090E216B090E3165C
:102700000091421610914316F801C080D180E280FA
:10271000F380A7019601C501B4010E94476487FDBB
:1027200017C0A70196016091E8167091E916809193
:10273000EA169091EB160E94476487FD09C010923B
:10274000DE141092DF141092E0141092E11464C0B1
:102750008092DE149092DF14A092E014B092E11403
:10276000C090E816D090E916E090EA16F090EB16CB
:10277000A7019601C501B4010E94F862F801208109
:1027800031814281538187FF07C0C701B6010E9492
:10279000F86287FF12C006C0C501B4010E944764F9
:1027A00087FD0BC0C092DE14D092DF14E092E014DB
:1027B000F092E114ECEEF6E102C0E4EEF6E12081E5
:1027C0003181428153816091F6137091F7138091AA
:1027D000F8139091F9130E9493626B017C01209190
:1027E000DE143091DF144091E0145091E114F801AF
:1027F00060817181828193810E9493629B01AC010F
:10280000C701B6010E94FC626093DE147093DF146E
:102810008093E0149093E1142091DE143091DF1442
:102820004091E0145091E11460913C0970913D0990
:1028300080913E0990913F090E944B649B01AC013D
:10284000C301B2010E9493626B017C016093561434
:102850007093571480935814909359142091D6066E
:102860003091D7064091D8065091D9060E944B640A
:1028700060932E1570932F1580933015909331151A
:1028800020914009309141094091420950914309FA
:102890000E944B64209168163091691640916A1627
:1028A00050916B160E9494622B013C0160935A1464
:1028B00070935B1480935C1490935D142091A60632
:1028C0003091A7064091A8065091A906C701B6010C
:1028D0000E944B6420916C1630916D1640916E16DB
:1028E00050916F160E9493622091360730913707FE
:1028F00040913807509139070E944B644B015C01AD
:102900006093321570933315809334159093351579
:102910002091960730919707409198075091990719
:10292000C701B6010E944B64A30192010E94946208
:10293000A50194010E9494626B017C016093E214F2
:102940007093E3148093E4149093E5148090C60789
:102950009090C707A090C807B090C907A50194013F
:102960000E944764181684F080900607909007072D
:10297000A0900807B0900907A5019401C701B6010E
:102980000E94F86287FF08C08092E2149092E314DC
:10299000A092E414B092E514C090E214D090E31435
:1029A000E090E414F090E51420E030E0A901C701C4
:1029B000B6010E94F86287FF05C080E090E0A0E8C1
:1029C000BFEB0DC020E030E0A901C701B6010E94B5
:1029D000476418166CF480E090E0A0E8BFE38093B1
:1029E000DE149093DF14A093E014B093E1141AC0A6
:1029F00020E030E0A901C701B6010E94F862811110
:102A000009C01092DE141092DF141092E01410929C
:102A1000E11408C0C092DE14D092DF14E092E014FA
:102A2000F092E114C090DE14D090DF14E090E01436
:102A3000F090E1148090500990905109A0905209B3
:102A4000B0905309A5019401C701B6010E944764E3
:102A5000181684F08090540990905509A09056095A
:102A6000B0905709A5019401C701B6010E94F86210
:102A700087FF09C08092E6149092E714A092E814B0
:102A8000B092E91408C0C092E614D092E714E09224
:102A9000E814F092E914C090E614D090E714E090A6
:102AA000E814F090E91420E030E040E853E4C70176
:102AB000B6010E94F86287FF0EC020E030E0A90155
:102AC000C701B6010E94476487FD07C0C701B60170
:102AD0000E94696303C06FEF01C060E080910E083F
:102AE0000E944254C090DE14D090DF14E090E014B5
:102AF000F090E114F7FAF094F7F8F094C092DE1435
:102B0000D092DF14E092E014F092E1148090580922
:102B100090905909A0905A09B0905B09A5019401C1
:102B2000C701B6010E944764181684F080905C09C2
:102B300090905D09A0905E09B0905F09A501940195
:102B4000C701B6010E94F86287FF08C08092DE14B8
:102B50009092DF14A092E014B092E114C090DE14C1
:102B6000D090DF14E090E014F090E11420E030E029
:102B700040E853E4C701B6010E94F86287FF0EC027
:102B800020E030E0A901C701B6010E94476487FD3B
:102B900007C0C701B6010E94696303C06FEF01C09F
:102BA00060E0809112080E944254C090E214D090DC
:102BB000E314E090E414F090E514E894F7F8C09280
:102BC000E214D092E314E092E414F092E5148090C1
:102BD000600990906109A0906209B0906309A50115
:102BE0009401C701B6010E944764181684F08090D2
:102BF000640990906509A0906609B0906709A501E5
:102C00009401C701B6010E94F86287FF08C0809254
:102C1000E2149092E314A092E414B092E51420918F
:102C200068093091690940916A0950916B09609176
:102C3000E2147091E3148091E4149091E5140E94E1
:102C40004B646B017C016093E2147093E3148093F6
:102C5000E4149093E51420E030E040E853E40E944F
:102C6000F86287FF0EC020E030E0A901C701B6017D
:102C70000E94476487FD07C0C701B6010E946963CF
:102C800003C06FEF01C060E070E0809116080E9401
:102C9000F152F091550B80917617F80FFB838091DC
:102CA0007F088F1718F440913A0B4B8380913A16A6
:102CB000811110C08091FA139091FB13A091FC1325
:102CC000B091FD1380935E1490935F14A0936014F1
:102CD000B093611420E030E044E353E46091920645
:102CE0007091930680919406909195060E944B6492
:102CF0009B01AC0160E070E080E89FE30E94FC6211
:102D00006B017C0120915E1430915F14409160143E
:102D1000509161146091F6147091F7148091F81439
:102D20009091F9140E9493629B01AC01C701B60116
:102D30000E944B642B013C016093621470936314F6
:102D400080936414909365148090F0169090F1161F
:102D5000A090F216B090F31600914216109143160F
:102D6000F801C080D180E280F380A7019601C501FF
:102D7000B4010E94476487FD17C0A70196016091C6
:102D8000F8167091F9168091FA169091FB160E9430
:102D9000476487FD09C01092DE141092DF14109270
:102DA000E0141092E11464C08092DE149092DF145B
:102DB000A092E014B092E114C090F816D090F916E9
:102DC000E090FA16F090FB16A7019601C501B40138
:102DD0000E94F862F801208131814281538187FF8E
:102DE00007C0C701B6010E94F86287FF12C006C083
:102DF000C501B4010E94476487FD0BC0C092DE1478
:102E0000D092DF14E092E014F092E114ECEFF6E1DE
:102E100002C0E4EFF6E1208131814281538160916B
:102E2000FA137091FB138091FC139091FD130E9493
:102E300093626B017C012091DE143091DF1440918C
:102E4000E0145091E114F8016081718182819381D5
:102E50000E9493629B01AC01C701B6010E94FC6213
:102E60006093DE147093DF148093E0149093E11468
:102E70002091DE143091DF144091E0145091E11460
:102E800060916C0970916D0980916E0990916F0944
:102E90000E944B649B01AC01C301B2010E9493628A
:102EA0006B017C01609366147093671480936814BF
:102EB000909369142091DA063091DB064091DC068C
:102EC0005091DD060E944B64609336157093371560
:102ED00080933815909339152091700930917109BC
:102EE00040917209509173090E944B6420917016B1
:102EF0003091711640917216509173160E9494622F
:102F00002B013C0160936A1470936B1480936C14D2
:102F100090936D142091AA063091AB064091AC06B7
:102F20005091AD06C701B6010E944B642091741602
:102F30003091751640917616509177160E949362E3
:102F400020913A0730913B0740913C0750913D0753
:102F50000E944B644B015C0160933A1570933B15E2
:102F600080933C1590933D1520919A0730919B07D3
:102F700040919C0750919D07C701B6010E944B6488
:102F8000A30192010E949462A50194010E9494629F
:102F90006B017C016093E2147093E3148093E4145A
:102FA0009093E5148090CA079090CB07A090CC072F
:102FB000B090CD07A50194010E944764181684F0D3
:102FC00080900A0790900B07A0900C07B0900D0717
:102FD000A5019401C701B6010E94F86287FF08C0ED
:102FE0008092E2149092E314A092E414B092E5145B
:102FF000C090E214D090E314E090E414F090E51453
:1030000020E030E0A901C701B6010E94F86287FF05
:1030100005C080E090E0A0E8BFEB0DC020E030E00C
:10302000A901C701B6010E94476418166CF480E03C
:1030300090E0A0E8BFE38093DE149093DF14A093A8
:10304000E014B093E1141AC020E030E0A901C701F8
:10305000B6010E94F862811109C01092DE1410922C
:10306000DF141092E0141092E11408C0C092DE1434
:10307000D092DF14E092E014F092E114C090DE14DC
:10308000D090DF14E090E014F090E114809080097B
:1030900090908109A0908209B0908309A5019401C4
:1030A000C701B6010E944764181684F08090840915
:1030B00090908509A0908609B0908709A501940198
:1030C000C701B6010E94F86287FF09C08092E6142A
:1030D0009092E714A092E814B092E91408C0C0924C
:1030E000E614D092E714E092E814F092E914C0904C
:1030F000E614D090E714E090E814F090E91420E092
:1031000030E040E853E4C701B6010E94F86287FF4F
:103110000EC020E030E0A901C701B6010E9447645B
:1031200087FD07C0C701B6010E94696303C06FEF46
:1031300001C060E080911A080E944254C090DE14E1
:10314000D090DF14E090E014F090E114F7FAF094DE
:10315000F7F8F094C092DE14D092DF14E092E014FD
:10316000F092E1148090880990908909A0908A09D2
:10317000B0908B09A5019401C701B6010E94476474
:10318000181684F080908C0990908D09A0908E097B
:10319000B0908F09A5019401C701B6010E94F862A1
:1031A00087FF08C08092DE149092DF14A092E01492
:1031B000B092E114C090DE14D090DF14E090E014DF
:1031C000F090E11420E030E040E853E4C701B6019C
:1031D0000E94F86287FF0EC020E030E0A901C7011D
:1031E000B6010E94476487FD07C0C701B6010E946F
:1031F000696303C06FEF01C060E080911E080E9408
:103200004254C090E214D090E314E090E414F090A3
:10321000E514E894F7F8C092E214D092E314E09237
:10322000E414F092E5148090900990909109A09098
:103230009209B0909309A5019401C701B6010E94BB
:103240004764181684F08090940990909509A09096
:103250009609B0909709A5019401C701B6010E9493
:10326000F86287FF08C08092E2149092E314A09263
:10327000E414B092E5142091980930919909409195
:103280009A0950919B096091E2147091E314809126
:10329000E4149091E5140E944B646B017C016093EF
:1032A000E2147093E3148093E4149093E51420E007
:1032B00030E040E853E40E94F86287FF0EC020E04F
:1032C00030E0A901C701B6010E94476487FD07C02D
:1032D000C701B6010E94696303C06FEF01C060E0DF
:1032E00070E0809122080E94F152F091560B80917B
:1032F0007717F80FFC83809180088F1718F440919E
:103300003B0B4C8380913A16811110C08091FE13C3
:103310009091FF13A0910014B091011480936E144A
:1033200090936F14A0937014B093711420E030E068
:1033300044E353E460919206709193068091940661
:10334000909195060E944B649B01AC0160E070E097
:1033500080E89FE30E94FC626B017C0120916E1467
:1033600030916F1440917014509171146091FA145F
:103370007091FB148091FC149091FD140E94936253
:103380009B01AC01C701B6010E944B642B013C01BB
:1033900060937214709373148093741490937514E3
:1033A0008090001790900117A0900217B09003171B
:1033B0000091421610914316F801C080D180E2803E
:1033C000F380A7019601C501B4010E94476487FDFF
:1033D00017C0A70196016091081770910917809195
:1033E0000A1790910B170E94476487FD09C010923D
:1033F000DE141092DF141092E0141092E11464C0F5
:103400008092DE149092DF14A092E014B092E11446
:10341000C0900817D0900917E0900A17F0900B178A
:10342000A7019601C501B4010E94F862F80120814C
:1034300031814281538187FF07C0C701B6010E94D5
:10344000F86287FF12C006C0C501B4010E9447643C
:1034500087FD0BC0C092DE14D092DF14E092E0141E
:10346000F092E114ECE0F7E102C0E4E0F7E1208142
:103470003181428153816091FE137091FF138091DD
:103480000014909101140E9493626B017C012091C1
:10349000DE143091DF144091E0145091E114F801F2
:1034A00060817181828193810E9493629B01AC0152
:1034B000C701B6010E94FC626093DE147093DF14B2
:1034C0008093E0149093E1142091DE143091DF1486
:1034D0004091E0145091E11460919C0970919D0914
:1034E00080919E0990919F090E944B649B01AC01C1
:1034F000C301B2010E9493626B017C016093761458
:103500007093771480937814909379142091DE0649
:103510003091DF064091E0065091E1060E944B6435
:1035200060933E1570933F1580934015909341151D
:103530002091A0093091A1094091A2095091A309BD
:103540000E944B64209178163091791640917A163A
:1035500050917B160E9494622B013C0160937A1477
:1035600070937B1480937C1490937D142091AE060D
:103570003091AF064091B0065091B106C701B60137
:103580000E944B6420917C1630917D1640917E16EE
:1035900050917F160E94936220913E0730913F0721
:1035A00040914007509141070E944B644B015C01E0
:1035B000609342157093431580934415909345157D
:1035C00020919E0730919F074091A0075091A1073D
:1035D000C701B6010E944B64A30192010E9494624C
:1035E000A50194010E9494626B017C016093E21436
:1035F0007093E3148093E4149093E5148090CE07C5
:103600009090CF07A090D007B090D107A50194016A
:103610000E944764181684F080900E0790900F0760
:10362000A0901007B0901107A5019401C701B60141
:103630000E94F86287FF08C08092E2149092E3141F
:10364000A092E414B092E514C090E214D090E31478
:10365000E090E414F090E51420E030E0A901C70107
:10366000B6010E94F86287FF05C080E090E0A0E804
:10367000BFEB0DC020E030E0A901C701B6010E94F8
:10368000476418166CF480E090E0A0E8BFE38093F4
:10369000DE149093DF14A093E014B093E1141AC0E9
:1036A00020E030E0A901C701B6010E94F862811153
:1036B00009C01092DE141092DF141092E0141092E0
:1036C000E11408C0C092DE14D092DF14E092E0143E
:1036D000F092E114C090DE14D090DF14E090E0147A
:1036E000F090E1148090B0099090B109A090B209D7
:1036F000B090B309A5019401C701B6010E944764C7
:10370000181684F08090B4099090B509A090B6097D
:10371000B090B709A5019401C701B6010E94F862F3
:1037200087FF09C08092E6149092E714A092E814F3
:10373000B092E91408C0C092E614D092E714E09267
:10374000E814F092E914C090E614D090E714E090E9
:10375000E814F090E91420E030E040E853E4C701B9
:10376000B6010E94F86287FF0EC020E030E0A90198
:10377000C701B6010E94476487FD07C0C701B601B3
:103780000E94696303C06FEF01C060E0809126086A
:103790000E944254C090DE14D090DF14E090E014F8
:1037A000F090E114F7FAF094F7F8F094C092DE1478
:1037B000D092DF14E092E014F092E1148090B80906
:1037C0009090B909A090BA09B090BB09A5019401E5
:1037D000C701B6010E944764181684F08090BC09A6
:1037E0009090BD09A090BE09B090BF09A5019401B9
:1037F000C701B6010E94F86287FF08C08092DE14FC
:103800009092DF14A092E014B092E114C090DE1404
:10381000D090DF14E090E014F090E11420E030E06C
:1038200040E853E4C701B6010E94F86287FF0EC06A
:1038300020E030E0A901C701B6010E94476487FD7E
:1038400007C0C701B6010E94696303C06FEF01C0E2
:1038500060E080912A080E944254C090E214D09007
:10386000E314E090E414F090E514E894F7F8C092C3
:10387000E214D092E314E092E414F092E514809004
:10388000C0099090C109A090C209B090C309A501D8
:103890009401C701B6010E944764181684F0809015
:1038A000C4099090C509A090C609B090C709A501A8
:1038B0009401C701B6010E94F86287FF08C0809298
:1038C000E2149092E314A092E414B092E5142091D3
:1038D000C8093091C9094091CA095091CB0960913A
:1038E000E2147091E3148091E4149091E5140E9425
:1038F0004B646B017C016093E2147093E31480933A
:10390000E4149093E51420E030E040E853E40E9492
:10391000F86287FF0EC020E030E0A901C701B601C0
:103920000E94476487FD07C0C701B6010E94696312
:1039300003C06FEF01C060E070E080912E080E942C
:10394000F152F091570B80917817F80FFD83809119
:1039500081088F1718F440913C0B4D8380913A16E3
:10396000811110C08091161490911714A091181411
:10397000B091191480937E1490937F14A0938014B7
:10398000B093811420E030E044E353E46091920668
:103990007091930680919406909195060E944B64D5
:1039A0009B01AC0160E070E080E89FE30E94FC6254
:1039B0006B017C0120E030E044E353E46091FE14AD
:1039C0007091FF1480910015909101150E949462EE
:1039D00020917E1430917F14409180145091811475
:1039E0000E9493629B01AC01C701B6010E944B6427
:1039F0002B013C0160938214709383148093841490
:103A0000909385148090101790901117A090121722
:103A1000B09013170091421610914316F801C08020
:103A2000D180E280F380A7019601C501B4010E9414
:103A3000476487FD17C0A701960160911817709120
:103A4000191780911A1790911B170E94476487FDE0
:103A500009C01092DE141092DF141092E01410923C
:103A6000E11464C08092DE149092DF14A092E014FE
:103A7000B092E114C0901817D0901917E0901A175F
:103A8000F0901B17A7019601C501B4010E94F862CE
:103A9000F801208131814281538187FF07C0C7012E
:103AA000B6010E94F86287FF12C006C0C501B401CA
:103AB0000E94476487FD0BC0C092DE14D092DF14D1
:103AC000E092E014F092E114ECE1F7E102C0E4E1ED
:103AD000F7E1208131814281538160911614709108
:103AE000171480911814909119140E9493626B011D
:103AF0007C012091DE143091DF144091E01450914C
:103B0000E114F80160817181828193810E94936246
:103B10009B01AC01C701B6010E94FC626093DE14F8
:103B20007093DF148093E0149093E1142091DE14DD
:103B30003091DF144091E0145091E1146091CC0970
:103B40007091CD098091CE099091CF090E944B646C
:103B50009B01AC01C301B2010E9493626B017C0125
:103B600060938614709387148093881490938914BB
:103B70002091E2063091E3064091E4065091E5067B
:103B80000E944B64609346157093471580934815C7
:103B9000909349152091D0093091D1094091D209D3
:103BA0005091D3090E944B64209180163091811668
:103BB00040918216509183160E9494622B013C0121
:103BC00060938A1470938B1480938C1490938D144B
:103BD0002091B2063091B3064091B4065091B506DB
:103BE000C701B6010E944B6420918416309185165E
:103BF00040918616509187160E9493622091420749
:103C00003091430740914407509145070E944B640F
:103C10004B015C0160934A1570934B1580934C15D2
:103C200090934D152091A2073091A3074091A407CE
:103C30005091A507C701B6010E944B64A3019201F0
:103C40000E949462A50194010E9494626B017C0120
:103C50006093E2147093E3148093E4149093E5145A
:103C60008090D2079090D307A090D407B090D5074A
:103C7000A50194010E944764181684F080901207F1
:103C800090901307A0901407B0901507A501940118
:103C9000C701B6010E94F86287FF08C08092E21453
:103CA0009092E314A092E414B092E514C090E21450
:103CB000D090E314E090E414F090E51420E030E0BC
:103CC000A901C701B6010E94F86287FF05C080E024
:103CD00090E0A0E8BFEB0DC020E030E0A901C701F3
:103CE000B6010E94476418166CF480E090E0A0E8EA
:103CF000BFE38093DE149093DF14A093E014B0939D
:103D0000E1141AC020E030E0A901C701B6010E9409
:103D1000F862811109C01092DE141092DF14109223
:103D2000E0141092E11408C0C092DE14D092DF14A7
:103D3000E092E014F092E114C090DE14D090DF1411
:103D4000E090E014F090E1148090E0099090E10997
:103D5000A090E209B090E309A5019401C701B60162
:103D60000E944764181684F08090E4099090E50959
:103D7000A090E609B090E709A5019401C701B6013A
:103D80000E94F86287FF09C08092E6149092E714BF
:103D9000A092E814B092E91408C0C092E614D09240
:103DA000E714E092E814F092E914C090E614D09081
:103DB000E714E090E814F090E91420E030E040E8E7
:103DC00053E4C701B6010E94F86287FF0EC020E0ED
:103DD00030E0A901C701B6010E94476487FD07C012
:103DE000C701B6010E94696303C06FEF01C060E0C4
:103DF000809132080E944254C090DE14D090DF14AB
:103E0000E090E014F090E114F7FAF094F7F8F094F1
:103E1000C092DE14D092DF14E092E014F092E1142C
:103E20008090E8099090E909A090EA09B090EB0928
:103E3000A5019401C701B6010E944764181684F0D9
:103E40008090EC099090ED09A090EE09B090EF09F8
:103E5000A5019401C701B6010E94F86287FF08C05E
:103E60008092DE149092DF14A092E014B092E114DC
:103E7000C090DE14D090DF14E090E014F090E114D4
:103E800020E030E040E853E4C701B6010E94F86248
:103E900087FF0EC020E030E0A901C701B6010E94F3
:103EA000476487FD07C0C701B6010E94696303C06C
:103EB0006FEF01C060E0809136080E944254C090CC
:103EC000E214D090E314E090E414F090E514E89448
:103ED000F7F8C092E214D092E314E092E414F09266
:103EE000E5148090F0099090F109A090F209B0904B
:103EF000F309A5019401C701B6010E944764181691
:103F000084F08090F4099090F509A090F609B090A3
:103F1000F709A5019401C701B6010E94F86287FF65
:103F200008C08092E2149092E314A092E414B0923C
:103F3000E5142091F8093091F9094091FA0950915E
:103F4000FB096091E2147091E3148091E414909164
:103F5000E5140E944B646B017C016093E214709342
:103F6000E3148093E4149093E51420E030E040E8FB
:103F700053E40E94F86287FF0EC020E030E0A90100
:103F8000C701B6010E94476487FD07C0C701B6019B
:103F90000E94696303C06FEF01C060E070E0809130
:103FA0003A080E94F152F091580B80917E17F80F59
:103FB000FE83809182088F1718F440913D0B4E8349
:103FC00080913A16811110C080911A1490911B149F
:103FD000A0911C14B0911D1480938E1490938F1493
:103FE000A0939014B093911420E030E044E353E4A4
:103FF0006091920670919306809194069091950637
:104000000E944B649B01AC0160E070E080E89FE39C
:104010000E94FC626B017C0120918E1430918F1400
:104020004091901450919114609102157091031574
:1040300080910415909105150E9493629B01AC013B
:10404000C701B6010E944B642B013C01609392149E
:1040500070939314809394149093951480902017E8
:1040600090902117A0902217B0902317009142162C
:1040700010914316F801C080D180E280F380A7013F
:104080009601C501B4010E94476487FD17C0A701CE
:104090009601609128177091291780912A179091A5
:1040A0002B170E94476487FD09C01092DE141092FE
:1040B000DF141092E0141092E11464C08092DE14B8
:1040C0009092DF14A092E014B092E114C0902817EF
:1040D000D0902917E0902A17F0902B17A70196018E
:1040E000C501B4010E94F862F8012081318142814A
:1040F000538187FF07C0C701B6010E94F86287FF9E
:1041000012C006C0C501B4010E94476487FD0BC000
:10411000C092DE14D092DF14E092E014F092E11429
:10412000ECE2F7E102C0E4E2F7E120813181428173
:10413000538160911A1470911B1480911C149091FA
:104140001D140E9493626B017C012091DE1430915A
:10415000DF144091E0145091E114F8016081718105
:10416000828193810E9493629B01AC01C701B601D9
:104170000E94FC626093DE147093DF148093E0145D
:104180009093E1142091DE143091DF144091E014FB
:104190005091E1146091FC097091FD098091FE0934
:1041A0009091FF090E944B649B01AC01C301B201D5
:1041B0000E9493626B017C01609396147093971434
:1041C00080939814909399142091E6063091E70615
:1041D0004091E8065091E9060E944B6460934E15A9
:1041E00070934F1580935015909351152091000AAC
:1041F0003091010A4091020A5091030A0E944B64D7
:10420000209188163091891640918A1650918B160C
:104210000E9494622B013C0160939A1470939B144A
:1042200080939C1490939D142091B6063091B7060C
:104230004091B8065091B906C701B6010E944B647F
:1042400020918C1630918D1640918E1650918F16BC
:104250000E9493622091460730914707409148079A
:10426000509149070E944B644B015C0160935215C9
:104270007093531580935415909355152091A6076C
:104280003091A7074091A8075091A907C701B6012F
:104290000E944B64A30192010E949462A5019401C3
:1042A0000E9494626B017C016093E2147093E314AA
:1042B0008093E4149093E5148090D6079090D707EC
:1042C000A090D807B090D907A50194010E94476437
:1042D000181684F08090160790901707A090180782
:1042E000B0901907A5019401C701B6010E94F862B8
:1042F00087FF08C08092E2149092E314A092E41425
:10430000B092E514C090E214D090E314E090E4146D
:10431000F090E51420E030E0A901C701B6010E9449
:10432000F86287FF05C080E090E0A0E8BFEB0DC019
:1043300020E030E0A901C701B6010E9447641816C9
:104340006CF480E090E0A0E8BFE38093DE149093EB
:10435000DF14A093E014B093E1141AC020E030E021
:10436000A901C701B6010E94F862811109C010922B
:10437000DE141092DF141092E0141092E11408C0C1
:10438000C092DE14D092DF14E092E014F092E114B7
:10439000C090DE14D090DF14E090E014F090E114AF
:1043A0008090100A9090110AA090120AB090130AFF
:1043B000A5019401C701B6010E944764181684F054
:1043C0008090140A9090150AA090160AB090170ACF
:1043D000A5019401C701B6010E94F86287FF09C0D8
:1043E0008092E6149092E714A092E814B092E91437
:1043F00008C0C092E614D092E714E092E814F0925C
:10440000E914C090E614D090E714E090E814F0901E
:10441000E91420E030E040E853E4C701B6010E940F
:10442000F86287FF0EC020E030E0A901C701B601A5
:104430000E94476487FD07C0C701B6010E946963F7
:1044400003C06FEF01C060E080913E080E944254BB
:10445000C090DE14D090DF14E090E014F090E114EE
:10446000F7FAF094F7F8F094C092DE14D092DF14CB
:10447000E092E014F092E1148090180A9090190AEA
:10448000A0901A0AB0901B0AA5019401C701B601B9
:104490000E944764181684F080901C0A90901D0AB0
:1044A000A0901E0AB0901F0AA5019401C701B60191
:1044B0000E94F86287FF08C08092DE149092DF1499
:1044C000A092E014B092E114C090DE14D090DF14FA
:1044D000E090E014F090E11420E030E040E853E494
:1044E000C701B6010E94F86287FF0EC020E030E0ED
:1044F000A901C701B6010E94476487FD07C0C70133
:10450000B6010E94696303C06FEF01C060E0809153
:1045100042080E944254C090E214D090E314E0900C
:10452000E414F090E514E894F7F8C092E214D09205
:10453000E314E092E414F092E5148090200A909045
:10454000210AA090220AB090230AA5019401C70174
:10455000B6010E944764181684F08090240A909057
:10456000250AA090260AB090270AA5019401C70148
:10457000B6010E94F86287FF08C08092E214909210
:10458000E314A092E414B092E5142091280A30912B
:10459000290A40912A0A50912B0A6091E2147091E5
:1045A000E3148091E4149091E5140E944B646B0134
:1045B0007C016093E2147093E3148093E41490936D
:1045C000E51420E030E040E853E40E94F86287FF01
:1045D0000EC020E030E0A901C701B6010E94476487
:1045E00087FD07C0C701B6010E94696303C06FEF72
:1045F00001C060E070E0809146080E94F152F091A5
:10460000590B80917F17F80FFF83809183088F17D4
:1046100018F440913E0B4F8380913A16811110C0DF
:104620008091F2139091F313A091F413B091F513CC
:1046300080939E1490939F14A093A014B093A11400
:1046400020E030E044E353E46091920670919306D9
:1046500080919406909195060E944B649B01AC0159
:1046600060E070E080E89FE30E94FC626B017C01E7
:1046700020919E1430919F144091A0145091A11448
:104680006091061570910715809108159091091594
:104690000E9493629B01AC01C701B6010E944B646A
:1046A0002B013C016093A2147093A3148093A41473
:1046B0009093A5148090301790903117A0903217E6
:1046C000B09033170091421610914316F801C08044
:1046D000D180E280F380A7019601C501B4010E9458
:1046E000476487FD17C0A701960160913817709144
:1046F000391780913A1790913B170E94476487FDC4
:1047000009C01092DE141092DF141092E01410927F
:10471000E11464C08092DE149092DF14A092E01441
:10472000B092E114C0903817D0903917E0903A1742
:10473000F0903B17A7019601C501B4010E94F862F1
:10474000F801208131814281538187FF07C0C70171
:10475000B6010E94F86287FF12C006C0C501B4010D
:104760000E94476487FD0BC0C092DE14D092DF1414
:10477000E092E014F092E114ECE3F7E102C0E4E32C
:10478000F7E120813181428153816091F213709170
:10479000F3138091F4139091F5130E9493626B01CF
:1047A0007C012091DE143091DF144091E01450918F
:1047B000E114F80160817181828193810E9493628A
:1047C0009B01AC01C701B6010E94FC626093DE143C
:1047D0007093DF148093E0149093E1142091DE1421
:1047E0003091DF144091E0145091E11460912C0A53
:1047F00070912D0A80912E0A90912F0A0E944B648D
:104800009B01AC01C301B2010E9493626B017C0168
:104810006093A6147093A7148093A8149093A9147E
:104820002091EA063091EB064091EC065091ED069E
:104830000E944B64609356157093571580935815DA
:10484000909359152091300A3091310A4091320AE3
:104850005091330A0E944B6420919016309191162A
:1048600040919216509193160E9494622B013C0144
:104870006093AA147093AB148093AC149093AD140E
:104880002091BA063091BB064091BC065091BD06FE
:10489000C701B6010E944B64209194163091951681
:1048A00040919616509197160E94936220914A0764
:1048B00030914B0740914C0750914D070E944B643B
:1048C0004B015C0160935A1570935B1580935C15E6
:1048D00090935D152091AA073091AB074091AC07EA
:1048E0005091AD07C701B6010E944B64A30192012C
:1048F0000E949462A50194010E9494626B017C0164
:104900006093E2147093E3148093E4149093E5149D
:104910008090DA079090DB07A090DC07B090DD076D
:10492000A50194010E944764181684F080901A072C
:1049300090901B07A0901C07B0901D07A501940143
:10494000C701B6010E94F86287FF08C08092E21496
:104950009092E314A092E414B092E514C090E21493
:10496000D090E314E090E414F090E51420E030E0FF
:10497000A901C701B6010E94F86287FF05C080E067
:1049800090E0A0E8BFEB0DC020E030E0A901C70136
:10499000B6010E94476418166CF480E090E0A0E82D
:1049A000BFE38093DE149093DF14A093E014B093E0
:1049B000E1141AC020E030E0A901C701B6010E944D
:1049C000F862811109C01092DE141092DF14109267
:1049D000E0141092E11408C0C092DE14D092DF14EB
:1049E000E092E014F092E114C090DE14D090DF1455
:1049F000E090E014F090E1148090400A9090410A19
:104A0000A090420AB090430AA5019401C701B601E3
:104A10000E944764181684F08090440A9090450ADA
:104A2000A090460AB090470AA5019401C701B601BB
:104A30000E94F86287FF09C08092E6149092E71402
:104A4000A092E814B092E91408C0C092E614D09283
:104A5000E714E092E814F092E914C090E614D090C4
:104A6000E714E090E814F090E91420E030E040E82A
:104A700053E4C701B6010E94F86287FF0EC020E030
:104A800030E0A901C701B6010E94476487FD07C055
:104A9000C701B6010E94696303C06FEF01C060E007
:104AA00080914A080E944254C090DE14D090DF14D6
:104AB000E090E014F090E114F7FAF094F7F8F09435
:104AC000C092DE14D092DF14E092E014F092E11470
:104AD0008090480A9090490AA0904A0AB0904B0AE8
:104AE000A5019401C701B6010E944764181684F01D
:104AF00080904C0A90904D0AA0904E0AB0904F0AB8
:104B0000A5019401C701B6010E94F86287FF08C0A1
:104B10008092DE149092DF14A092E014B092E1141F
:104B2000C090DE14D090DF14E090E014F090E11417
:104B300020E030E040E853E4C701B6010E94F8628B
:104B400087FF0EC020E030E0A901C701B6010E9436
:104B5000476487FD07C0C701B6010E94696303C0AF
:104B60006FEF01C060E080914E080E944254C090F7
:104B7000E214D090E314E090E414F090E514E8948B
:104B8000F7F8C092E214D092E314E092E414F092A9
:104B9000E5148090500A9090510AA090520AB0906B
:104BA000530AA5019401C701B6010E944764181673
:104BB00084F08090540A9090550AA090560AB090C4
:104BC000570AA5019401C701B6010E94F86287FF48
:104BD00008C08092E2149092E314A092E414B09280
:104BE000E5142091580A3091590A40915A0A50917F
:104BF0005B0A6091E2147091E3148091E414909147
:104C0000E5140E944B646B017C016093E214709385
:104C1000E3148093E4149093E51420E030E040E83E
:104C200053E40E94F86287FF0EC020E030E0A90143
:104C3000C701B6010E94476487FD07C0C701B601DE
:104C40000E94696303C06FEF01C060E070E0809173
:104C500052080E94F15230905A0B80917517380E0D
:104C600080918408831510F430903F0B80913A16A0
:104C7000811110C08091021490910314A09104142A
:104C8000B09105148093AE149093AF14A093B01418
:104C9000B093B11420E030E044E353E46091920615
:104CA0007091930680919406909195060E944B64B2
:104CB0009B01AC0160E070E080E89FE30E94FC6231
:104CC0006B017C012091AE143091AF144091B0146F
:104CD0005091B11460910A1570910B1580910C15CB
:104CE00090910D150E9493629B01AC01C701B60122
:104CF0000E944B642B013C016093B2147093B31477
:104D00008093B4149093B5148090401790904117FD
:104D1000A0904217B090431700914216109143168D
:104D2000F801C080D180E280F380A7019601C5011F
:104D3000B4010E94476487FD17C0A70196016091E6
:104D400048177091491780914A1790914B170E940C
:104D5000476487FD09C01092DE141092DF14109290
:104D6000E0141092E11464C08092DE149092DF147B
:104D7000A092E014B092E114C0904817D090491767
:104D8000E0904A17F0904B17A7019601C501B401B6
:104D90000E94F862F801208131814281538187FFAE
:104DA00007C0C701B6010E94F86287FF12C006C0A3
:104DB000C501B4010E94476487FD0BC0C092DE1498
:104DC000D092DF14E092E014F092E114ECE4F7E109
:104DD00002C0E4E4F7E12081318142815381609196
:104DE00002147091031480910414909105140E9490
:104DF00093626B017C012091DE143091DF144091AD
:104E0000E0145091E114F8016081718182819381F5
:104E10000E9493629B01AC01C701B6010E94FC6233
:104E20006093DE147093DF148093E0149093E11488
:104E30002091DE143091DF144091E0145091E11480
:104E400060915C0A70915D0A80915E0A90915F0AA0
:104E50000E944B649B01AC01C301B2010E949362AA
:104E60006B017C016093B6147093B7148093B814EF
:104E70009093B9142091EE063091EF064091F00620
:104E80005091F1060E944B6460935E1570935F151C
:104E900080936015909361152091600A3091610AAA
:104EA0004091620A5091630A0E944B6420919816C7
:104EB0003091991640919A1650919B160E949462D7
:104EC0002B013C016093BA147093BB148093BC1403
:104ED0009093BD142091BE063091BF064091C0064C
:104EE0005091C106C701B6010E944B6420919C16E7
:104EF00030919D1640919E1650919F160E9493628C
:104F000020914E0730914F07409150075091510723
:104F10000E944B644B015C016093621570936315B2
:104F200080936415909365152091AE073091AF077B
:104F30004091B0075091B107C701B6010E944B6480
:104F4000A30192010E949462A50194010E949462BF
:104F50006B017C016093E2147093E3148093E4147A
:104F60009093E5148090DE079090DF07A090E00713
:104F7000B090E107A50194010E944764181684F0DF
:104F800080901E0790901F07A0902007B0902107E7
:104F9000A5019401C701B6010E94F86287FF08C00D
:104FA0008092E2149092E314A092E414B092E5147B
:104FB000C090E214D090E314E090E414F090E51473
:104FC00020E030E0A901C701B6010E94F86287FF26
:104FD00005C080E090E0A0E8BFEB0DC020E030E02D
:104FE000A901C701B6010E94476418166CF480E05D
:104FF00090E0A0E8BFE38093DE149093DF14A093C9
:10500000E014B093E1141AC020E030E0A901C70118
:10501000B6010E94F862811109C01092DE1410924C
:10502000DF141092E0141092E11408C0C092DE1454
:10503000D092DF14E092E014F092E114C090DE14FC
:10504000D090DF14E090E014F090E1148090700AAA
:105050009090710AA090720AB090730AA501940111
:10506000C701B6010E944764181684F08090740A44
:105070009090750AA090760AB090770AA5019401E5
:10508000C701B6010E94F86287FF09C08092E6144A
:105090009092E714A092E814B092E91408C0C0926C
:1050A000E614D092E714E092E814F092E914C0906C
:1050B000E614D090E714E090E814F090E91420E0B2
:1050C00030E040E853E4C701B6010E94F86287FF70
:1050D0000EC020E030E0A901C701B6010E9447647C
:1050E00087FD07C0C701B6010E94696303C06FEF67
:1050F00001C060E0809156080E944254C090DE14C6
:10510000D090DF14E090E014F090E114F7FAF094FE
:10511000F7F8F094C092DE14D092DF14E092E0141D
:10512000F092E1148090780A9090790AA0907A0A1F
:10513000B0907B0AA5019401C701B6010E944764A3
:10514000181684F080907C0A90907D0AA0907E0AC8
:10515000B0907F0AA5019401C701B6010E94F862D0
:1051600087FF08C08092DE149092DF14A092E014B2
:10517000B092E114C090DE14D090DF14E090E014FF
:10518000F090E11420E030E040E853E4C701B601BC
:105190000E94F86287FF0EC020E030E0A901C7013D
:1051A000B6010E94476487FD07C0C701B6010E948F
:1051B000696303C06FEF01C060E080915A080E94EC
:1051C0004254C090E214D090E314E090E414F090C4
:1051D000E514E894F7F8C092E214D092E314E09258
:1051E000E414F092E5148090800A9090810AA090D7
:1051F000820AB090830AA5019401C701B6010E94FA
:105200004764181684F08090840A9090850AA090D4
:10521000860AB090870AA5019401C701B6010E94D1
:10522000F86287FF08C08092E2149092E314A09283
:10523000E414B092E5142091880A3091890A4091D3
:105240008A0A50918B0A6091E2147091E314809164
:10525000E4149091E5140E944B646B017C0160930F
:10526000E2147093E3148093E4149093E51420E027
:1052700030E040E853E40E94F86287FF0EC020E06F
:1052800030E0A901C701B6010E94476487FD07C04D
:10529000C701B6010E94696303C06FEF01C060E0FF
:1052A00070E080915E080E94F15200915B0B80914A
:1052B0007917080F80918508801710F40091400B32
:1052C00080913A16811110C080910A1490910B14AC
:1052D000A0910C14B0910D148093BE149093BF1440
:1052E000A093C014B093C11420E030E044E353E431
:1052F0006091920670919306809194069091950624
:105300000E944B649B01AC0160E070E080E89FE389
:105310000E94FC626B017C012091BE143091BF148D
:105320004091C0145091C11460910E1570910F15E9
:1053300080911015909111150E9493629B01AC0110
:10534000C701B6010E944B642B013C016093C2145B
:105350007093C3148093C4149093C5148090501715
:1053600090905117A0905217B09053178091421609
:10537000909143169A878987FC01C080D180E28092
:10538000F380A7019601C501B4010E94476487FD1F
:1053900017C0A70196016091581770915917809115
:1053A0005A1790915B170E94476487FD09C01092BD
:1053B000DE141092DF141092E0141092E11466C013
:1053C0008092DE149092DF14A092E014B092E11467
:1053D000C0905817D0905917E0905A17F0905B176B
:1053E000A7019601C501B4010E94F862E985FA851A
:1053F000208131814281538187FF07C0C701B601F7
:105400000E94F86287FF12C006C0C501B4010E9465
:10541000476487FD0BC0C092DE14D092DF14E09287
:10542000E014F092E114ECE5F7E102C0E4E5F7E105
:10543000208131814281538160910A1470910B1453
:1054400080910C1490910D140E9493626B017C0169
:105450002091DE143091DF144091E0145091E1145A
:10546000E985FA8560817181828193810E949362CE
:105470009B01AC01C701B6010E94FC626093DE147F
:105480007093DF148093E0149093E1142091DE1464
:105490003091DF144091E0145091E11460918C0A36
:1054A00070918D0A80918E0A90918F0A0E944B64B0
:1054B0009B01AC01C301B2010E9493626B017C01AC
:1054C0006093C6147093C7148093C8149093C91442
:1054D0002091F2063091F3064091F4065091F506C2
:1054E0000E944B64609366157093671580936815EE
:1054F000909369152091900A3091910A4091920AF7
:105500005091930A0E944B642091A0163091A116ED
:105510004091A2165091A3160E9494622B013C0167
:105520006093CA147093CB148093CC149093CD14D1
:105530002091C2063091C3064091C4065091C50621
:10554000C701B6010E944B642091A4163091A516A4
:105550004091A6165091A7160E949362209152077F
:105560003091530740915407509155070E944B6466
:105570004B015C0160936A1570936B1580936C15F9
:1055800090936D152091B2073091B3074091B40705
:105590005091B507C701B6010E944B64A301920167
:1055A0000E949462A50194010E9494626B017C01A7
:1055B0006093E2147093E3148093E4149093E514E1
:1055C0008090E2079090E307A090E407B090E50791
:1055D000A50194010E944764181684F08090220768
:1055E00090902307A0902407B0902507A50194016F
:1055F000C701B6010E94F86287FF08C08092E214DA
:105600009092E314A092E414B092E514C090E214D6
:10561000D090E314E090E414F090E51420E030E042
:10562000A901C701B6010E94F86287FF05C080E0AA
:1056300090E0A0E8BFEB0DC020E030E0A901C70179
:10564000B6010E94476418166CF480E090E0A0E870
:10565000BFE38093DE149093DF14A093E014B09323
:10566000E1141AC020E030E0A901C701B6010E9490
:10567000F862811109C01092DE141092DF141092AA
:10568000E0141092E11408C0C092DE14D092DF142E
:10569000E092E014F092E114C090DE14D090DF1498
:1056A000E090E014F090E114F7FAF094F7F8F09439
:1056B0008090A00A9090A10AA090A20AB090A30A9C
:1056C000A5019401C701B6010E944764181684F031
:1056D0008090A40A9090A50AA090A60AB090A70A6C
:1056E000A5019401C701B6010E94F86287FF09C0B5
:1056F0008092E6149092E714A092E814B092E91414
:1057000008C0C092E614D092E714E092E814F09238
:10571000E914C090E614D090E714E090E814F090FB
:10572000E91420E030E040E853E4C701B6010E94EC
:10573000F86287FF0EC020E030E0A901C701B60182
:105740000E94476487FD07C0C701B6010E946963D4
:1057500003C06FEF01C060E0809162080E94425474
:105760008090DE149090DF14A090E014B090E114CB
:10577000C090A80AD090A90AE090AA0AF090AB0ABB
:10578000A7019601C501B4010E944764181684F070
:10579000C090AC0AD090AD0AE090AE0AF090AF0A8B
:1057A000A7019601C501B4010E94F86287FF08C0F5
:1057B000C092DE14D092DF14E092E014F092E11473
:1057C000C090DE14D090DF14E090E014F090E1146B
:1057D00020E030E040E853E4C701B6010E94F862DF
:1057E00087FF0EC020E030E0A901C701B6010E948A
:1057F000476487FD07C0C701B6010E94696303C003
:105800006FEF01C060E0809166080E944254C09032
:10581000E214D090E314E090E414F090E514E894DE
:10582000F7F8C092E214D092E314E092E414F092FC
:10583000E5148090B00A9090B10AA090B20AB0909E
:10584000B30AA5019401C701B6010E944764181666
:1058500084F08090B40A9090B50AA090B60AB090F7
:10586000B70AA5019401C701B6010E94F86287FF3B
:1058700008C08092E2149092E314A092E414B092D3
:10588000E5142091B80A3091B90A4091BA0A5091B2
:10589000BB0A6091E2147091E3148091E41490913A
:1058A000E5140E944B646B017C016093E2147093D9
:1058B000E3148093E4149093E51420E030E040E892
:1058C00053E40E94F86287FF0EC020E030E0A90197
:1058D000C701B6010E94476487FD07C0C701B60132
:1058E0000E94696303C06FEF01C060E070E08091C7
:1058F0006A080E94F15210915C0B80917B17180F7F
:1059000080918608811710F41091410B80913A160E
:10591000811110C080910E1490910F14A091101459
:10592000B09111148093CE149093CF14A093D014FF
:10593000B093D11420E030E044E353E46091920648
:105940007091930680919406909195060E944B6405
:105950009B01AC0160E070E080E89FE30E94FC6284
:105960006B017C012091CE143091CF144091D01462
:105970005091D114609112157091131580911415E6
:10598000909115150E9493629B01AC01C701B6016D
:105990000E944B642B013C016093D2147093D3148A
:1059A0008093D4149093D5148090601790906117D1
:1059B000A0906217B09063178091421690914316A1
:1059C0009A878987FC01C080D180E280F380A7019B
:1059D0009601C501B4010E94476487FD17C0A70165
:1059E0009601609168177091691780916A1790917C
:1059F0006B170E94476487FD09C01092DE14109255
:105A0000DF141092E0141092E11466C08092DE144C
:105A10009092DF14A092E014B092E114C090681745
:105A2000D0906917E0906A17F0906B17A701960164
:105A3000C501B4010E94F862E985FA8520813181AF
:105A40004281538187FF07C0C701B6010E94F862F7
:105A500087FF12C006C0C501B4010E94476487FDDC
:105A60000BC0C092DE14D092DF14E092E014F092EA
:105A7000E114ECE6F7E102C0E4E6F7E120813181D0
:105A80004281538160910E1470910F148091101413
:105A9000909111140E9493626B017C012091DE149D
:105AA0003091DF144091E0145091E114E985FA85BA
:105AB00060817181828193810E9493629B01AC011C
:105AC000C701B6010E94FC626093DE147093DF147C
:105AD0008093E0149093E1142091DE143091DF1450
