:100000003BC100000C94B1430C94E2430C941344A4
:100010000C9444440C9475440C94A6440C94D7441A
:100020000C9408455AC1000058C1000056C1000098
:1000300054C100000C94F64C50C100004EC10000A9
:100040004CC100004AC1000048C1000046C1000088
:1000500044C1000042C1000040C100000C94394579
:100060003CC100000C9435490C946B4936C100002A
:1000700034C1000032C1000030C100002EC10000B8
:100080002CC100002AC1000028C1000026C10000C8
:100090000C94D7490C940D4A20C100001EC10000E9
:1000A0001CC100001AC1000018C1000016C10000E8
:1000B00014C1000012C1000010C100000EC10000F8
:1000C0000CC100000AC1000008C100000C94794A6C
:1000D0000C94AF4A02C100000C941B4B0C94514B82
:1000E000FCC000004134DD354036423638356935D4
:1000F00002342234E6331F360E361B364236423681
:100100004236D13376467B4680468A4694460D4732
:100110009E46A646AE46B846C246CC46DB46E546B7
:100120000D47EF46F94603472F47324721472547FA
:100130002B47694736473A474047444748474E4769
:100140005247564769475C476047644700000A0BBF
:1001500002090C0D0E080703040100000000000056
:10016000000000000000000000000000000000008F
:10017000000000000000000012111000000000004C
:10018000000000000000000000000000000000006F
:10019000000001021020200808102040102040809C
:1001A000020102010804020101020408102040803B
:1001B00080402010080402018004020180402010C9
:1001C0000804020108040201010204081020408012
:1001D00001020408102040800505050507050808F0
:1001E0000808020202020A0A0808040404040101C1
:1001F00001010101010103030303030303030407D6
:1002000007070C0C0C0C0C0C0C0C0202020206066C
:100210000606060606060B0B0B0B0B0B0B0B000062
:1002200020002300260029002C002F0032000001AE
:10023000000003010601090100002200250028003A
:100240002B002E00310034000201000005010801DE
:100250000B0100002100240027002A002D0030009F
:10026000330001010000040107010A010200944962
:10027000364AD84A7A4BF44B11241FBECFEFD1E255
:10028000DEBFCDBF00E00CBF1BE0A0E0B2E0ECE4BD
:10029000F3EB00E00BBF02C007900D92A234B10750
:1002A000D9F725E1A2E4BBE001C01D92AF3AB20745
:1002B000E1F712E0C8E7D2E000E006C022970109AA
:1002C000FE010BBF0E944658CE36D10780E00807DA
:1002D000A9F70E9462550C94A45992CE8F929F92D6
:1002E000AF92BF92CF92DF92EF92FF92CF93DF93C4
:1002F0004B015C01EA01C880D980EA80FB8020E0E4
:1003000030E0A9010E94A85718167CF020E030E0E8
:10031000A901C501B4010E945956881F8827881F6A
:1003200091E08927282F30E002C022E030E085E00C
:10033000C816D104E104F10409F468C0A9016627D4
:1003400057FD6095762F4C155D056E057F0509F408
:1003500079C083E0C816D104E104F10449F42130E6
:10036000310509F073C041E050E0E0E0F0E013C077
:1003700084E0C816D104E104F10449F421303105C8
:1003800009F06BC041E050E0E0E0F0E00BC0E0E0DD
:10039000F0E045E050E082E0C816D104E104F10449
:1003A00009F464C081E0C816D104E104F10441F409
:1003B0002230310569F02115310509F457C004C018
:1003C000CD28CE28CF2821F060E070E0CB0104C01A
:1003D00062E070E080E090E0E617F70719F460E073
:1003E00070E0CB012130310559F46230710531F0F4
:1003F0006330710529F424E030E002C023E030E0EE
:1004000045305105A9F0C9019A0102C085E090E08C
:100410006901EE24D7FCE094FE2CC882D982EA82DE
:10042000FB828530910571F09C0160E070E0CB01AA
:100430006901EE24D7FCE094FE2CC882D982EA82BE
:10044000FB8219C060E070E0CB0115C0C12CD12C3B
:100450007601C394E2E0F0E09CCFC12CD12C760170
:10046000C394E3E0F0E045E050E09CCF63E070E04F
:1004700080E090E0B1CFDF91CF91FF90EF90DF90DF
:10048000CF90BF90AF909F908F9008952F923F9202
:100490004F925F926F927F928F929F92AF92BF9294
:1004A000CF92DF92EF92FF920F931F93CF93DF9340
:1004B000CDB7DEB761970FB6F894DEBF0FBECDBFE4
:1004C0008091C5090E942D469093D1138093D0133B
:1004D000A091050AB091060A9C010E9437580E941B
:1004E000F65620E030E040E856E30E94AC572091F9
:1004F0002A0730912B0740912C0750912D070E941D
:10050000F4556093B4127093B5128093B612909321
:10051000B7128091C9090E942D469093D3138093FE
:10052000D213A091FD09B091FE099C010E94375899
:100530000E94F65620E030E040E057E30E94AC57BE
:1005400020912E0730912F074091300750913107AD
:100550000E94F4556093B8127093B9128093BA1246
:100560009093BB128091CD090E942D469093D51394
:100570008093D413A091FF09B091000A9C010E94BE
:1005800037580E94F65620E030E040E057E30E94E2
:10059000AC579B01AC016091320770913307809199
:1005A0003407909135070E94F4556093BC12709304
:1005B000BD128093BE129093BF128091D1090E9408
:1005C0002D469093D7138093D613A091070AB0912C
:1005D000080A9C010E9437580E94F65620E030E03D
:1005E00040E856E30E94AC57209136073091370718
:1005F00040913807509139070E94F4556093C0121A
:100600007093C1128093C2129093C3128091D50946
:100610000E942D469093D9138093D813A091090A74
:10062000B0910A0A9C010E9437580E94F65620E0B9
:1006300030E040E856E30E94AC5720913A073091F1
:100640003B0740913C0750913D070E94F455609351
:10065000C4127093C5128093C6129093C7128091F2
:10066000D9090E942D469093DB138093DA13A09151
:10067000010AB091020A9C010E9437580E94F65666
:1006800020E030E040E057E30E94AC5720913E0765
:1006900030913F0740914007509141070E94F45527
:1006A0006093C8127093C9128093CA129093CB12B0
:1006B0008091DD090E942D469093DD138093DC1319
:1006C000A091030AB091040A9C010E9437580E942D
:1006D000F65620E030E040E057E30E94AC5720910E
:1006E00042073091430740914407509145070E94CB
:1006F000F4556093CC127093CD128093CE129093E8
:10070000CF128091E1090E942D469093DF138093D0
:10071000DE13A091F909B091FA099C010E943758A3
:100720000E94F65620E030E040E056E30E94AC57CD
:100730009B01AC0160914607709147078091480783
:10074000909149070E94F4556093D0127093D11292
:100750008093D2129093D3128091E5090E94D847DA
:100760008093E3138091E9090E94D8478093E413B2
:100770008091ED090E94D8478093E5138091F1099B
:100780000E94D8478093E6138091F5090E942D4678
:100790009093E1138093E013A091FB09B091FC09C1
:1007A0009C010E9437580E94F65620E030E040E05D
:1007B00056E30E94AC5720914A0730914B07409175
:1007C0004C0750914D070E94F4556093D4127093DA
:1007D000D5128093D6129093D712809196148111DE
:1007E00004C0809191158093E2132091E4138091CD
:1007F000E31390E0820F911D2091E513820F911D6C
:100800002091E613820F911D20911F0A30E02817D6
:10081000390784F46091E21370E080E090E00E9478
:10082000F6566093701370937113809372139093C4
:10083000731310C080910D0890910E08A0910F08BD
:10084000B09110088093701390937113A09372135A
:10085000B093731360917013709171138091721340
:100860009091731344E855E139DD672B682B692BB0
:1008700051F080919215833120F48F5F809392150F
:1008800002C0109292159090961491100DC0409154
:10089000200A8091E213480F4D838091030884174A
:1008A00018F480910B0A8D83C0901108D090120823
:1008B000E0901308F090140802ED12E084EFA82EE7
:1008C0008EE0B82EF80121913191419151918F0123
:1008D000C701B6010E94AC57F501619371938193F2
:1008E00091935F01F6E002391F0761F78091E313EE
:1008F000882309F4BDC09091E513992309F4B8C089
:100900001091921520E030E040E85FE36091960698
:100910007091970680919806909199060E94F555DE
:100920006B017C01612F70E080E090E00E94F65640
:1009300020E030E040E85FE30E94F5559B01AC0108
:10094000C701B6010E94F4550E94C556CB0101971C
:10095000BC01660F771F680F791FFB01EE0FFF1FA9
:10096000EE0FFF1FEC50F14F80819181A281B38186
:100970008093701390937113A0937213B0937313B9
:10098000FB01EE0FFF1FEE0FFF1FEC51F04F8081B8
:100990009181A281B38180937C1390937D13A09366
:1009A0007E13B0937F1343E0149F90011124F9014B
:1009B000EE0FFF1FEE0FFF1FEC53FE4E8081918163
:1009C000A281B3818093881390938913A0938A1393
:1009D000B0938B13FB01EE0FFF1FEE0FFF1FE850CC
:1009E000F14F80819181A281B381809374139093A0
:1009F0007513A0937613B0937713FB01EE0FFF1FCF
:100A0000EE0FFF1FE851F04F80819181A281B381E9
:100A10008093801390938113A0938213B0938313D8
:100A2000F901EE0FFF1FEE0FFF1FE853FE4E80810E
:100A30009181A281B38180938C1390938D13A093A5
:100A40008E13B0938F13FB01EE0FFF1FEE0FFF1FEE
:100A5000E450F14F80819181A281B381809378131A
:100A600090937913A0937A13B0937B13FB0148C240
:100A70009091E413992309F488C19091E6131091A1
:100A80009215992309F4B6C020E030E040E85FE316
:100A900060919606709197068091980690919906BC
:100AA0000E94F5556B017C01612F70E080E090E0C1
:100AB0000E94F65620E030E040E85FE30E94F555E2
:100AC0009B01AC01C701B6010E94F4550E94C556B6
:100AD000E3E01E9F90011124F901EE0FFF1FEE0FBE
:100AE000FF1FEC50F14FC080D180E280F380C092B4
:100AF0007013D0927113E0927213F0927313F90194
:100B0000EE0FFF1FEE0FFF1FEC51F04FC080D180A2
:100B1000E280F380C0927C13D0927D13E0927E132A
:100B2000F0927F13CB010197BC01660F771F680F0E
:100B3000791FFB01EE0FFF1FEE0FFF1FEC53FE4E60
:100B400080819181A281B3818093881390938913CE
:100B5000A0938A13B0938B13F901EE0FFF1FEE0FD2
:100B6000FF1FE850F14F80819181A281B381809372
:100B7000741390937513A0937613B0937713F901C0
:100B8000EE0FFF1FEE0FFF1FE851F04F80819181A4
:100B9000A281B3818093801390938113A0938213D9
:100BA000B0938313FB01EE0FFF1FEE0FFF1FE853FF
:100BB000FE4E80819181A281B38180938C139093AA
:100BC0008D13A0938E13B0938F13F901EE0FFF1FB7
:100BD000EE0FFF1FE450F14F80819181A281B3811C
:100BE0008093781390937913A0937A13B0937B1327
:100BF000F901B7C08111CDC020E030E040E85FE3EB
:100C0000609196067091970680919806909199064A
:100C10000E94F5556B017C01612F70E080E090E04F
:100C20000E94F65620E030E040E85FE30E94F55570
:100C30009B01AC01C701B6010E94F4550E94C55644
:100C400043E0149F90011124F901EE0FFF1FEE0FF6
:100C5000FF1FEC50F14FC080D180E280F380C09242
:100C60007013D0927113E0927213F0927313CB0150
:100C70000197BC01660F771F680F791FFB01EE0F0C
:100C8000FF1FEE0FFF1FEC51F04F80819181A28179
:100C9000B38180937C1390937D13A0937E13B093C4
:100CA0007F13FB01EE0FFF1FEE0FFF1FEC53FE4EF5
:100CB00080819181A281B38180938813909389135D
:100CC000A0938A13B0938B13F901EE0FFF1FEE0F61
:100CD000FF1FE850F14F80819181A281B381809301
:100CE000741390937513A0937613B0937713FB014D
:100CF000EE0FFF1FEE0FFF1FE851F04F8081918133
:100D0000A281B3818093801390938113A093821367
:100D1000B0938313FB01EE0FFF1FEE0FFF1FE8538D
:100D2000FE4E80819181A281B38180938C13909338
:100D30008D13A0938E13B0938F13F901EE0FFF1F45
:100D4000EE0FFF1FE450F14F80819181A281B381AA
:100D50008093781390937913A0937A13B0937B13B5
:100D6000FB01EE0FFF1FEE0FFF1FE451F04F8081DC
:100D70009181A281B3818093841390938513A09372
:100D80008613B0938713FB01CEC0882311F40C9413
:100D9000EA2B1091921520E030E040E85FE360918B
:100DA00096067091970680919806909199060E94F8
:100DB000F5556B017C01612F70E080E090E00E94AE
:100DC000F65620E030E040E85FE30E94F5559B01D5
:100DD000AC01C701B6010E94F4550E94C556CB0173
:100DE0000197BC01660F771F680F791FFB01EE0F9B
:100DF000FF1FEE0FFF1FEC50F14F80819181A28108
:100E0000B3818093701390937113A0937213B09376
:100E10007313F3E01F9F90011124F901EE0FFF1FE0
:100E2000EE0FFF1FEC51F04F80819181A281B381C1
:100E300080937C1390937D13A0937E13B0937F13C4
:100E4000F901EE0FFF1FEE0FFF1FEC53FE4E8081E6
:100E50009181A281B3818093881390938913A09389
:100E60008A13B0938B13FB01EE0FFF1FEE0FFF1FD2
:100E7000E850F14F80819181A281B38180937413F6
:100E800090937513A0937613B0937713F901EE0F37
:100E9000FF1FEE0FFF1FE851F04F80819181A2816B
:100EA000B3818093801390938113A0938213B093A6
:100EB0008313F901EE0FFF1FEE0FFF1FE853FE4EE5
:100EC00080819181A281B38180938C1390938D1343
:100ED000A0938E13B0938F13FB01EE0FFF1FEE0F45
:100EE000FF1FE450F14F80819181A281B3818093F3
:100EF000781390937913A0937A13B0937B13F9012D
:100F0000EE0FFF1FEE0FFF1FE451F04F8081918124
:100F1000A281B3818093841390938513A093861349
:100F2000B0938713F901EE0FFF1FEE0FFF1FE4537D
:100F3000FE4E80819181A281B38188C08091F40EA0
:100F40009091F50EA091F60EB091F70E809370136C
:100F500090937113A0937213B09373138091E40F65
:100F60009091E50FA091E60FB091E70F80937C136D
:100F700090937D13A0937E13B0937F138091C4113F
:100F80009091C511A091C611B091C711809388139B
:100F900090938913A0938A13B0938B138091F80ECA
:100FA0009091F90EA091FA0EB091FB0E80937413FC
:100FB00090937513A0937613B09377138091E80FF5
:100FC0009091E90FA091EA0FB091EB0F80938013FD
:100FD00090938113A0938213B09383138091C811CF
:100FE0009091C911A091CA11B091CB1180938C132B
:100FF00090938D13A0938E13B0938F138091FC0E5A
:101000009091FD0EA091FE0EB091FF0E809378138B
:1010100090937913A0937A13B0937B138091EC0F84
:101020009091ED0FA091EE0FB091EF0F809384138C
:1010300090938513A0938613B09387138091CC115E
:101040009091CD11A091CE11B091CF1180939013BA
:1010500090939113A0939213B0939313911010C097
:101060008091B4129091B512A091B612B091B712BE
:101070008093D8129093D912A093DA12B093DB1216
:1010800020E030E044E353E46091920670919306CF
:1010900080919406909195060E94AC579B01AC01FB
:1010A00060E070E080E89FE30E945D566B017C0188
:1010B00020E030E044E353E46091701370917113C9
:1010C00080917213909173130E94F5552091D8125C
:1010D0003091D9124091DA125091DB120E94F455EE
:1010E0009B01AC01C701B6010E94AC572B013C012A
:1010F0006093DC127093DD128093DE129093DF1206
:101100008090F4149090F514A090F614B090F71419
:1011100000919E1410919F14F801C080D180E2804C
:10112000F380A7019601C501B4010E94A85787FD6D
:1011300017C0A70196016091FC147091FD14809175
:10114000FE149091FF140E94A85787FD09C01092C9
:1011500068131092691310926A1310926B1364C093
:101160008092681390926913A0926A13B0926B13E5
:10117000C090FC14D090FD14E090FE14F090FF1489
:10118000A7019601C501B4010E945956F8012081BA
:1011900031814281538187FF07C0C701B6010E9498
:1011A000595687FF12C006C0C501B4010E94A85756
:1011B00087FD0BC0C0926813D0926913E0926A1346
:1011C000F0926B13E0E0F5E102C0E8EFF4E120817A
:1011D0003181428153816091B4127091B512809136
:1011E000B6129091B7120E94F4556B017C012091C8
:1011F00068133091691340916A1350916B13F80191
:1012000060817181828193810E94F4559B01AC01C0
:10121000C701B6010E945D5660936813709369130D
:1012200080936A1390936B13209168133091691324
:1012300040916A1350916B136091150870911608D4
:1012400080911708909118080E94AC579B01AC013F
:10125000C301B2010E94F4556B017C016093E0125E
:101260007093E1128093E2129093E3122091BE06F4
:101270003091BF064091C0065091C1060E94AC5704
:101280006093941370939513809396139093971390
:101290002091190830911A0840911B0850911C08A0
:1012A0000E94AC572091AC143091AD144091AE1413
:1012B0005091AF140E94F5552B013C016093E4124C
:1012C0007093E5128093E6129093E71220919A06AC
:1012D00030919B0640919C0650919D06C701B60136
:1012E0000E94AC572091B0143091B1144091B214C7
:1012F0005091B3140E94F4552091060730910707CE
:1013000040910807509109070E94AC574B015C01BE
:10131000609398137093991380939A1390939B13EF
:1013200020914E0730914F0740915007509151073F
:10133000C701B6010E94AC57A30192010E94F55566
:10134000A50194010E94F5556B017C01609368131F
:101350007093691380936A1390936B138090720754
:1013600090907307A0907407B0907507A501940141
:101370000E94A857181684F08090E2069090E30629
:10138000A090E406B090E506A5019401C701B6015E
:101390000E94595687FF08C0809268139092691383
:1013A000A0926A13B0926B13C0906813D090691327
:1013B000E0906A13F0906B1320E030E0A901C701C0
:1013C000B6010E94595687FF05C080E090E0A0E872
:1013D000BFEB0DC020E030E0A901C701B6010E94BB
:1013E000A85718166CF480E090E0A0E8BFE3809363
:1013F0006C1390936D13A0936E13B0936F131AC078
:1014000020E030E0A901C701B6010E9459568111C0
:1014100009C010926C1310926D1310926E131092FB
:101420006F1308C0C0926C13D0926D13E0926E13CC
:10143000F0926F13C0906C13D0906D13E0906E1308
:10144000F0906F138090290890902A08A0902B08A4
:10145000B0902C08A5019401C701B6010E94A857BD
:10146000181684F080902D0890902E08A0902F08D8
:10147000B0903008A5019401C701B6010E945956E9
:1014800087FF09C08092701390927113A09272131B
:10149000B092731308C0C0927013D0927113E0928F
:1014A0007213F0927313C0907013D0907113E09088
:1014B0007213F090731320E030E040E853E4C7016A
:1014C000B6010E94595687FF0EC020E030E0A90106
:1014D000C701B6010E94A85787FD07C0C701B60122
:1014E0000E94CA5603C06FEF01C060E0809196076A
:1014F0000E94A347C0906C13D0906D13E0906E13C0
:10150000F0906F13F7FAF094F7F8F094C0926C1320
:10151000D0926D13E0926E13F0926F1380903108A9
:1015200090903208A0903308B0903408A50194013F
:10153000C701B6010E94A857181684F0809035089C
:1015400090903608A0903708B0903808A501940113
:10155000C701B6010E94595687FF08C080926C13DC
:1015600090926D13A0926E13B0926F13C0906C1393
:10157000D0906D13E0906E13F0906F1320E030E088
:1015800040E853E4C701B6010E94595687FF0EC0D8
:1015900020E030E0A901C701B6010E94A85787FDED
:1015A00007C0C701B6010E94CA5603C06FEF01C051
:1015B00060E080919A070E94A347C0906813D09082
:1015C0006913E0906A13F0906B13E894F7F8C092F7
:1015D0006813D0926913E0926A13F0926B138090B3
:1015E000390890903A08A0903B08B0903C08A501BB
:1015F0009401C701B6010E94A857181684F0809084
:101600003D0890903E08A0903F08B0904008A5018A
:101610009401C701B6010E94595687FF08C0809205
:10162000681390926913A0926A13B0926B13209181
:1016300068133091691340916A1350916B13609154
:1016400041087091420880914308909144080E949B
:10165000AC576B017C01609370137093711380938E
:1016600072139093731320E030E040E853E40E943B
:10167000595687FF0EC020E030E0A901C701B6012E
:101680000E94A85787FD07C0C701B6010E94CA562D
:1016900003C06FEF01C060E070E080919E070E9480
:1016A00052461091210A80918815180F80910408E4
:1016B000811710F410910C0A80919614811110C0BA
:1016C0008091C8129091C912A091CA12B091CB1208
:1016D0008093E8129093E912A093EA12B093EB1270
:1016E00020E030E044E353E4609192067091930669
:1016F00080919406909195060E94AC579B01AC0195
:1017000060E070E080E89FE30E945D566B017C0121
:101710002091E8123091E9124091EA125091EB12B7
:101720006091741370917513809176139091771373
:101730000E94F4559B01AC01C701B6010E94AC5751
:101740002B013C016093EC127093ED128093EE122A
:101750009093EF128090041590900515A0900615B7
:10176000B090071520909E1430909F14F101C08016
:10177000D180E280F380A7019601C501B4010E94E7
:10178000A85787FD17C0A701960160910C157091AD
:101790000D1580910E1590910F150E94A85787FD89
:1017A00009C0109268131092691310926A13109274
:1017B0006B1364C08092681390926913A0926A13AD
:1017C000B0926B13C0900C15D0900D15E0900E15D3
:1017D000F0900F15A7019601C501B4010E9459565A
:1017E000F101208131814281538187FF07C0C70108
:1017F000B6010E94595687FF12C006C0C501B40148
:101800000E94A85787FD0BC0C0926813D09269133D
:10181000E0926A13F0926B13E0E1F5E102C0E8E0B8
:10182000F5E120813181428153816091C81270912C
:10183000C9128091CA129091CB120E94F4556B018B
:101840007C01209168133091691340916A13509183
:101850006B13F10160817181828193810E94F45543
:101860009B01AC01C701B6010E945D5660936813ED
:101870007093691380936A1390936B13209168138C
:101880003091691340916A1350916B136091450830
:101890007091460880914708909148080E94AC5783
:1018A0009B01AC01C301B2010E94F4556B017C01A4
:1018B0006093F0127093F1128093F2129093F312EE
:1018C0002091C2063091C3064091C4065091C506CE
:1018D0000E94AC5760939C1370939D1380939E134A
:1018E00090939F132091490830914A0840914B08EA
:1018F00050914C080E94AC572091B4143091B5140B
:101900004091B6145091B7140E94F5552B013C013B
:101910006093F4127093F5128093F6129093F7127D
:1019200020919E0630919F064091A0065091A106FD
:10193000C701B6010E94AC572091B8143091B91478
:101940004091BA145091BB140E94F45520910A079B
:1019500030910B0740910C0750910D070E94AC5736
:101960004B015C016093A0137093A1138093A213A9
:101970009093A3132091520730915307409154073D
:1019800050915507C701B6010E94AC57A3019201BF
:101990000E94F555A50194010E94F5556B017C014B
:1019A000609368137093691380936A1390936B1319
:1019B0008090760790907707A0907807B09079078D
:1019C000A50194010E94A857181684F08090E6069D
:1019D0009090E706A090E806B090E906A501940172
:1019E000C701B6010E94595687FF08C0809268134C
:1019F00090926913A0926A13B0926B13C09068130F
:101A0000D0906913E0906A13F0906B1320E030E0FF
:101A1000A901C701B6010E94595687FF05C080E0A1
:101A200090E0A0E8BFEB0DC020E030E0A901C701C5
:101A3000B6010E94A85718166CF480E090E0A0E868
:101A4000BFE380936C1390936D13A0936E13B093C8
:101A50006F131AC020E030E0A901C701B6010E944F
:101A60005956811109C010926C1310926D13109287
:101A70006E1310926F1308C0C0926C13D0926D1346
:101A8000E0926E13F0926F13C0906C13D0906D13B0
:101A9000E0906E13F0906F138090590890905A0860
:101AA000A0905B08B0905C08A5019401C701B60145
:101AB0000E94A857181684F080905D0890905E08E8
:101AC000A0905F08B0906008A5019401C701B6011D
:101AD0000E94595687FF09C080927013909271132B
:101AE000A0927213B092731308C0C0927013D09278
:101AF0007113E0927213F0927313C0907013D09030
:101B00007113E0907213F090731320E030E040E81E
:101B100053E4C701B6010E94595687FF0EC020E06A
:101B200030E0A901C701B6010E94A85787FD07C090
:101B3000C701B6010E94CA5603C06FEF01C060E042
:101B40008091A2070E94A347C0906C13D0906D13A0
:101B5000E0906E13F0906F13F7FAF094F7F8F094AA
:101B6000C0926C13D0926D13E0926E13F0926F13CB
:101B70008090610890906208A0906308B09064081B
:101B8000A5019401C701B6010E94A857181684F058
:101B90008090650890906608A0906708B0906808EB
:101BA000A5019401C701B6010E94595687FF08C0DC
:101BB00080926C1390926D13A0926E13B0926F137B
:101BC000C0906C13D0906D13E0906E13F0906F1373
:101BD00020E030E040E853E4C701B6010E945956C6
:101BE00087FF0EC020E030E0A901C701B6010E94C6
:101BF000A85787FD07C0C701B6010E94CA5603C097
:101C00006FEF01C060E08091A6070E94A347C090DB
:101C10006813D0906913E0906A13F0906B13E89406
:101C2000F7F8C0926813D0926913E0926A13F092A9
:101C30006B138090690890906A08A0906B08B09030
:101C40006C08A5019401C701B6010E94A857181697
:101C500084F080906D0890906E08A0906F08B0900E
:101C60007008A5019401C701B6010E94595687FF6B
:101C700008C08092681390926913A0926A13B09280
:101C80006B13209171083091720840917308509144
:101C90007408609168137091691380916A13909130
:101CA0006B130E94AC576B017C01609368137093B7
:101CB000691380936A1390936B1320E030E040E83F
:101CC00053E40E94595687FF0EC020E030E0A9017E
:101CD000C701B6010E94A85787FD07C0C701B6011A
:101CE0000E94CA5603C06FEF01C060E070E08091AF
:101CF000AA070E945246F091220A80918D15F80F92
:101D0000F983809105088F1718F440910D0A4983D3
:101D100080919614811110C08091D4129091D512A7
:101D2000A091D612B091D7128093F8129093F91225
:101D3000A093FA12B093FB1220E030E044E353E4A6
:101D40006091920670919306809194069091950609
:101D50000E94AC579B01AC0160E070E080E89FE31B
:101D60000E945D566B017C012091F8123091F912AE
:101D70004091FA125091FB1260917813709179138F
:101D800080917A1390917B130E94F4559B01AC01D2
:101D9000C701B6010E94AC572B013C016093FC12B5
:101DA0007093FD128093FE129093FF128090141591
:101DB00090901515A0901615B090171520909E14B0
:101DC00030909F14F101C080D180E280F380A701A0
:101DD0009601C501B4010E94A85787FD17C0A7014D
:101DE000960160911C1570911D1580911E159091A2
:101DF0001F150E94A85787FD09C010926813109202
:101E0000691310926A1310926B1364C08092681366
:101E100090926913A0926A13B0926B13C0901C1534
:101E2000D0901D15E0901E15F0901F15A70196018A
:101E3000C501B4010E945956F101208131814281CE
:101E4000538187FF07C0C701B6010E94595687FF1B
:101E500012C006C0C501B4010E94A85787FD0BC07F
:101E6000C0926813D0926913E0926A13F0926B13D8
:101E7000E0E2F5E102C0E8E1F5E120813181428153
:101E800053816091D4127091D5128091D6129091A5
:101E9000D7120E94F4556B017C0120916813309198
:101EA000691340916A1350916B13F1016081718144
:101EB000828193810E94F4559B01AC01C701B60158
:101EC0000E945D56609368137093691380936A1340
:101ED00090936B13209168133091691340916A13AA
:101EE00050916B1360917508709176088091770816
:101EF000909178080E94AC579B01AC01C301B201DC
:101F00000E94F4556B017C016093001370930113E0
:101F100080930213909303132091C6063091C70655
:101F20004091C8065091C9060E94AC576093A41313
:101F30007093A5138093A6139093A713209179080B
:101F400030917A0840917B0850917C080E94AC57F0
:101F50002091BC143091BD144091BE145091BF1417
:101F60000E94F5552B013C016093041370930513F7
:101F700080930613909307132091A2063091A30635
:101F80004091A4065091A506C701B6010E94AC5726
:101F90002091C0143091C1144091C2145091C314C7
:101FA0000E94F45520910E0730910F0740911007C1
:101FB000509111070E94AC574B015C016093A8132C
:101FC0007093A9138093AA139093AB132091560793
:101FD000309157074091580750915907C701B601F2
:101FE0000E94AC57A30192010E94F555A5019401EE
:101FF0000E94F5556B017C0160936813709369131F
:1020000080936A1390936B1380907A0790907B076C
:10201000A0907C07B0907D07A50194010E94A8576D
:10202000181684F08090EA069090EB06A090EC06DB
:10203000B090ED06A5019401C701B6010E94595662
:1020400087FF08C08092681390926913A0926A1368
:10205000B0926B13C0906813D0906913E0906A132C
:10206000F0906B1320E030E0A901C701B6010E9497
:10207000595687FF05C080E090E0A0E8BFEB0DC097
:1020800020E030E0A901C701B6010E94A857181648
:102090006CF480E090E0A0E8BFE380936C13909331
:1020A0006D13A0936E13B0936F131AC020E030E04D
:1020B000A901C701B6010E945956811109C01092A9
:1020C0006C1310926D1310926E1310926F1308C060
:1020D000C0926C13D0926D13E0926E13F0926F1356
:1020E000C0906C13D0906D13E0906E13F0906F134E
:1020F0008090890890908A08A0908B08B0908C08F6
:10210000A5019401C701B6010E94A857181684F0D2
:1021100080908D0890908E08A0908F08B0909008C5
:10212000A5019401C701B6010E94595687FF09C055
:102130008092701390927113A0927213B0927313E5
:1021400008C0C0927013D0927113E0927213F09293
:102150007313C0907013D0907113E0907213F090CD
:10216000731320E030E040E853E4C701B6010E9459
:10217000595687FF0EC020E030E0A901C701B60123
:102180000E94A85787FD07C0C701B6010E94CA5622
:1021900003C06FEF01C060E08091AE070E94A347CB
:1021A000C0906C13D0906D13E0906E13F0906F138D
:1021B000F7FAF094F7F8F094C0926C13D0926D1384
:1021C000E0926E13F0926F138090910890909208B5
:1021D000A0909308B0909408A5019401C701B6019E
:1021E0000E94A857181684F0809095089090960841
:1021F000A0909708B0909808A5019401C701B60176
:102200000E94595687FF08C080926C1390926D13FC
:10221000A0926E13B0926F13C0906C13D0906D1398
:10222000E0906E13F0906F1320E030E040E853E44C
:10223000C701B6010E94595687FF0EC020E030E06A
:10224000A901C701B6010E94A85787FD07C0C701B1
:10225000B6010E94CA5603C06FEF01C060E08091D2
:10226000B2070E94A347C0906813D0906913E09012
:102270006A13F0906B13E894F7F8C0926813D09249
:102280006913E0926A13F0926B1380909908909012
:102290009A08A0909B08B0909C08A5019401C701E2
:1022A000B6010E94A857181684F080909D0890905F
:1022B0009E08A0909F08B090A008A5019401C701B6
:1022C000B6010E94595687FF08C080926813909209
:1022D0006913A0926A13B0926B132091A1083091F8
:1022E000A2084091A3085091A408609168137091CE
:1022F000691380916A1390916B130E94AC576B0124
:102300007C01609368137093691380936A139093B0
:102310006B1320E030E040E853E40E94595687FFF9
:102320000EC020E030E0A901C701B6010E94A85705
:1023300087FD07C0C701B6010E94CA5603C06FEFF0
:1023400001C060E070E08091B6070E945246F091B3
:10235000230A80919015F80FFA83809106088F1751
:1023600018F440910E0A4A8380919614811110C08E
:102370008091B8129091B912A091BA12B091BB128B
:102380008093081390930913A0930A13B0930B132F
:1023900020E030E044E353E46091920670919306AC
:1023A00080919406909195060E94AC579B01AC01D8
:1023B00060E070E080E89FE30E945D566B017C0165
:1023C000209108133091091340910A1350910B1377
:1023D00060917C1370917D1380917E1390917F1397
:1023E0000E94F4559B01AC01C701B6010E94AC5795
:1023F0002B013C0160930C1370930D1380930E130B
:1024000090930F138090241590902515A090261579
:10241000B090271520909E1430909F14F101C08039
:10242000D180E280F380A7019601C501B4010E942A
:10243000A85787FD17C0A701960160912C157091D0
:102440002D1580912E1590912F150E94A85787FD6C
:1024500009C0109268131092691310926A131092B7
:102460006B1364C08092681390926913A0926A13F0
:10247000B0926B13C0902C15D0902D15E0902E15B6
:10248000F0902F15A7019601C501B4010E9459567D
:10249000F101208131814281538187FF07C0C7014B
:1024A000B6010E94595687FF12C006C0C501B4018B
:1024B0000E94A85787FD0BC0C0926813D092691381
:1024C000E0926A13F0926B13E0E3F5E102C0E8E2F8
:1024D000F5E120813181428153816091B812709180
:1024E000B9128091BA129091BB120E94F4556B01FF
:1024F0007C01209168133091691340916A135091C7
:102500006B13F10160817181828193810E94F45586
:102510009B01AC01C701B6010E945D566093681330
:102520007093691380936A1390936B1320916813CF
:102530003091691340916A1350916B136091A50813
:102540007091A6088091A7089091A8080E94AC57A6
:102550009B01AC01C301B2010E94F4556B017C01E7
:1025600060931013709311138093121390931313AD
:102570002091CA063091CB064091CC065091CD06F1
:102580000E94AC576093AC137093AD138093AE135D
:102590009093AF132091A9083091AA084091AB08FD
:1025A0005091AC080E94AC572091C4143091C514CE
:1025B0004091C6145091C7140E94F5552B013C015F
:1025C000609314137093151380931613909317133D
:1025D0002091A6063091A7064091A8065091A90621
:1025E000C701B6010E94AC572091C8143091C9149C
:1025F0004091CA145091CB140E94F45520911207B7
:102600003091130740911407509115070E94AC5761
:102610004B015C016093B0137093B1138093B213BC
:102620009093B31320915A0730915B0740915C0758
:1026300050915D07C701B6010E94AC57A3019201FA
:102640000E94F555A50194010E94F5556B017C018E
:10265000609368137093691380936A1390936B135C
:1026600080907E0790907F07A0908007B0908107B0
:10267000A50194010E94A857181684F08090EE06D8
:102680009090EF06A090F006B090F106A50194019D
:10269000C701B6010E94595687FF08C0809268138F
:1026A00090926913A0926A13B0926B13C090681352
:1026B000D0906913E0906A13F0906B1320E030E043
:1026C000A901C701B6010E94595687FF05C080E0E5
:1026D00090E0A0E8BFEB0DC020E030E0A901C70109
:1026E000B6010E94A85718166CF480E090E0A0E8AC
:1026F000BFE380936C1390936D13A0936E13B0930C
:102700006F131AC020E030E0A901C701B6010E9492
:102710005956811109C010926C1310926D131092CA
:102720006E1310926F1308C0C0926C13D0926D1389
:10273000E0926E13F0926F13C0906C13D0906D13F3
:10274000E0906E13F0906F138090B9089090BA08E3
:10275000A090BB08B090BC08A5019401C701B601C8
:102760000E94A857181684F08090BD089090BE086B
:10277000A090BF08B090C008A5019401C701B601A0
:102780000E94595687FF09C080927013909271136E
:10279000A0927213B092731308C0C0927013D092BB
:1027A0007113E0927213F0927313C0907013D09073
:1027B0007113E0907213F090731320E030E040E862
:1027C00053E4C701B6010E94595687FF0EC020E0AE
:1027D00030E0A901C701B6010E94A85787FD07C0D4
:1027E000C701B6010E94CA5603C06FEF01C060E086
:1027F0008091BA070E94A347C0906C13D0906D13CC
:10280000E0906E13F0906F13F7FAF094F7F8F094ED
:10281000C0926C13D0926D13E0926E13F0926F130E
:102820008090C1089090C208A090C308B090C408DE
:10283000A5019401C701B6010E94A857181684F09B
:102840008090C5089090C608A090C708B090C808AE
:10285000A5019401C701B6010E94595687FF08C01F
:1028600080926C1390926D13A0926E13B0926F13BE
:10287000C0906C13D0906D13E0906E13F0906F13B6
:1028800020E030E040E853E4C701B6010E94595609
:1028900087FF0EC020E030E0A901C701B6010E9409
:1028A000A85787FD07C0C701B6010E94CA5603C0DA
:1028B0006FEF01C060E08091BE070E94A347C09007
:1028C0006813D0906913E0906A13F0906B13E8944A
:1028D000F7F8C0926813D0926913E0926A13F092ED
:1028E0006B138090C9089090CA08A090CB08B09054
:1028F000CC08A5019401C701B6010E94A85718167B
:1029000084F08090CD089090CE08A090CF08B09031
:10291000D008A5019401C701B6010E94595687FF4E
:1029200008C08092681390926913A0926A13B092C3
:102930006B132091D1083091D2084091D308509167
:10294000D408609168137091691380916A13909113
:102950006B130E94AC576B017C01609368137093FA
:10296000691380936A1390936B1320E030E040E882
:1029700053E40E94595687FF0EC020E030E0A901C1
:10298000C701B6010E94A85787FD07C0C701B6015D
:102990000E94CA5603C06FEF01C060E070E08091F2
:1029A000C2070E9452460091240A80918915080F9F
:1029B00080910708801710F400910F0A80919614F7
:1029C000811110C08091BC129091BD12A091BE12D5
:1029D000B091BF128093181390931913A0931A13F8
:1029E000B0931B1320E030E044E353E4609192067F
:1029F0007091930680919406909195060E94AC5731
:102A00009B01AC0160E070E080E89FE30E945D56AE
:102A10006B017C01209118133091191340911A1306
:102A200050911B13609180137091811380918213D8
:102A3000909183130E94F4559B01AC01C701B6012C
:102A40000E94AC572B013C0160931C1370931D1323
:102A500080931E1390931F1380903415909035151A
:102A6000A0903615B090371520909E1430909F148A
:102A7000F101C080D180E280F380A7019601C501F9
:102A8000B4010E94A85787FD17C0A7019601609165
:102A90003C1570913D1580913E1590913F150E9417
:102AA000A85787FD09C010926813109269131092FD
:102AB0006A1310926B1364C080926813909269132A
:102AC000A0926A13B0926B13C0903C15D0903D1544
:102AD000E0903E15F0903F15A7019601C501B401A5
:102AE0000E945956F101208131814281538187FF33
:102AF00007C0C701B6010E94595687FF12C006C021
:102B0000C501B4010E94A85787FD0BC0C09268138D
:102B1000D0926913E0926A13F0926B13E0E4F5E14E
:102B200002C0E8E3F5E12081318142815381609167
:102B3000BC127091BD128091BE129091BF120E9482
:102B4000F4556B017C012091681330916913409119
:102B50006A1350916B13F1016081718182819381BD
:102B60000E94F4559B01AC01C701B6010E945D565D
:102B7000609368137093691380936A1390936B1337
:102B8000209168133091691340916A1350916B132F
:102B90006091D5087091D6088091D7089091D80897
:102BA0000E94AC579B01AC01C301B2010E94F455D5
:102BB0006B017C0160932013709321138093221387
:102BC000909323132091CE063091CF064091D006EA
:102BD0005091D1060E94AC576093B4137093B51313
:102BE0008093B6139093B7132091D9083091DA08E7
:102BF0004091DB085091DC080E94AC572091CC1426
:102C00003091CD144091CE145091CF140E94F555BF
:102C10002B013C016093241370932513809326139A
:102C2000909327132091AA063091AB064091AC06F1
:102C30005091AD06C701B6010E94AC572091D01447
:102C40003091D1144091D2145091D3140E94F45574
:102C500020911607309117074091180750911907D6
:102C60000E94AC574B015C016093B8137093B91389
:102C70008093BA139093BB1320915E0730915F0746
:102C80004091600750916107C701B6010E94AC579F
:102C9000A30192010E94F555A50194010E94F555EA
:102CA0006B017C01609368137093691380936A13BE
:102CB00090936B138090820790908307A090840775
:102CC000B0908507A50194010E94A857181684F0BA
:102CD0008090F2069090F306A090F406B090F5066E
:102CE000A5019401C701B6010E94595687FF08C08B
:102CF0008092681390926913A0926A13B0926B133A
:102D0000C0906813D0906913E0906A13F0906B1331
:102D100020E030E0A901C701B6010E94595687FFA3
:102D200005C080E090E0A0E8BFEB0DC020E030E0FF
:102D3000A901C701B6010E94A85718166CF480E0DB
:102D400090E0A0E8BFE380936C1390936D13A09381
:102D50006E13B0936F131AC020E030E0A901C701D1
:102D6000B6010E945956811109C010926C1310923D
:102D70006D1310926E1310926F1308C0C0926C13F3
:102D8000D0926D13E0926E13F0926F13C0906C139B
:102D9000D0906D13E0906E13F0906F138090E9085F
:102DA0009090EA08A090EB08B090EC08A50194017F
:102DB000C701B6010E94A857181684F08090ED084C
:102DC0009090EE08A090EF08B090F008A501940153
:102DD000C701B6010E94595687FF09C0809270133F
:102DE00090927113A0927213B092731308C0C092A4
:102DF0007013D0927113E0927213F0927313C0901B
:102E00007013D0907113E0907213F090731320E060
:102E100030E040E853E4C701B6010E94595687FFED
:102E20000EC020E030E0A901C701B6010E94A857FA
:102E300087FD07C0C701B6010E94CA5603C06FEFE5
:102E400001C060E08091C6070E94A347C0906C1348
:102E5000D0906D13E0906E13F0906F13F7FAF0942A
:102E6000F7F8F094C0926C13D0926D13E0926E1349
:102E7000F0926F138090F1089090F208A090F30800
:102E8000B090F408A5019401C701B6010E94A857AB
:102E9000181684F08090F5089090F608A090F70836
:102EA000B090F808A5019401C701B6010E945956D7
:102EB00087FF08C080926C1390926D13A0926E13DE
:102EC000B0926F13C0906C13D0906D13E0906E139E
:102ED000F0906F1320E030E040E853E4C701B60102
:102EE0000E94595687FF0EC020E030E0A901C701BB
:102EF000B6010E94A85787FD07C0C701B6010E940E
:102F0000CA5603C06FEF01C060E08091CA070E94FB
:102F1000A347C0906813D0906913E0906A13F090B3
:102F20006B13E894F7F8C0926813D0926913E0929B
:102F30006A13F0926B138090F9089090FA08A090B1
:102F4000FB08B090FC08A5019401C701B6010E94DE
:102F5000A857181684F08090FD089090FE08A09065
:102F6000FF08B0900009A5019401C701B6010E94B5
:102F7000595687FF08C08092681390926913A092F7
:102F80006A13B0926B1320910109309102094091AC
:102F9000030950910409609168137091691380913D
:102FA0006A1390916B130E94AC576B017C01609384
:102FB00068137093691380936A1390936B1320E0E6
:102FC00030E040E853E40E94595687FF0EC020E0ED
:102FD00030E0A901C701B6010E94A85787FD07C0CC
:102FE000C701B6010E94CA5603C06FEF01C060E07E
:102FF00070E08091CE070E9452463090250A809161
:103000008A15380E80910808831510F43090100A44
:1030100080919614811110C08091C0129091C112BC
:10302000A091C212B091C3128093281390932913D8
:10303000A0932A13B0932B1320E030E044E353E431
:1030400060919206709193068091940690919506F6
:103050000E94AC579B01AC0160E070E080E89FE308
:103060000E945D566B017C01209128133091291339
:1030700040912A1350912B13609184137091851302
:1030800080918613909187130E94F4559B01AC01A7
:10309000C701B6010E94AC572B013C0160932C1371
:1030A00070932D1380932E1390932F1380904415BB
:1030B00090904515A0904615B090471580919E14AC
:1030C00090919F149F838E83FC01C080D180E28009
:1030D000F380A7019601C501B4010E94A85787FD9E
:1030E00017C0A701960160914C1570914D15809104
:1030F0004E1590914F150E94A85787FD09C0109258
:1031000068131092691310926A1310926B1366C0C1
:103110008092681390926913A0926A13B0926B1315
:10312000C0904C15D0904D15E0904E15F0904F1575
:10313000A7019601C501B4010E945956EE81FF8195
:10314000208131814281538187FF07C0C701B601C9
:103150000E94595687FF12C006C0C501B4010E94E3
:10316000A85787FD0BC0C0926813D0926913E092F4
:103170006A13F0926B13E0E5F5E102C0E8E4F5E1D3
:1031800020813181428153816091C0127091C112BE
:103190008091C2129091C3120E94F4556B017C0180
:1031A000209168133091691340916A1350916B1309
:1031B000EE81FF8160817181828193810E94F4554B
:1031C0009B01AC01C701B6010E945D566093681374
:1031D0007093691380936A1390936B132091681313
:1031E0003091691340916A1350916B1360910509F6
:1031F0007091060980910709909108090E94AC57C7
:103200009B01AC01C301B2010E94F4556B017C012A
:103210006093301370933113809332139093331370
:103220002091D2063091D3064091D4065091D50614
:103230000E94AC576093BC137093BD138093BE1370
:103240009093BF132091090930910A0940910B090D
:1032500050910C090E94AC572091D4143091D51490
:103260004091D6145091D7140E94F5552B013C0182
:103270006093341370933513809336139093371300
:103280002091AE063091AF064091B0065091B10644
:10329000C701B6010E94AC572091D8143091D914BF
:1032A0004091DA145091DB140E94F45520911A07D2
:1032B00030911B0740911C0750911D070E94AC578D
:1032C0004B015C016093C0137093C1138093C213D0
:1032D0009093C31320916207309163074091640774
:1032E00050916507C701B6010E94AC57A301920136
:1032F0000E94F555A50194010E94F5556B017C01D2
:10330000609368137093691380936A1390936B139F
:103310008090860790908707A0908807B0908907D3
:10332000A50194010E94A857181684F08090F60613
:103330009090F706A090F806B090F906A5019401C8
:10334000C701B6010E94595687FF08C080926813D2
:1033500090926913A0926A13B0926B13C090681395
:10336000D0906913E0906A13F0906B1320E030E086
:10337000A901C701B6010E94595687FF05C080E028
:1033800090E0A0E8BFEB0DC020E030E0A901C7014C
:10339000B6010E94A85718166CF480E090E0A0E8EF
:1033A000BFE380936C1390936D13A0936E13B0934F
:1033B0006F131AC020E030E0A901C701B6010E94D6
:1033C0005956811109C010926C1310926D1310920E
:1033D0006E1310926F1308C0C0926C13D0926D13CD
:1033E000E0926E13F0926F13C0906C13D0906D1337
:1033F000E0906E13F0906F138090190990901A0965
:10340000A0901B09B0901C09A5019401C701B60149
:103410000E94A857181684F080901D0990901E09EC
:10342000A0901F09B0902009A5019401C701B60121
:103430000E94595687FF09C08092701390927113B1
:10344000A0927213B092731308C0C0927013D092FE
:103450007113E0927213F0927313C0907013D090B6
:103460007113E0907213F090731320E030E040E8A5
:1034700053E4C701B6010E94595687FF0EC020E0F1
:1034800030E0A901C701B6010E94A85787FD07C017
:10349000C701B6010E94CA5603C06FEF01C060E0C9
:1034A0008091D2070E94A347C0906C13D0906D13F7
:1034B000E0906E13F0906F13F7FAF094F7F8F09431
:1034C000C0926C13D0926D13E0926E13F0926F1352
:1034D0008090210990902209A0902309B09024099E
:1034E000A5019401C701B6010E94A857181684F0DF
:1034F0008090250990902609A0902709B09028096E
:10350000A5019401C701B6010E94595687FF08C062
:1035100080926C1390926D13A0926E13B0926F1301
:10352000C0906C13D0906D13E0906E13F0906F13F9
:1035300020E030E040E853E4C701B6010E9459564C
:1035400087FF0EC020E030E0A901C701B6010E944C
:10355000A85787FD07C0C701B6010E94CA5603C01D
:103560006FEF01C060E08091D6070E94A347C09032
:103570006813D0906913E0906A13F0906B13E8948D
:10358000F7F8C0926813D0926913E0926A13F09230
:103590006B138090290990902A09A0902B09B09074
:1035A0002C09A5019401C701B6010E94A85718165D
:1035B00084F080902D0990902E09A0902F09B09052
:1035C0003009A5019401C701B6010E94595687FF31
:1035D00008C08092681390926913A0926A13B09207
:1035E0006B13209131093091320940913309509188
:1035F0003409609168137091691380916A139091F6
:103600006B130E94AC576B017C016093681370933D
:10361000691380936A1390936B1320E030E040E8C5
:1036200053E40E94595687FF0EC020E030E0A90104
:10363000C701B6010E94A85787FD07C0C701B601A0
:103640000E94CA5603C06FEF01C060E070E0809135
:10365000DA070E9452462090260A80918B15280E88
:1036600080910908821510F42090110A8091961417
:10367000811110C08091C4129091C512A091C61200
:10368000B091C7128093381390933913A0933A13D3
:10369000B0933B1320E030E044E353E460919206A2
:1036A0007091930680919406909195060E94AC5774
:1036B0009B01AC0160E070E080E89FE30E945D56F2
:1036C0006B017C01209138133091391340913A13EA
:1036D00050913B13609188137091891380918A13E4
:1036E00090918B130E94F4559B01AC01C701B60168
:1036F0000E94AC572B013C0160933C1370933D1327
:1037000080933E1390933F138090541590905515DD
:10371000A0905615B090571580919E1490919F14CB
:103720009F838E83FC01C080D180E280F380A7015B
:103730009601C501B4010E94A85787FD17C0A701D3
:10374000960160915C1570915D1580915E15909168
:103750005F150E94A85787FD09C010926813109248
:10376000691310926A1310926B1366C080926813EB
:1037700090926913A0926A13B0926B13C0905C157B
:10378000D0905D15E0905E15F0905F15A701960151
:10379000C501B4010E945956EE81FF81208131811B
:1037A0004281538187FF07C0C701B6010E94595665
:1037B00087FF12C006C0C501B4010E94A85787FD4B
:1037C0000BC0C0926813D0926913E0926A13F09212
:1037D0006B13E0E6F5E102C0E8E5F5E12081318117
:1037E000428153816091C4127091C5128091C612BA
:1037F0009091C7120E94F4556B017C0120916813CF
:103800003091691340916A1350916B13EE81FF81DF
:1038100060817181828193810E94F4559B01AC018A
:10382000C701B6010E945D566093681370936913D7
:1038300080936A1390936B132091681330916913EE
:1038400040916A1350916B1360913509709136095C
:1038500080913709909138090E94AC579B01AC01C7
:10386000C301B2010E94F4556B017C0160934013C7
:103870007093411380934213909343132091D60683
:103880003091D7064091D8065091D9060E94AC5786
:103890006093C4137093C5138093C6139093C7139A
:1038A0002091390930913A0940913B0950913C09E6
:1038B0000E94AC572091DC143091DD144091DE144D
:1038C0005091DF140E94F5552B013C016093441385
:1038D0007093451380934613909347132091B2063B
:1038E0003091B3064091B4065091B506C701B601B8
:1038F0000E94AC572091E0143091E1144091E21401
:103900005091E3140E94F45520911E0730911F0737
:1039100040912007509121070E94AC574B015C0158
:103920006093C8137093C9138093CA139093CB13F9
:1039300020916607309167074091680750916907A9
:10394000C701B6010E94AC57A30192010E94F55530
:10395000A50194010E94F5556B017C0160936813E9
:103960007093691380936A1390936B1380908A0706
:1039700090908B07A0908C07B0908D07A5019401C3
:103980000E94A857181684F08090FA069090FB06C3
:10399000A090FC06B090FD06A5019401C701B601F8
:1039A0000E94595687FF08C080926813909269134D
:1039B000A0926A13B0926B13C0906813D0906913F1
:1039C000E0906A13F0906B1320E030E0A901C7018A
:1039D000B6010E94595687FF05C080E090E0A0E83C
:1039E000BFEB0DC020E030E0A901C701B6010E9485
:1039F000A85718166CF480E090E0A0E8BFE380932D
:103A00006C1390936D13A0936E13B0936F131AC041
:103A100020E030E0A901C701B6010E94595681118A
:103A200009C010926C1310926D1310926E131092C5
:103A30006F1308C0C0926C13D0926D13E0926E1396
:103A4000F0926F13C0906C13D0906D13E0906E13D2
:103A5000F0906F138090490990904A09A0904B090B
:103A6000B0904C09A5019401C701B6010E94A85766
:103A7000181684F080904D0990904E09A0904F093F
:103A8000B0905009A5019401C701B6010E94595692
:103A900087FF09C08092701390927113A0927213E5
:103AA000B092731308C0C0927013D0927113E09259
:103AB0007213F0927313C0907013D0907113E09052
:103AC0007213F090731320E030E040E853E4C70134
:103AD000B6010E94595687FF0EC020E030E0A901D0
:103AE000C701B6010E94A85787FD07C0C701B601EC
:103AF0000E94CA5603C06FEF01C060E08091DE07EC
:103B00000E94A347C0906C13D0906D13E0906E1389
:103B1000F0906F13F7FAF094F7F8F094C0926C13EA
:103B2000D0926D13E0926E13F0926F138090510952
:103B300090905209A0905309B0905409A5019401A6
:103B4000C701B6010E94A857181684F08090550945
:103B500090905609A0905709B0905809A50194017A
:103B6000C701B6010E94595687FF08C080926C13A6
:103B700090926D13A0926E13B0926F13C0906C135D
:103B8000D0906D13E0906E13F0906F1320E030E052
:103B900040E853E4C701B6010E94595687FF0EC0A2
:103BA00020E030E0A901C701B6010E94A85787FDB7
:103BB00007C0C701B6010E94CA5603C06FEF01C01B
:103BC00060E08091E2070E94A347C0906813D09004
:103BD0006913E0906A13F0906B13E894F7F8C092C1
:103BE0006813D0926913E0926A13F0926B1380907D
:103BF000590990905A09A0905B09B0905C09A50101
:103C00009401C701B6010E94A857181684F080904D
:103C10005D0990905E09A0905F09B0906009A501D0
:103C20009401C701B6010E94595687FF08C08092CF
:103C3000681390926913A0926A13B0926B1320914B
:103C40006109309162094091630950916409609162
:103C500068137091691380916A1390916B130E949D
:103C6000AC576B017C016093681370936913809368
:103C70006A1390936B1320E030E040E853E40E9415
:103C8000595687FF0EC020E030E0A901C701B601F8
:103C90000E94A85787FD07C0C701B6010E94CA56F7
:103CA00003C06FEF01C060E070E08091E6070E9402
:103CB0005246F091270A80918C15F80FFB83809172
:103CC0000A088F1718F44091120A4B8380919614BA
:103CD000811110C08091CC129091CD12A091CE1282
:103CE000B091CF128093481390934913A0934A1335
:103CF000B0934B1320E030E044E353E4609192062C
:103D00007091930680919406909195060E94AC570D
:103D10009B01AC0160E070E080E89FE30E945D568B
:103D20006B017C01209148133091491340914A1353
:103D300050914B1360918C1370918D1380918E1361
:103D400090918F130E94F4559B01AC01C701B601FD
:103D50000E94AC572B013C0160934C1370934D13A0
:103D600080934E1390934F13809064159090651537
:103D7000A0906615B090671580919E1490919F1445
:103D80009F838E83FC01C080D180E280F380A701F5
:103D90009601C501B4010E94A85787FD17C0A7016D
:103DA000960160916C1570916D1580916E159091D2
:103DB0006F150E94A85787FD09C0109268131092D2
:103DC000691310926A1310926B1366C08092681385
:103DD00090926913A0926A13B0926B13C0906C1505
:103DE000D0906D15E0906E15F0906F15A7019601BB
:103DF000C501B4010E945956EE81FF8120813181B5
:103E00004281538187FF07C0C701B6010E945956FE
:103E100087FF12C006C0C501B4010E94A85787FDE4
:103E20000BC0C0926813D0926913E0926A13F092AB
:103E30006B13E0E7F5E102C0E8E6F5E120813181AE
:103E4000428153816091CC127091CD128091CE123B
:103E50009091CF120E94F4556B017C012091681360
:103E60003091691340916A1350916B13EE81FF8179
:103E700060817181828193810E94F4559B01AC0124
:103E8000C701B6010E945D56609368137093691371
:103E900080936A1390936B13209168133091691388
:103EA00040916A1350916B13609165097091660996
:103EB00080916709909168090E94AC579B01AC0101
:103EC000C301B2010E94F4556B017C016093501351
:103ED0007093511380935213909353132091DA06E9
:103EE0003091DB064091DC065091DD060E94AC5714
:103EF0006093CC137093CD138093CE139093CF1314
:103F00002091690930916A0940916B0950916C09BF
:103F10000E94AC572091E4143091E5144091E614CE
:103F20005091E7140E94F5554B015C0160935413C6
:103F30007093551380935613909357132091B606A0
:103F40003091B7064091B8065091B906C701B60145
:103F50000E94AC572091E8143091E9144091EA1482
:103F60005091EB140E94F4552091220730912307C1
:103F700040912407509125070E94AC576E837F83A0
:103F80008887998720916A0730916B0740916C0769
:103F900050916D07C701B6010E94AC57A50194016D
:103FA0000E94F5552E813F81488559850E94F5551F
:103FB0006B017C01609368137093691380936A139B
:103FC00090936B1380908E0790908F07A09090072E
:103FD000B0909107A50194010E94A857181684F08B
:103FE0008090FE069090FF06A0900007B090010719
:103FF000A5019401C701B6010E94595687FF08C068
:104000008092681390926913A0926A13B0926B1316
:10401000C0906813D0906913E0906A13F0906B130E
:1040200020E030E0A901C701B6010E94595687FF80
:1040300005C080E090E0A0E8BFEB0DC020E030E0DC
:10404000A901C701B6010E94A85718166CF480E0B8
:1040500090E0A0E8BFE380936C1390936D13A0935E
:104060006E13B0936F131AC020E030E0A901C701AE
:10407000B6010E945956811109C010926C1310921A
:104080006D1310926E1310926F1308C0C0926C13D0
:10409000D0926D13E0926E13F0926F13C0906C1378
:1040A000D0906D13E0906E13F0906F13F7FAF094C8
:1040B000F7F8F0948090790990907A09A0907B09A4
:1040C000B0907C09A5019401C701B6010E94A857D0
:1040D000181684F080907D0990907E09A0907F0949
:1040E000B0908009A5019401C701B6010E945956FC
:1040F00087FF09C08092701390927113A09272137F
:10410000B092731308C0C0927013D0927113E092F2
:104110007213F0927313C0907013D0907113E090EB
:104120007213F090731320E030E040E853E4C701CD
:10413000B6010E94595687FF0EC020E030E0A90169
:10414000C701B6010E94A85787FD07C0C701B60185
:104150000E94CA5603C06FEF01C060E08091EA0779
:104160000E94A34780906C1390906D13A0906E13E3
:10417000B0906F13C0908109D0908209E0908309BC
:10418000F0908409A7019601C501B4010E94A857C7
:10419000181684F0C0908509D0908609E0908709B0
:1041A000F0908809A7019601C501B4010E945956F3
:1041B00087FF08C0C0926C13D0926D13E0926E130B
:1041C000F0926F13C0906C13D0906D13E0906E134B
:1041D000F0906F1320E030E040E853E4C701B601EF
:1041E0000E94595687FF0EC020E030E0A901C701A8
:1041F000B6010E94A85787FD07C0C701B6010E94FB
:10420000CA5603C06FEF01C060E08091EE070E94C4
:10421000A347C0906813D0906913E0906A13F090A0
:104220006B13E894F7F8C0926813D0926913E09288
:104230006A13F0926B138090890990908A09A0907C
:104240008B09B0908C09A5019401C701B6010E94A9
:10425000A857181684F080908D0990908E09A09030
:104260008F09B0909009A5019401C701B6010E9481
:10427000595687FF08C08092681390926913A092E4
:104280006A13B0926B132091910930919209409179
:10429000930950919409609168137091691380910A
:1042A0006A1390916B130E94AC576B017C01609371
:1042B00068137093691380936A1390936B1320E0D3
:1042C00030E040E853E40E94595687FF0EC020E0DA
:1042D00030E0A901C701B6010E94A85787FD07C0B9
:1042E000C701B6010E94CA5603C06FEF01C060E06B
:1042F00070E08091F2070E945246F091280A809166
:104300008E15F80FFC8380910B088F1718F44091DD
:10431000130A4C8380919614811110C08091D012A1
:104320009091D112A091D212B091D31280935813D0
:1043300090935913A0935A13B0935B1320E030E08D
:1043400044E353E460919206709193068091940641
:10435000909195060E94AC579B01AC0160E070E023
:1043600080E89FE30E945D566B017C012091581309
:104370003091591340915A1350915B1360919013EF
:104380007091911380919213909193130E94F45520
:104390009B01AC01C701B6010E94AC574B015C0107
:1043A00060935C1370935D1380935E1390935F131F
:1043B000C0907415D0907515E0907615F090771533
:1043C00080919E1490919F149B878A87FC01408066
:1043D000518062807380A3019201C701B6010E94DF
:1043E000A85787FD17C0A301920160917C157091B9
:1043F0007D1580917E1590917F150E94A85787FDAD
:1044000009C0109268131092691310926A131092E7
:104410006B1366C0C0926813D0926913E0926A135E
:10442000F0926B1340907C1550907D1560907E1536
:1044300070907F15A3019201C701B6010E945956E1
:10444000EA85FB85208131814281538187FF07C046
:10445000C301B2010E94595687FF12C006C0C701AE
:10446000B6010E94A85787FD0BC040926813509276
:10447000691360926A1370926B13E0E8F5E102C071
:10448000E8E7F5E120813181428153816091D012CA
:104490007091D1128091D2129091D3120E94F45552
:1044A0006B017C01209168133091691340916A136C
:1044B00050916B13EA85FB856081718182819381C4
:1044C0000E94F4559B01AC01C701B6010E945D56E4
:1044D000609368137093691380936A1390936B13BE
:1044E000209168133091691340916A1350916B13B6
:1044F000609195097091960980919709909198091A
:104500000E94AC579B01AC01C501B4010E94F45557
:104510006B017C016093601370936113809362134D
:10452000909363132091DE063091DF064091E00600
:104530005091E1060E94AC576A877B878C879D87E4
:104540002091990930919A0940919B0950919C09B9
:104550000E94AC572091EC143091ED144091EE1470
:104560005091EF140E94F5554B015C016093641368
:104570007093651380936613909367132091BA0626
:104580003091BB064091BC065091BD06C701B601F3
:104590000E94AC572091F0143091F1144091F21424
:1045A0005091F3140E94F45520912607309127076B
:1045B00040912807509129070E94AC576E877F874A
:1045C000888B998B20916E0730916F07409170070F
:1045D00050917107C701B6010E94AC57A501940123
:1045E0000E94F5552E853F85488959890E94F555C9
:1045F0006B017C01609368137093691380936A1355
:1046000090936B138090920790909307A0909407DB
:10461000B0909507A50194010E94A857181684F040
:104620008090020790900307A0900407B0900507C0
:10463000A5019401C701B6010E94595687FF08C021
:104640008092681390926913A0926A13B0926B13D0
:10465000C0906813D0906913E0906A13F0906B13C8
:1046600020E030E0A901C701B6010E94595687FF3A
:1046700005C080E090E0A0E8BFEB0DC020E030E096
:10468000A901C701B6010E94A85718166CF480E072
:1046900090E0A0E8BFE380936C1390936D13A09318
:1046A0006E13B0936F131AC020E030E0A901C70168
:1046B000B6010E945956811109C010926C131092D4
:1046C0006D1310926E1310926F1308C0C0926C138A
:1046D000D0926D13E0926E13F0926F1380906C1372
:1046E00090906D13A0906E13B0906F13C090A909B5
:1046F000D090AA09E090AB09F090AC09A70196010F
:10470000C501B4010E94A857181684F0C090AD09E5
:10471000D090AE09E090AF09F090B009A7019601E2
:10472000C501B4010E94595687FF09C0C092701399
:10473000D0927113E0927213F092731308C08092BA
:10474000701390927113A0927213B0927313C09071
:104750007013D0907113E0907213F090731320E0F7
:1047600030E040E853E4C701B6010E94595687FF84
:104770000EC020E030E0A901C701B6010E94A85791
:1047800087FD07C0C701B6010E94CA5603C06FEF7C
:1047900001C060E08091F6070E94A347C0906C13AF
:1047A000D0906D13E0906E13F0906F13F7FAF094C1
:1047B000F7F8F094C0926C13D0926D13E0926E13E0
:1047C000F0926F138090B1099090B209A090B30954
:1047D000B090B409A5019401C701B6010E94A85781
:1047E000181684F08090B5099090B609A090B7098A
:1047F000B090B809A5019401C701B6010E945956AD
:1048000087FF08C080926C1390926D13A0926E1374
:10481000B0926F13C0906C13D0906D13E0906E1334
:10482000F0906F1320E030E040E853E4C701B60198
:104830000E94595687FF0EC020E030E0A901C70151
:10484000B6010E94A85787FD07C0C701B6010E94A4
:10485000CA5603C06FEF01C060E08091FA070E9462
:10486000A347C0906813D0906913E0906A13F0904A
:104870006B13E894F7F8C0926813D0926913E09232
:104880006A13F0926B138090B9099090BA09A090C6
:10489000BB09B090BC09A5019401C701B6010E94F3
:1048A000A857181684F08090BD099090BE09A0907A
:1048B000BF09B090C009A5019401C701B6010E94CB
:1048C000595687FF08C08092681390926913A0928E
:1048D0006A13B0926B132091C1093091C2094091C3
:1048E000C3095091C4096091681370916913809154
:1048F0006A1390916B130E94AC576B017C0160931B
:1049000068137093691380936A1390936B1320E07C
:1049100030E040E853E40E94595687FF0EC020E083
:1049200030E0A901C701B6010E94A85787FD07C062
:10493000C701B6010E94CA5603C06FEF01C060E014
:1049400070E08091FE070E9452468091290A909162
:104950008F15890F90910C08981710F48091140A04
:10496000109388150093891530928A1520928B1523
:10497000FB81F0938C15498140938D159C81909318
:104980008E1580938F15EA81E0939015809196148F
:10499000811103C0FD81F09391158090F4149090E3
:1049A000F514A090F614B090F714C0909B15D09019
:1049B0009C15E0909D15F0909E15A7019601C501EC
:1049C000B4010E94595600919E1410919F148111B8
:1049D00010C0F80180819181A281B3818093F41489
:1049E0009093F514A093F614B093F714E8EFF4E164
:1049F00029C04090FC145090FD146090FE147090FB
:104A0000FF14A7019601C301B2010E9459568111FA
:104A100010C0F80180819181A281B3818093FC1440
:104A20009093FD14A093FE14B093FF14E0E0F5E121
:104A300009C0A3019201C501B4010E94595687FD26
:104A4000C8CFE7CF8091B4129091B512A091B61261
:104A5000B091B71280839183A283B3832091941382
:104A600030919513409196135091971360911908C6
:104A700070911A0880911B0890911C080E94AC57F5
:104A80002091E4123091E5124091E6125091E71224
:104A90000E94F5556093AC147093AD148093AE14DE
:104AA0009093AF14209198133091991340919A13D9
:104AB00050919B13609121087091220880912308E6
:104AC000909124080E94AC579B01AC016091B014F6
:104AD0007091B1148091B2149091B3140E94F55565
:104AE0006093B0147093B1148093B2149093B31484
:104AF0008090041590900515A0900615B0900715AC
:104B0000A7019601C501B4010E945956811110C038
:104B1000F80180819181A281B381809304159093E3
:104B20000515A0930615B0930715E8E0F5E12CC034
:104B300040900C1550900D1560900E1570900F154B
:104B4000A7019601C301B2010E945956811113C0F9
:104B5000E0919E14F0919F1480819181A281B38194
:104B600080930C1590930D15A0930E15B0930F150F
:104B7000E0E1F5E109C0A3019201C501B4010E9481
:104B8000595687FDC5CFE4CF8091C8129091C912C4
:104B9000A091CA12B091CB1280839183A283B38378
:104BA00020919C1330919D1340919E1350919F131F
:104BB0006091490870914A0880914B0890914C0887
:104BC0000E94AC572091F4123091F5124091F612E8
:104BD0005091F7120E94F5556093B4147093B51478
:104BE0008093B6149093B7142091A0133091A11321
:104BF0004091A2135091A3136091510870915208F3
:104C000080915308909154080E94AC579B01AC01CD
:104C10006091B8147091B9148091BA149091BB143A
:104C20000E94F5556093B8147093B9148093BA1428
:104C30009093BB148090141590901515A0901615A4
:104C4000B0901715A7019601C501B4010E945956ED
:104C5000811110C0F80180819181A281B38180937C
:104C6000141590931515A0931615B0931715E8E138
:104C7000F5E12CC040901C1550901D1560901E153C
:104C800070901F15A7019601C301B2010E945956E9
:104C9000811113C0E0919E14F0919F148081918145
:104CA000A281B38180931C1590931D15A0931E15AE
:104CB000B0931F15E0E2F5E109C0A3019201C5011F
:104CC000B4010E94595687FDC5CFE4CF8091D4121C
:104CD0009091D512A091D612B091D7128083918372
:104CE000A283B3832091A4133091A5134091A613FE
:104CF0005091A7136091790870917A0880917B0890
:104D000090917C080E94AC572091041330910513B8
:104D100040910613509107130E94F5556093BC14FF
:104D20007093BD148093BE149093BF142091A81368
:104D30003091A9134091AA135091AB13609181084F
:104D40007091820880918308909184080E94AC57EA
:104D50009B01AC016091C0147091C1148091C21488
:104D60009091C3140E94F5556093C0147093C114C0
:104D70008093C2149093C3148090241590902515AD
:104D8000A0902615B0902715A7019601C501B40182
:104D90000E945956811110C0F80180819181A28131
:104DA000B3818093241590932515A0932615B09375
:104DB0002715E8E2F5E12CC040902C1550902D15F8
:104DC00060902E1570902F15A7019601C301B201B6
:104DD0000E945956811113C0E0919E14F0919F14C6
:104DE00080819181A281B38180932C1590932D15A0
:104DF000A0932E15B0932F15E0E3F5E109C0A301B0
:104E00009201C501B4010E94595687FDC5CFE4CF78
:104E10008091B8129091B912A091BA12B091BB12C0
:104E200080839183A283B3832091AC133091AD131F
:104E30004091AE135091AF136091A9087091AA08E8
:104E40008091AB089091AC080E94AC57209114134C
:104E50003091151340911613509117130E94F55578
:104E60006093C4147093C5148093C6149093C714B0
:104E70002091B0133091B1134091B2135091B313FC
:104E80006091B1087091B2088091B3089091B40814
:104E90000E94AC579B01AC016091C8147091C91479
:104EA0008091CA149091CB140E94F5556093C81458
:104EB0007093C9148093CA149093CB1480903415C6
:104EC00090903515A0903615B0903715A701960132
:104ED000C501B4010E945956811110C0F8018081AA
:104EE0009181A281B3818093341590933515A0935D
:104EF0003615B0933715E8E3F5E12CC040903C152A
:104F000050903D1560903E1570903F15A701960199
:104F1000C301B2010E945956811113C0E0919E1441
:104F2000F0919F1480819181A281B38180933C157F
:104F300090933D15A0933E15B0933F15E0E4F5E145
:104F400009C0A3019201C501B4010E94595687FD11
:104F5000C5CFE4CF8091BC129091BD12A091BE123A
:104F6000B091BF1280839183A283B3832091B41345
:104F70003091B5134091B6135091B7136091D90891
:104F80007091DA088091DB089091DC080E94AC57A0
:104F9000209124133091251340912613509127130B
:104FA0000E94F5556093CC147093CD148093CE1469
:104FB0009093CF142091B8133091B9134091BA1344
:104FC0005091BB136091E1087091E2088091E30871
:104FD0009091E4080E94AC579B01AC016091D01401
:104FE0007091D1148091D2149091D3140E94F555F0
:104FF0006093D0147093D1148093D2149093D314EF
:105000008090441590904515A0904615B090471596
:10501000A7019601C501B4010E945956811110C023
:10502000F80180819181A281B3818093441590938E
:105030004515A0934615B0934715E8E4F5E12CC05B
:1050400040904C1550904D1560904E1570904F1536
:10505000A7019601C301B2010E945956811113C0E4
:10506000E0919E14F0919F1480819181A281B3817F
:1050700080934C1590934D15A0934E15B0934F15FA
:10508000E0E5F5E109C0A3019201C501B4010E9468
:10509000595687FDC5CFE4CF8091C0129091C112BF
:1050A000A091C212B091C31280839183A283B38373
:1050B0002091BC133091BD134091BE135091BF138A
:1050C0006091090970910A0980910B0990910C096E
:1050D0000E94AC5720913413309135134091361310
:1050E000509137130E94F5556093D4147093D514E2
:1050F0008093D6149093D7142091C0133091C1138C
:105100004091C2135091C31360911109709112091B
:1051100080911309909114090E94AC579B01AC0136
:105120006091D8147091D9148091DA149091DB14A5
:105130000E94F5556093D8147093D9148093DA14B3
:105140009093DB148090541590905515A0905615AF
:10515000B0905715A7019601C501B4010E94595698
:10516000811110C0F80180819181A281B381809367
:10517000541590935515A0935615B0935715E8E51F
:10518000F5E12CC040905C1550905D1560905E1567
:1051900070905F15A7019601C301B2010E94595694
:1051A000811113C0E0919E14F0919F148081918130
:1051B000A281B38180935C1590935D15A0935E15D9
:1051C000B0935F15E0E6F5E109C0A3019201C501C6
:1051D000B4010E94595687FDC5CFE4CF8091C41217
:1051E0009091C512A091C612B091C712808391838D
:1051F000A283B3832091C4133091C5134091C61389
:105200005091C7136091390970913A0980913B0917
:1052100090913C090E94AC57209144133091451362
:1052200040914613509147130E94F5556093DC144A
:105230007093DD148093DE149093DF142091C813D3
:105240003091C9134091CA135091CB136091410919
:105250007091420980914309909144090E94AC5792
:105260009B01AC016091E0147091E1148091E21413
:105270009091E3140E94F5556093E0147093E1144B
:105280008093E2149093E3148090641590906515D8
:10529000A0906615B0906715A7019601C501B401ED
:1052A0000E945956811110C0F80180819181A2811C
:1052B000B3818093641590936515A0936615B093A0
:1052C0006715E8E6F5E12CC040906C1550906D151F
:1052D00060906E1570906F15A7019601C301B20121
:1052E0000E945956811113C0E0919E14F0919F14B1
:1052F00080819181A281B38180936C1590936D150B
:10530000A0936E15B0936F15E0E7F5E109C0A30116
:105310009201C501B4010E94595687FDC5CFE4CF63
:105320008091CC129091CD12A091CE12B091CF125B
:1053300080839183A283B3832091CC133091CD13CA
:105340004091CE135091CF136091690970916A0911
:1053500080916B0990916C090E94AC572091541375
:105360003091551340915613509157130E94F555A3
:105370006093E4147093E5148093E6149093E7141B
:10538000209171093091720940917309509174090B
:105390006E817F81888599850E94AC579B01AC0105
:1053A0006091E8147091E9148091EA149091EB14E3
:1053B0000E94F5556093E8147093E9148093EA1401
:1053C0009093EB148090741590907515A0907615BD
:1053D000B0907715A7019601C501B4010E945956F6
:1053E000811110C0F80180819181A281B3818093E5
:1053F000741590937515A0937615B0937715E8E71B
:10540000F5E129C040907C1550907D1560907E1587
:1054100070907F15A7019601C301B2010E945956F1
:10542000811110C0F80180819181A281B3818093A4
:105430007C1590937D15A0937E15B0937F15E0E8C1
:10544000F5E109C0A3019201C501B4010E945956BA
:1054500087FDC8CFE7CF8091D0129091D112A09153
:10546000D212B091D31280839183A283B38320910F
:10547000990930919A0940919B0950919C096A853C
:105480007B858C859D850E94AC572091641330915B
:10549000651340916613509167130E94F555609310
:1054A000EC147093ED148093EE149093EF1420910C
:1054B000A1093091A2094091A3095091A4096E85D8
:1054C0007F85888999890E94AC579B01AC016091C6
:1054D000F0147091F1148091F2149091F3140E94E1
:1054E000F5556093F0147093F1148093F214909337
:1054F000F31483E090E00E941A43E0919E14F0912F
:105500009F14408151816281738180E090E00E940C
:105510001643609184147091851480918614909143
:1055200087140E94F6566B017C016091881470917B
:10553000891480918A1490918B140E94F65620E071
:1055400030E040E85FE40E94AC579B01AC01C7012A
:10555000B6010E94F5552DEC3CEC4CE45DE30E9455
:10556000AC57AB01BC0181E090E00E9416438091F2
:10557000961481112EC060918C1470918D148091BD
:105580008E1490918F140E94F6566B017C016091ED
:1055900090147091911480919214909193140E94A0
:1055A000F65620E030E040E85FE40E94AC579B01F3
:1055B000AC01C701B6010E94F5552AE939E949E96C
:1055C0005EE30E94AC57AB01BC0182E090E00E9418
:1055D00016438090971490909814A0909914B090CE
:1055E0009A1420E030E040E85FEBC501B4010E946E
:1055F000595660909E1470909F14882319F1F301FE
:10560000C080D180E280F380A7019601C501B4017A
:105610000E94F4554B015C0120E030E040E054E38F
:10562000C701B6010E94AC579B01AC01C501B40192
:105630000E94A857181634F080E39AE09093E8137C
:105640008093E71380919D14882331F080E39AE0E2
:105650009093E8138093E713609178147091791414
:1056600080917A1490917B146F5F7F4F8F4F9F4F83
:10567000609378147093791480937A1490937B14C8
:105680006115710581059105A1F400917C141091BB
:105690007D1420917E1430917F140F5F1F4F2F4F88
:1056A0003F4F00937C1410937D1420937E1430930D
:1056B0007F14C0908014D0908114E0908214F090F8
:1056C00083140E94F656A70196010E94AC574B0125
:1056D0005C0160917C1470917D1480917E14909196
:1056E0007F140E94F656A70196010E94AC5720E055
:1056F00030E040E85FE40E94AC579B01AC01C5017B
:10570000B4010E94F555F301608371838283938312
:105710008091841490918514A0918614B09187147F
:105720000196A11DB11D8093841490938514A093BC
:105730008614B0938714892B8A2B8B2B99F4809134
:10574000881490918914A0918A14B0918B140196B9
:10575000A11DB11D8093881490938914A0938A147D
:10576000B0938B142091961421112AC080918C142F
:1057700090918D14A0918E14B0918F140196A11D5B
:10578000B11D80938C1490938D14A0938E14B093BC
:105790008F14892B8A2B8B2B99F4809190149091E4
:1057A0009114A0919214B09193140196A11DB11D72
:1057B0008093901490939114A0939214B0939314A7
:1057C00081E0820F863018F4809396142AC11092DB
:1057D000961427C18091E513882309F4A1C020E025
:1057E00030E040E85FE36091960670919706809103
:1057F0009806909199060E94F5556B017C01609185
:10580000921570E080E090E00E94F65620E030E0D3
:1058100040E85FE30E94F5559B01AC01C701B6016A
:105820000E94F4550E94C556CB010197BC01660F3A
:10583000771F680F791FFB01EE0FFF1FEE0FFF1F91
:10584000EC50F14F80819181A281B38180937013DC
:1058500090937113A0937213B0937313FB01EE0F27
:10586000FF1FEE0FFF1FEC51F04F80819181A2814D
:10587000B38180937C1390937D13A0937E13B09398
:105880007F13FB01EE0FFF1FEE0FFF1FEC53FE4EC9
:1058900080819181A281B381809388139093891331
:1058A000A0938A13B0938B13FB01EE0FFF1FEE0F33
:1058B000FF1FE850F14F80819181A281B3818093D5
:1058C000741390937513A0937613B0937713FB0121
:1058D000EE0FFF1FEE0FFF1FE851F04F8081918107
:1058E000A281B3818093801390938113A09382133C
:1058F000B0938313FB01EE0FFF1FEE0FFF1FE85362
:10590000FE4E80819181A281B38180938C1390930C
:105910008D13A0938E13B0938F13FB010C949E06EE
:105920008091E613882311F40C949E072091921520
:1059300083E0289F90011124F901EE0FFF1FEE0F65
:10594000FF1FEC50F14F80819181A281B381809340
:10595000701390937113A0937213B0937313F901A2
:10596000EE0FFF1FEE0FFF1FEC51F04F8081918172
:10597000A281B38180937C1390937D13A0937E13B7
:10598000B0937F13F901EE0FFF1FEE0FFF1FEC53D3
:10599000FE4E80819181A281B38180938813909380
:1059A0008913A0938A13B0938B13F901EE0FFF1F95
:1059B000EE0FFF1FE850F14F80819181A281B381EA
:1059C0008093741390937513A0937613B093771309
:1059D000F901EE0FFF1FEE0FFF1FE851F04F80811E
:1059E0009181A281B3818093801390938113A093BE
:1059F0008213B0938313F901EE0FFF1FEE0FFF1F09
:105A0000E853FE4E80819181A281B38180938C13F3
:105A100090938D13A0938E13B0938F13F9010C9470
:105A20006D0761960FB6F894DEBF0FBECDBFDF9154
:105A3000CF911F910F91FF90EF90DF90CF90BF908B
:105A4000AF909F908F907F906F905F904F903F901E
:105A50002F900895CF93DF9384E090E0F7D3E7EEA3
:105A6000F3E185ECDF011D928A95E9F78BE994E17A
:105A70009093EE138093ED13AEE9B4E1B093281444
:105A8000A0932714C0E8D4E1D093FC13C093FB1378
:105A9000F0935214E0935114F093EC13E093EB1352
:105AA00021E030E0FC013183208384E49AE090938C
:105AB000F2138093F11320EA34E12D933C9380E0BC
:105AC00090E0A0E8BFEB8093971490939814A09374
:105AD0009914B0939A148DEC9CECACE4BDE38883EC
